:020000040800F2
:1000000000500020590200085D0100084901000865
:1000100045010008310100081D0100080000000032
:1000200000000000000000000000000019010008AE
:10003000150100080000000011010008950E0008DD
:100040000D0100080D0100080D0100080D01000858
:100050000D0100080D0100080D0100080D01000848
:100060000D0100080D0100080D0100080D01000838
:100070000D01000855310008994E000811310008A3
:100080000D010008CD300008E54500080D0100080D
:100090000D0100080D0100080D0100080D01000808
:1000A0000D0100080D0100080D0100080D010008F8
:1000B0000D0100080D0100080D0100088D42000827
:1000C0000D0100080D0100080D0100080D010008D8
:1000D0000D0100082D4B00080D0100080D0100085E
:1000E0000D0100080D0100080D01000800000000CE
:1000F0000000000000000000000000000000000000
:1001000000000000000000005FF808F100BEFEE7FC
:1001100000BEFEE700BEFEE700BEFEE71EF0040FD5
:100120000CBFEFF30880EFF3098071464C4A10478B
:100130001EF0040F0CBFEFF30880EFF30980714647
:10014000484A104700BEFEE71EF0040F0CBFEFF355
:100150000880EFF309807146434A104700BEFEE76E
:1001600000BEFEE700BEFEE700BEFEE700B583B0BE
:1001700000F0BEFF284B294A1360294A1360294B1F
:10018000294A03E052F8041B43F8041B27498B4219
:10019000F8D3224B1A68264B9A4200D0FEE7204B38
:1001A0001A68244B9A42F9D11B4B234A1360234A05
:1001B0001360234B02E0002243F8042B214A9342B0
:1001C000F9D31D4B1B6813B91C4B1B6803B1FEE729
:1001D00000F08AFF694601A800F096FF1A4C1B4BFD
:1001E000E41AA410002504E0184B53F82530984772
:1001F0000135AC42F8DC164C164BE41AA41000256D
:1002000004E0144B53F8253098470135AC42F8DC34
:100210000099019806F048FFBABADECA0000002033
:10022000B0000020000000209C880008B4000020DE
:100230007856341232547698B4000020C815002045
:10024000B4000020CC15002094020008940200089D
:10025000940200089402000808B5FFF787FF000029
:0C02600061010008650100086901000848
:10026C009C88000800000020B40000209C88000836
:10027C000000000000000000B4000020CC1500209D
:08028C0000000000000000006A
:100298000438C0B2032801D80120704700207047F5
:1002A800D0B110B404460023012001E00133DBB2D1
:1002B8000B4A12789A4211D9C3EBC3021101094AB9
:1002C8000A4492F82920A242F0D1064A0A44D27C74
:1002D800022AEBD10020E9E70120704710BC7047E3
:1002E80006020020E807002068B3F0B405460023A2
:1002F800FF26012703E01E4611E00133DBB2134A53
:1003080012789A4215D91C46C3EBC3021001104A51
:10031800024492F82920AA42EFD1FF2EEBD0C4EB79
:10032800C40420010A4A0244D27C022AE5D00027EC
:10033800E3E71FB18E4204D0002000E00020F0BCAB
:1003480070470120FBE70120704700BF060200202C
:10035800E807002003882BB1013B9BB223B103803F
:10036800002070470020704701207047036823B1C0
:10037800013B04D003600020704700207047012033
:10038800704770B4B0F84A508D4206D2B0F8483081
:100398002B44994214DC012400E00024022A15D0E1
:1003A800032A17D0012A0DD000221346012C04D0AD
:1003B80066B29EB1022C1AD00023184670BC704752
:1003C8000224EBE790F845300278EFE790F84630E2
:1003D8004278EBE790F847308278E7E79B1A03FB0F
:1003E80001F393FBF5F3DBB21344DBB2E5E7491BFA
:1003F800B0F84840091B01399A1A02FB01F2B0F81B
:100408004C1092FBF1F2D2B29B1ADBB2D5E7000096
:10041800034B1B78834201D80020704701207047A6
:1004280006020020054B1B78834203D8FF2803D01F
:100438000020704701207047012070470602002005
:10044800F8B504460F461646FFF7ECFF05460028A8
:100458003ED0FF2C3ED0F7B1C4EBC4031A012C4B9D
:10046800134493F92230012B41D0E200121B1101F1
:10047800274B0B441A7E1A725A7E5A729A7E9A72C7
:10048800FF229A73E200121B1101214B0B44002238
:10049800DA745A6ADA62DEB1E200121B11011C4BEF
:1004A8000B44002283F8492093F9582083F83C2014
:1004B800B3F85620DA8793F84C00FFF7E9FE0546B3
:1004C80018B3C4EBC4042201114B13440022DA8789
:1004D8002846F8BD00240F4B1B78A342F8D93246B2
:1004E80039462046FFF7ACFF0134E4B2F3E7E200F7
:1004F800121B1101064B0B445A7D1A729A7D5A72CF
:10050800DA7D9A7201229A73BCE73546E0E700BFAC
:10051800E80700200602002038B50446FFF782FFEE
:10052800054658B1FF2C0BD0C4EBC40422010B4B79
:100538001344DD7C012D14BF00250125284638BD54
:100548000024074B1B78A342F8D92046FFF7E4FFA5
:1005580010B10134E4B2F4E70546EFE7E8070020FC
:100568000602002070B504460D46FFF75BFF0646FD
:1005780038B1FF2C07D0C4EBC4042201084B134444
:100588009D74304670BD0024064B1B78A342F8D9F1
:1005980029462046FFF7E6FF0134E4B2F4E700BF3E
:1005A800E80700200602002070B504460D46FFF754
:1005B80039FF064640B1FF2C08D0C4EBC404220121
:1005C800084B134483F84850304670BD0024064B4E
:1005D8001B78A342F8D929462046FFF7E5FF0134E6
:1005E800E4B2F4E7E8070020060200200138C0B2B0
:1005F800002363B1002070471E4405EBC60633791B
:10060800137073795370B3799370012012E0F0B4CA
:100618000646C418084D35F834408C4205D8C4182D
:1006280005EBC40464888C42E6D20133DBB2002BAC
:10063800EED00020F0BC70473C880008FF2802D0AC
:10064800012802D170470120704700207047000040
:1006580038B504460D46FFF7F1FF034630B1013CBB
:10066800054A32F81420AA4202D31DB1184638BDF3
:100678000023FBE70023F9E704020020F8B504464D
:100688000D4616461F46FFF7E3FFE0B10146013C61
:10069800E4B24FF4977303FB04520C4B03EB820351
:1006A800DB78B34210D1094B03EB82039B78BB4242
:1006B8000AD1064D05EB820462789DF818309A42FB
:1006C80002D1002100E001210846F8BDCC0200203B
:1006D800FF2813D010B50446FFF7B0FF034618B142
:1006E800601E094B1B5CDBB2184610BD064B995CBB
:1006F80001F0FF0331B90132D2B200E00022002A32
:10070800F4D0002318467047BC0000202DE9F043C0
:1007180085B004460E46914698469DF830709DF87F
:1007280034509DF838302BB900974346FFF7A6FFA1
:1007380000283FD103AA31462046FFF757FFC8B12A
:100748009DF80C3003FB09F9B9F1000F35DBC9F34B
:10075800C7199DF80D3003FB08F8B8F1000F2FDB1F
:10076800C8F3C7189DF80E3003FB07F7002F2ADBE4
:10077800C7F3C717013CE4B24FF4977303FB046255
:10078800124B03EB820383F8039083F802805F70B7
:100798006B1EDBB21E2B01D90D4B1D784FF49773DE
:1007A80003FB046665F01F05084B03F82650094B48
:1007B80001221A5505B0BDE8F08309F17F09C6E7A3
:1007C80008F17F08CCE77F37D2E700BFCC020020D2
:1007D8003A000020A80200202DE9F04184B0044628
:1007E8000E4690461F46FFF71DFE054620B316B37A
:1007F800E3001B1B1901124A0A44938852889B1A6A
:1008080001339E4201DD002516E0911989B20139B4
:10081800C4EBC4042001012302939DF82C300193FA
:100828009DF8283000933B46424689B2044C205C30
:10083800FFF76CFF00E00025284604B0BDE8F08112
:10084800E80700201F2800D91F2060F01F00014B77
:10085800187070473A0000202DE9F04184B0044632
:10086800884617461E469DF828509DF82C3023B917
:1008780000953346FFF702FF80BB03AA4146204696
:10088800FFF7B4FEB8B19DF80C3003FB07F7002F53
:1008980027DBC7F3C7179DF80D3003FB06F6002EBC
:1008A80021DBC6F3C7169DF80E3003FB05F5002DB6
:1008B8001BDBC5F3C715013CE4B20D4A4FF4977131
:1008C80001FB048102EB8103DF709E705D70094BB0
:1008D8001B7802F82130084B01221A5504B0BDE8F4
:1008E800F0817F37D5E77F36DBE77F35E1E700BF6B
:1008F800CC0200203A000020A80200202DE9F04197
:1009080082B004460E4690461F46FFF781FD054615
:1009180008B3FEB1E3001B1B1901114A0A4493886E
:1009280052889B1A01339E4201DD002513E091197C
:1009380089B20139C4EBC4042001012301939DF855
:10094800203000933B46424689B2054C205CFFF7B5
:1009580083FF00E00025284602B0BDE8F08100BF13
:10096800E80700202DE9F04784B082460C46174678
:1009780098469DF830909DF834609DF83850FFF700
:1009880067FE20B139465046FFF762FE80B904B0D1
:10099800BDE8F08701230293019500964B46424635
:1009A80021465046FFF7B2FE0134A4B2A742EED367
:1009B8006B1EDBB21E2BEDD90123019300964B462B
:1009C800424621465046FFF747FFEDE7014B1870B6
:1009D800704700BF8807002010B504460A280BD0CE
:1009E8000B4A1368013313600A4B1B6843B1591C47
:1009F800084A11601C7010BD0D20FFF7EDFFEFE7EE
:100A0800054B1B68002BF6D0E0B29847F3E700BF10
:100A180000020020C8020020AC15002010B50446D2
:100A280094F9000018B10134FFF7D6FFF8E710BDBC
:100A38002DE9F04786B0054601917E4B00221A60E9
:100A480002E0FFF7C9FF25462C4614F9010B0028E0
:100A580000F0EA802528F4D1023594F90000302806
:100A680010D02D2813D000260024A0F13002D2B2D5
:100A7800092A11D804EB84046300C418303C15F922
:100A8800010BF2E7A51C94F901000126ECE7A51C6F
:100A980094F901000226E7E76C2801D04C2803D11D
:100AA80046F0040615F9010B002800F0BD80602807
:100AB80003DDA0F120035BB200E00346A3F142028C
:100AC800162A3ED8DFE802F04031393D3D3D3D3D34
:100AD8003D3D3D3D3D423D3D3D0C3D393D3D3B00AD
:100AE800019B1A1D0192D3F80090002700E00137FE
:100AF80019F90730002BFAD103E02020FFF76CFF2B
:100B0800474616F0020F04D107F10108A742F4D3B3
:100B180047464846FFF782FF03E02020FFF75CFFC7
:100B280037467E1CA742F8D38EE7019B1A1D019217
:100B380093F90000FFF750FF86E70A2107E010212C
:100B480005E0FFF749FF7FE7022100E0082116F0E2
:100B5800040F08D0019A171D01971268442B0ED074
:100B68004FF0000C22E0442B04D0019A171D019786
:100B78001268F3E7019A171D01971268EEE7002A39
:100B8800EEDA524246F00806EAE727233B445BB216
:100B98000CF1010730330DF11808E04408F8103C57
:100BA80091420ED872460F2F0BD8BC46B2FBF1FE0D
:100BB80001FB1E277BB2092BEADD7828E5D0072345
:100BC800E4E716F0080F06D006AB1F442D2307F8FC
:100BD800103C0CF1020716F0010F0ED04FF0300A4E
:100BE800B84616F0020F0CD108F10109A04507D24A
:100BF8005046FFF7F1FEC846F3E74FF0200AEFE74B
:100C0800C846013F06AB3B4413F9100CFFF7E4FE5E
:100C1800002FF6D108F10106A045BFF415AF20203A
:100C2800FFF7DAFEB046F5E7024B186806B0BDE8F4
:100C3800F08700BF00020020013903290FD8DFE840
:100C480001F00205080B92B28286704792B20287C1
:100C5800704792B28287704792B2A0F840207047DE
:100C68004FF08043002200E09B0833B1D1185208AE
:100C78008842F9D3401A1A44F6E71046704702FB37
:100C880000F0B0FBF1F07047F0B583B003460D46B5
:100C980000785F78C4199E7834440A462146FFF7E5
:100CA800EEFF8DF800002A4621463846FFF7E7FF99
:100CB8008DF801002A4621463046FFF7E0FF8DF8FF
:100CC8000200009B0020DAB262F30700C3F3072298
:100CD80062F30F20C3F3074363F3174003B0F0BD7B
:100CE8008B1A834204DC1144814203DA00207047E6
:100CF800002070470120704738B50C4611461D4644
:100D0800049AFFF7EDFF40B1049A29462046FFF701
:100D1800E7FF034610B9002300E00023184638BD5A
:100D2800002801DB012070474FF0FF307047013089
:100D3800884200D9002070472DE9F04180460C46D2
:100D480016461D46069F0846FFF7EAFF444407E09B
:100D5800AC4203DDC4EB45044FF0FF30B44208DB7E
:100D6800AC42F5DCB442F3DB07B138702046BDE88D
:100D7800F081C4EB46040120F2E710B49C1A084441
:100D8800904203DA20440130FAE7001B5A1C8242E1
:100D9800FBDB10BC7047904202D2B1F1FF3F07D095
:100DA80002FB0100009A904204D8984204D370478D
:100DB80000207047009870471846704710B472B604
:100DC800084B9C68084B186862B64FF47A72074B58
:100DD800196802FB01F31B1BB3FBF1F302FB0030A4
:100DE80010BC704710E000E02415002044000020EB
:100DF80010B483B000BF1D4B9B6801931C4B1C684B
:100E08001C4B1968631A019A934212D2019300236A
:100E18000093B0F57A7F11D9144B9A68019B9A42D6
:100E2800FAD3124B9A68019B9A42FAD8A0F57A70C5
:100E3800EFE7019B9942EAD90191E8E70B4B9B68E0
:100E480000FB11310091009B9C4207D2009B1C447F
:100E58000094064B9A68009B9A42FAD3034B9A680F
:100E6800009B9A42FAD803B010BC704710E000E02B
:100E78004800002044000020034B1B681844024B24
:100E88001B688342FBD3704724150020024A13686D
:100E980001331360704700BF24150020837813B115
:100EA800014B1B688360704724150020837863B169
:100EB800074A12688A4207D3054A1268511A82689B
:100EC800914202D8002300E000231846704700BF73
:100ED8002415002080787047A9B10378427893429E
:100EE80001D20133037003784278934211D3837897
:100EF80033B9012303710023C3700C4B1B68836053
:100F08000123837070470378002BECD0013B0370FA
:100F1800E9E753B9837833B1002303710123C37020
:100F28004FF0FF338360002383707047241500203F
:100F380082B00023019300932C4A136843F4803352
:100F480013602A4B1B6803F400330093019B0133A1
:100F58000193009B1BB9019BB3F5A06FF1D1234B03
:100F68001B6813F4003F06D001230093009B012B5C
:100F780004D002B0704700230093F7E71C4B1A68AF
:100F880042F010021A601A6822F003021A601A6806
:100F980042F002021A60A3F580535A685A605A68F0
:100FA8005A605A6842F480625A605A6822F47C1285
:100FB8005A605A6842F4E8125A601A6842F080721D
:100FC8001A600A4B1B6813F0007FFAD0074B5A6867
:100FD80022F003025A605A6842F002025A60034B38
:100FE8005B6803F00C03082BF9D1C2E7001002403C
:100FF8000020024008B5FFF79BFF08BD1F4B5B6848
:1010080003F00C03042B15D0082B17D01BB11C4B75
:101018001C4A1A6002E01A4B1A4A1A60174B5B689E
:10102800C3F30313184AD35CDAB215490B68D340EB
:101038000B607047124B134A1A60EFE70F4A536868
:101048005268C3F38343023312F4803F05D10F4A39
:1010580002FB03F30A4A1360E0E7084A526812F4F5
:10106800003F05D0094A02FB03F3054A1360D5E7A0
:10107800044A02FB03F3024A1360CFE70010024060
:101088002800002000127A000800002000093D0016
:1010980008B5104B1A6842F001021A6059680E4AE6
:1010A8000A405A601A6822F0847222F480321A6068
:1010B8001A6822F480221A605A6822F4FE025A60E2
:1010C8004FF41F029A60FFF795FF044B4FF0006240
:1010D8009A6008BD001002400000FFF800ED00E033
:1010E80008B5FFF78BFF08BD08B5FFF7D1FF024A27
:1010F800024B9A6008BD00BF0000000800ED00E048
:1011080001230360014B0B60704700BF30000020D3
:10111800FEE708B50120FFF7FBFF08B5FFF7F9FF69
:1011280038B505460C46274B984214D0A3F57443AE
:10113800984210D003F5806398420CD003F5806381
:10114800984208D003F58063984204D040F2863173
:101158001D48FFF7E2FF012C13D0802C11D0402C42
:101168000FD0202C0DD0102C0BD0B4F5807F08D0D8
:10117800B4F5007F05D0082C03D0042C01D0022C34
:1011880007D1B4F5007F0AD02B881C4218D0012063
:1011980038BD40F287310C48FFF7BFFFF1E7094B34
:1011A8009D42F1D0A3F574439D42EDD003F58063D1
:1011B8009D42E9D040F28B310348FFF7AEFFE3E7E9
:1011C8000020E5E700380140BC87000838B505462F
:1011D8000C46124B984214D0A3F57443984210D091
:1011E80003F5806398420CD003F58063984208D0D9
:1011F80003F58063984204D040F25F210848FFF766
:101208008CFFB4F5007F03D2C4F30804AC8038BD6A
:101218004FF418710248FFF780FFF5E700380140E6
:10122800BC87000870B504460D461646194B98420F
:1012380014D0A3F57443984210D003F58063984204
:101248000CD003F58063984208D003F58063984278
:1012580004D040F2C3111048FFF75FFF25F0C00328
:101268009BB203B925B94FF4E2710B48FFF755FF5C
:10127800012E04D84EB1A38A1D43A58270BD40F249
:10128800C5110548FFF749FFF4E7A38A23EA0505D6
:10129800A582F3E700380140BC87000870B5054611
:1012A8000C461646384B984214D0A3F5744398421E
:1012B80010D003F5806398420CD003F58063984200
:1012C80008D003F58063984204D040F289112F4872
:1012D800FFF723FF282C19D040F227739C4215D022
:1012E80040F226639C4211D040F225539C420DD017
:1012F80040F224439C4209D040F646039C4205D064
:1013080040F66A139C4201D0602C16D1012E1AD8DF
:1013180040F66A139C421CD0C4F3421204F01F0426
:10132800012303FA04F49A4224D0022A24D0143563
:1013380026B32B681C432C6070BD4FF4C57113484D
:10134800FFF7EBFEE2E740F28B111048FFF7E5FEEE
:10135800DEE70D4B9D42DFD0A3F574439D42DBD001
:1013680003F580639D42D7D040F28F110748FFF7FD
:10137800D4FED1E70C35DBE71035D9E72B6823EA33
:1013880004042C60D8E700BF00380140BC8700087F
:1013980038B504460D46164B984214D0A3F574434D
:1013A800984210D003F5806398420CD003F580630F
:1013B800984208D003F58063984204D04FF4B17185
:1013C8000C48FFF7AAFE012D05D855B1A38943F4AF
:1013D8000053A38138BD40F263110648FFF79DFE14
:1013E800F3E7A3899BB223F400539BB2A381F1E7EF
:1013F80000380140BC87000838B504460D462E4B1E
:10140800984243D0B0F1804F40D0A3F5943398422E
:101418003CD003F58063984238D003F58063984246
:1014280034D003F58063984230D003F58063984246
:101438002CD003F59033984228D003F5C053984236
:1014480024D003F58063984220D003F58063984246
:101458001CD0A3F59E33984218D003F580639842B8
:1014680014D003F58063984210D003F59033984266
:101478000CD003F58063984208D003F58063984246
:1014880004D040F229310D48FFF747FE012D05D859
:1014980055B1238843F00103238038BD40F22A3137
:1014A8000648FFF73AFEF3E723889BB223F00103CF
:1014B8009BB22380F1E700BF002C01405887000849
:1014C8000023038043808380C38003814381838119
:1014D800C38170472DE9F04104460D463F4B9842C1
:1014E80017D0B0F1804F14D0A3F59433984210D0A0
:1014F80003F5806398420CD003F58063984208D0C6
:1015080003F59433984204D04FF404713448FFF73C
:1015180004FE2B884BB1102B07D0202B05D0302B85
:1015280003D0602B01D0702B40D16B88012B43D89E
:101538002B890BB1022B45D1238C9BB223F480530A
:101548009BB22384268CB6B2B4F804801FFA88F8BC
:10155800A78BBFB227F4E6472B881B029BB21F4319
:1015680026F400562B891B039BB233436E8836033F
:10157800B6B21E43194B9C4203D003F500639C424C
:101588000BD1AB89B3F5807F00D00BBB28F4804822
:10159800AB899B019BB248EA0308A4F80480A7839F
:1015A800EB88A4F840302684BDE8F08140F2112190
:1015B8000B48FFF7B2FDB8E740F212210848FFF7E1
:1015C800ACFDB5E740F213210548FFF7A6FDB3E7E8
:1015D8004FF40C710248FFF7A0FDD7E7002C01403B
:1015E800588700082DE9F04104460E46574B9842AB
:1015F80017D0B0F1804F14D0A3F59433984210D08F
:1016080003F5806398420CD003F58063984208D0B4
:1016180003F59433984204D040F2C1114C48FFF7C7
:101628007CFD33884BB1102B07D0202B05D0302BF5
:1016380003D0602B01D0702B5DD17388012B60D84B
:1016480033890BB1022B62D1238C9BB223F48073B4
:101658009BB22384258CADB2B4F804801FFA88F8B5
:10166800A78BBFB227F0730733881F4325F4007593
:1016780033891B029BB22B4375882D02ADB21D43E3
:10168800324B9C4203D003F500639C422BD1B388B4
:101698000BB1042B41D173890BB1082B43D1F389CA
:1016A800B3F5007F01D0002B43D1B389B3F5807F18
:1016B80001D0002B43D125F4006573891B029BB22E
:1016C8001D4325F48065B3881B029BB21D4328F493
:1016D8004058B3891B019BB248EA0308F3891B01F0
:1016E8009BB243EA0808A4F80480A783F388A38779
:1016F8002584BDE8F0814FF4E1711548FFF70DFD31
:101708009BE740F2C3111248FFF707FD98E74FF433
:10171800E2710F48FFF701FD96E74FF4F0710C48AE
:10172800FFF7FBFCB7E740F2E1110948FFF7F5FCCA
:10173800B5E74FF4F1710648FFF7EFFCB5E740F263
:10174800E3110348FFF7E9FCB5E700BF002C0140AF
:10175800588700082DE9F04104460E465E4B984232
:1017680023D0B0F1804F20D0A3F5943398421CD0F9
:1017780003F58063984218D003F58063984214D02B
:1017880003F59433984210D003F5C05398420CD017
:10179800A3F59A33984208D003F59433984204D0BD
:1017A80040F26F114D48FFF7B8FC33884BB1102B4E
:1017B80007D0202B05D0302B03D0602B01D0702B05
:1017C8005FD17388012B62D833890BB1022B64D1A6
:1017D800238C9BB223F010039BB22384258CADB2DB
:1017E800B4F804801FFA88F8278BBFB227F4E647BD
:1017F80033881B029BB21F4325F0200533891B0148
:101808009BB22B4375882D01ADB21D43324B9C42D0
:1018180003D003F500639C422BD1B3880BB1042B92
:1018280041D173890BB1082B43D1F389B3F5007FFC
:1018380001D0002B43D1B389B3F5807F01D0002BB1
:1018480043D125F0800573891B019BB21D4325F008
:101858004005B3881B019BB21D4328F44068B38937
:101868009B009BB248EA0308F3899B009BB243EABA
:101878000808A4F804802783F38823872584BDE813
:10188800F0814FF4B8711548FFF747FC99E740F22B
:1018980071111248FFF741FC96E74FF4B9710F48F0
:1018A800FFF73BFC94E740F28F110C48FFF735FC3B
:1018B800B7E74FF4C8710948FFF72FFCB5E740F2C6
:1018C80091110648FFF729FCB5E74FF4C9710348A1
:1018D800FFF723FCB5E700BF002C0140588700083C
:1018E8002DE9F04104460D46684B98423BD0B0F1D3
:1018F800804F38D0A3F59433984234D003F58063F1
:10190800984230D003F5806398422CD003F5943385
:10191800984228D003F5C053984224D003F5806339
:10192800984220D003F5806398421CD0A3F59E33DB
:10193800984218D003F58063984214D003F5806369
:10194800984210D003F5903398420CD003F5806389
:10195800984208D003F58063984204D04FF48E7102
:101968004B48FFF7DAFB2B884BB1102B07D0202B05
:1019780005D0302B03D0602B01D0702B5CD16B8845
:10198800012B5FD82B890BB1022B61D1238C9BB221
:1019980023F001039BB22384268CB6B2A788BFB27A
:1019A800B4F818801FFA88F828F073082B8848EADA
:1019B800030826F002062B8933436E881E43334BF7
:1019C8009C420FD003F500639C420BD003F54063A3
:1019D8009C4207D003F580639C4203D003F58063E3
:1019E8009C4221D1AB880BB1042B37D16B890BB149
:1019F800082B39D1EB89B3F5007F01D0002B39D101
:101A0800AB89B3F5807F01D0002B39D126F00806C9
:101A18006B891E4326F00406AB881E4327F44077E3
:101A2800AB891F43EB891F43A780A4F81880EB8874
:101A3800A3862684BDE8F08140F21D111448FFF703
:101A48006CFB9CE74FF48F711148FFF766FB99E731
:101A580040F21F110E48FFF760FB97E74FF49E71A5
:101A68000B48FFF75AFBC1E740F23D110848FFF762
:101A780054FBBFE74FF49F710548FFF74EFBBFE7E4
:101A880040F23F110248FFF748FBBFE7002C014036
:101A98005887000808B50139032906D8DFE801F09E
:101AA80002060A0E1146FFF71BFF08BD1146FFF795
:101AB80051FEFAE71146FFF795FDF6E71146FFF7E5
:101AC80009FDF2E738B504460D46534B984242D01B
:101AD800B0F1804F3FD0A3F5943398423BD003F543
:101AE8008063984237D003F58063984233D003F57A
:101AF800806398422FD003F5806398422BD003F57A
:101B08009033984227D003F5C053984223D003F569
:101B1800806398421FD003F5806398421BD0A3F5D9
:101B28009E33984217D003F58063984213D003F58B
:101B3800806398420FD003F5903398420BD003F599
:101B48008063984207D003F58063984203D0E72169
:101B58003248FFF7E2FA6B883BB1102B05D0202BF7
:101B680003D0402B01D0602B4CD1EB882BB1B3F5BF
:101B7800807F02D0B3F5007F49D123889BB2264AE3
:101B8800944212D002F5006294420ED0B4F1804F14
:101B98000BD0A2F59832944207D002F580629442A5
:101BA80003D002F58062944203D123F070036A885F
:101BB80013431B4A944208D002F58062944204D031
:101BC80023F440739BB2EA8813432380AB88A38530
:101BD8002B882385104B9C420FD003F500639C4251
:101BE8000BD003F540639C4207D003F580639C4209
:101BF80003D003F580639C4201D12B7A238601230D
:101C0800A38238BDE8210548FFF787FAADE7E92147
:101C18000248FFF782FAB0E7002C01405887000815
:101C28000010004038B504460D46124B98420CD0BF
:101C3800A3F57843984208D003F58063984204D00E
:101C48004FF41D710C48FFF768FA012D05D855B1FE
:101C5800A38843F00403A38038BD40F275210648E9
:101C6800FFF75BFAF3E7A3889BB223F004039BB268
:101C7800A380F1E7003001401087000870B50446E2
:101C88000D461646154B98420CD0A3F5784398425A
:101C980008D003F58063984204D04FF408711048C7
:101CA800FFF73BFA012E0ED825F003039BB203B9C8
:101CB80025B940F222210A48FFF72FFA4EB1A3882E
:101CC8001D43A58070BD40F221210548FFF725FA84
:101CD800EAE7A38823EA0505A580F3E70030014079
:101CE8001087000838B504460D46124B98420CD0B0
:101CF800A3F57843984208D003F58063984204D04E
:101D080040F2B7110C48FFF708FA012D05D855B174
:101D1800238843F04003238038BD4FF4DC71064824
:101D2800FFF7FBF9F3E723889BB223F040039BB24C
:101D38002380F1E7003001401087000838B50546D8
:101D48000C464A4B98420BD0A3F57843984207D0EB
:101D580003F58063984203D0A3214548FFF7DDF9D6
:101D6800238843B1B3F5806F05D0B3F5004F02D097
:101D7800B3F5404F4CD16388B3F5827F01D0002B77
:101D88004BD1A388B3F5006F01D0002B4AD1E3886B
:101D98000BB1022B4BD12389012B4DD86389B3F5A5
:101DA800007F01D0002B4CD1A3896BB1082B0BD03D
:101DB800102B09D0182B07D0202B05D0282B03D0A7
:101DC800302B01D0382B41D1E3890BB1802B42D184
:101DD800238A002B44D02B8803F44152238861883E
:101DE8000B43A1880B43E1880B4321890B4361898D
:101DF8000B43A1890B43E1890B4313432B80AB8B26
:101E08009BB223F400639BB2AB83238A2B8238BD39
:101E1800A6211748FFF781F9ADE7A7211448FFF776
:101E28007CF9AEE7A8211248FFF777F9AFE7A921B7
:101E38000F48FFF772F9AEE7AA210D48FFF76DF9D1
:101E4800ACE7AB210A48FFF768F9ADE7AC210848D1
:101E5800FFF763F9B8E7AD210548FFF75EF9B7E783
:101E6800AE210348FFF759F9B5E700BF003001403C
:101E78001087000838B504460D460E4B184200D1AD
:101E880020B940F2C3410C48FFF747F9012D05D8A6
:101E980055B10A4A13691C43146138BD40F2C44164
:101EA8000548FFF73AF9F3E7044A136923EA0404FB
:101EB8001461F2E700360181C8860008001002406C
:101EC80038B504460D460E4B184200D120B940F2F1
:101ED80069410C48FFF721F9012D05D855B10A4A87
:101EE800D3691C43D46138BD40F26A410548FFF705
:101EF80014F9F3E7044AD36923EA0404D461F2E746
:101F080000360181C88600080010024038B5044632
:101F18000D460E4B034003B920B940F24A410C4824
:101F2800FFF7FBF8012D05D855B10A4A93691C4300
:101F3800946138BD40F24B410548FFF7EEF8F3E7EE
:101F4800044A936923EA04049461F2E70200C0FF9B
:101F5800C88600080010024038B504460D46484BB4
:101F6800984230D0B4F1804F32D0464B9C4234D0A6
:101F7800454B9C4236D0454B9C4238D0444B9C4202
:101F88003AD0444B9C423CD0434B9C423ED0434BBE
:101F98009C4241D0424B9C4244D0424B9C4247D049
:101FA800414B9C424AD0414B9C424CD0404B9C42B6
:101FB8004ED0404B9C4251D03F4B9C4254D03F4B5B
:101FC8009C4257D038BD4FF40060FFF79FFFC9E728
:101FD80029460120FFF774FFC7E729460220FFF7CB
:101FE8006FFFC5E729460420FFF76AFFC3E72946C4
:101FF8000820FFF765FFC1E729461020FFF760FFBB
:10200800BFE729462020FFF75BFFBDE729464FF4CD
:102018000050FFF77BFFBAE729464FF40020FFF78F
:1020280075FFB7E729464FF48010FFF76FFFB4E755
:1020380029464FF40010FFF769FFB1E72946402011
:10204800FFF73EFFAFE729468020FFF739FFADE7EE
:1020580029464FF48070FFF733FFAAE729464FF46B
:102068008030FFF753FFA7E729464FF40030FFF70A
:102078004DFFA4E729464FF48020FFF747FFA1E76B
:10208800002C01400004004000080040000C004003
:10209800001000400014004000340140004C014092
:1020A800005001400054014000180040001C00404E
:1020B8000020004000400140004401400048014029
:1020C80038B504460D460D4B984206D00C4B9C4241
:1020D80008D00C4B9C420BD038BD4FF40070FFF772
:1020E80015FFF3E729464FF48060FFF70FFFF0E78D
:1020F80029464FF40040FFF709FFEDE700240140AF
:1021080000280140003C014038B504460D460D4BFF
:10211800984206D00C4B9C4208D00C4B9C420BD0EA
:1021280038BD4FF48050FFF7F1FEF3E729464FF42E
:102138008040FFF7C5FEF0E729464FF40040FFF75F
:10214800BFFEEDE70030014000380040003C004091
:1021580038B504460D46184B98420FD0174B9C4291
:1021680010D0174B9C4212D0164B9C4214D0164BE1
:102178009C4216D0154B9C4218D038BD0420FFF75E
:10218800C5FEEBE729460820FFF7C0FEE9E7294628
:102198001020FFF7BBFEE7E729462020FFF7B6FE31
:1021A800E5E729464020FFF7B1FEE3E7294680200E
:1021B800FFF7ACFEE1E700BF00080140000C01405A
:1021C800001001400014014000180140001C0140AB
:1021D80038B504460D4620F4AA6323F0070303B973
:1021E80020B940F22B410B48FEF797FF012D05D887
:1021F80055B1094A53691C43546138BD40F22C411A
:102208000448FEF78AFFF3E7034A536923EA040404
:102218005461F2E7C88600080010024038B5044649
:102228000D46164B984211D0143398420ED01433F1
:1022380098420BD01433984208D01433984205D0F2
:102248001433984202D01433984203D1294601200E
:10225800FFF7BEFF0A4B9C420BD014339C4208D0B8
:1022680014339C4205D014339C4202D014339C4250
:1022780003D129460220FFF7ABFF38BD0800024012
:102288000804024010B4294B5B6803F00C03042BCC
:102298002BD0082B2CD013B1254B036001E0244B25
:1022A800036022494B68C3F30313224CE35CDAB2A0
:1022B8000368D34043604A68C2F30222A25CD2B2E8
:1022C80023FA02F282604A68C2F3C222A25CD2B246
:1022D800D340C3604A68C2F3813217498A5CD2B2DC
:1022E800B3FBF2F3036110BC7047114B0360D8E7EE
:1022F8000E4A53685268C3F38343023312F4803F93
:1023080004D10E4A02FB03F30360CAE7074A526886
:1023180012F4003F04D0094A02FB03F30360C0E74C
:10232800034A02FB03F30360BBE700BF001002404F
:1023380000127A00180000200400002000093D0067
:1023480000B587B0FEF75AFE01A8FFF79BFF019B77
:10235800124AA2FB03239B09013BB3F1807F1BD2E6
:102368000F4A53600F4BF02183F82310002191602E
:102378000720106083F823100B4B1B684FF47A7208
:10238800B3FBF2F209490A60094AB3FBF2F3094ABE
:10239800136007B05DF804FBFEE700BFD34D621081
:1023A80010E000E000ED00E02800002048000020D8
:1023B80040420F004400002030B587B004460D4667
:1023C800664B984213D0A3F5744398420FD003F597
:1023D800806398420BD003F58063984207D003F5D9
:1023E8008063984203D0B8215D48FEF796FE2B68BB
:1023F800013B5C4A934200F28480AB881BB1B3F581
:10240800805F40F08380EB8843B1B3F5805F05D0EF
:10241800B3F5005F02D0B3F5405F7CD12B892BB1B7
:10242800B3F5806F02D0B3F5C06F79D16A8922F015
:102438000C039BB203B91AB9BD214948FEF76DFEDA
:10244800AB8943B1B3F5807F05D0B3F5007F02D0E7
:10245800B3F5407F69D1AB8973B1404B9C420BD037
:10246800A3F574439C4207D003F580639C4203D0D4
:10247800C2213B48FEF751FE238A9BB2EA8823F427
:10248800405313432382A28992B2AB8829890B4314
:1024980069890B4322F4B05222F00C021343A38142
:1024A800A38A9BB2AA8923F440731343A38201A889
:1024B800FFF7E8FE294B9C423CD00398A38913F40C
:1024C800004F39D1192303FB00F328688000B3FBC0
:1024D800F0F0254BA3FB002359090D01642301FBF0
:1024E8001303A28912F4004F2ED11B013233642248
:1024F800B3FBF2F303F00F032B439BB2238107B026
:1025080030BDB9211648FEF708FE76E7BA2114480F
:10251800FEF703FE77E7BB211148FEF7FEFD7DE7D6
:10252800BC210F48FEF7F9FD80E7BE210C48FEF7F5
:10253800F4FD90E70498C1E7192303FB00F328682A
:102548004000B3FBF0F0C4E7DA0032326423B2FB98
:10255800F3F202F0070242EA0503CEE70038014031
:10256800BC8700081FAA44001F85EB5110B504461C
:1025780040B1B0F5804F05D0B0F5004F02D0B0F5AE
:10258800404F06D1064A536823F440431C43546025
:1025980010BD40F202310348FEF7BFFDF2E700BF6D
:1025A80000100240C886000838B505460C460E4B98
:1025B800984208D003F58063984204D040F24A510B
:1025C8000A48FEF7AAFD42F2FF031C4200D124B9D3
:1025D80040F24B510548FEF7A0FD24F07F44E44348
:1025E800A4B2AC8238BD00BF005400404086000849
:1025F80038B505460C462F4B984208D003F5806342
:10260800984204D04FF487612B48FEF786FD2B4B88
:102618009C423BD0B4F1021F38D0294B9C4235D0A4
:10262800B4F5020F32D0B4F5901F2FD0254B9C4241
:102638002CD003F500039C4228D0A3F5E0039C426C
:1026480024D0214B9C4221D003F500039C421DD08D
:10265800A3F5E0039C4219D0102C17D01B4B9C42C9
:1026680014D01B4B9C4211D01A4B9C420ED03E33C7
:102678009C420BD0184B9C4208D0043B9C4205D08E
:10268800164B9C4202D0B4F5806F0AD1AB8A2A8BD4
:1026980043EA024323F07F4334EA030307D00020D0
:1026A80038BD40F239410448FEF737FDEEE7012016
:1026B800F6E700BF0054004040860008820006008C
:1026C800800086004000020084000600010003002C
:1026D80082000700020003008400070008000300CE
:1026E80010B50446074B984208D003F5806398421A
:1026F80004D040F262210448FEF70FFD208AC0B2E0
:1027080010BD00BF005400404086000838B505469B
:102718000C46074B984208D003F58063984204D0D2
:1027280040F255210348FEF7F8FCA4B22C8238BDCC
:10273800005400404086000870B504460D46164611
:10274800134B984208D003F58063984204D04FF4A5
:102758000F711048FEF7E1FC012E0ED825F4E06356
:102768009BB203B925B940F23E210A48FEF7D5FCD1
:102778004EB1A3881D43A58070BD40F23D21054898
:10278800FEF7CBFCEAE7A38823EA0505A580F3E773
:10279800005400404086000838B504460D46104BEA
:1027A800984208D003F58063984204D04FF4E5714D
:1027B8000C48FEF7B2FC012D05D855B1238843F427
:1027C8008063238038BD40F2CB110648FEF7A5FC94
:1027D800F3E723889BB223F480639BB22380F1E75D
:1027E800005400404086000838B504460D46104B9A
:1027F800984208D003F58063984204D04FF4D97109
:102808000C48FEF78AFC012D05D855B1238843F4FE
:102818000073238038BD40F2B3110648FEF77DFCF3
:10282800F3E723889BB223F400739BB22380F1E77C
:10283800005400404086000838B504460D46104B49
:10284800984208D003F58063984204D04FF4CD71C4
:102858000C48FEF762FC012D05D855B1238843F4D6
:102868008073238038BD40F29B110648FEF755FC63
:10287800F3E723889BB223F480739BB22380F1E7AC
:10288800005400404086000838B504460D46104BF9
:10289800984208D003F58063984204D04FF4A97198
:1028A8000C48FEF73AFC012D05D855B1238843F0B2
:1028B8000103238038BD40F253110648FEF72DFC72
:1028C800F3E723889BB223F001039BB22380F1E74F
:1028D800005400404086000841F28833036000231A
:1028E80083804BF6FF72C280038143814FF480439B
:1028F80083817047F0B587B004460D46564B984221
:1029080007D003F58063984203D0C6215348FEF7E9
:1029180004FC2B68013B524A934257D8AB881BB141
:10292800022B01D00A2B56D1EB88B3F5804F03D088
:102938004BF6FF72934253D12B89B3F5806F54D273
:102948006B89B3F5806F01D0002B53D1AB89B3F5F8
:10295800804F02D0B3F5404F51D1A688B6B226F0C9
:102968003F06B6B201A8FFF78DFC03983D4AA2FBCB
:102978000032920C97B23E43A680218889B221F09A
:10298800010189B221802B6837498B423CD85B0012
:10299800B0FBF3F39BB2032B00D804230137278441
:1029A800A383238843F00103238023889BB223F465
:1029B800816323F00203AA8869890A4313432380A9
:1029C800AB892A891343238107B0F0BDC721234867
:1029D800FEF7A3FBA2E7C8212048FEF79EFBA3E76A
:1029E800C9211E48FEF799FBA6E7CA211B48FEF736
:1029F80094FBA5E7CB211948FEF78FFBA6E7CC216E
:102A08001648FEF78AFBA8E7EE884BF6FF718E4260
:102A18001BD003EB830303EB8303B0FBF3F39BB2FD
:102A280043F48043C3F30B0109B943F0010343F4B2
:102A380000434FF4967102FB01F20C4981FB02122C
:102A48009211013292B22284AAE703EB4303B0FB4E
:102A5800F3F39BB2E6E700BF00540040408600084D
:102A68007F1A060083DE1B43A0860100D34D621047
:102A780038B504460D46431E012B40F289800428D0
:102A880000F08680082800F08380644B98427FD04D
:102A9800203398427CD0624B984279D08033984258
:102AA80076D0604B984273D003F5807398426FD00C
:102AB80003F5807398426BD05B4B984268D003F55E
:102AC8008063984264D0B0F5805F61D0B0F5EA1FAA
:102AD8005ED0B0F5EB1F5BD0B0F5004F58D0534B2C
:102AE800984255D00133984252D0023398424FD081
:102AF800043398424CD00833984249D0B0F1201F93
:102B080046D03033984243D0494B984240D003F5E1
:102B1800807398423CD003F50073984238D0454BF7
:102B2800984235D003F57063984231D0B0F5011F53
:102B38002ED0414B98422BD00133984228D00233F3
:102B4800984225D00433984222D0083398421FD0A7
:102B5800103398421CD02033984219D04033984201
:102B680016D08033984213D003F5807398420FD063
:102B780003F5007398420BD003F58063984207D0A1
:102B880003F50063984203D003F58053984218D1A7
:102B9800012D1CD8002C20DB284B5B68C4F30340B4
:102BA800A2B204F44011B1F5401F19D014F4801FEB
:102BB80027D0032101FA00F023EA000343F07063F1
:102BC80015E040F22A211E48FEF7A7FAE0E740F296
:102BD8002B211B48FEF7A1FADCE7184BDB69DDE780
:102BE80023F070631548416821F0706141601DB1A0
:102BF800610D09018A401343002C0BDB0F4A536017
:102C080038BD610D090102FA01F123EA010343F01D
:102C18007063ECE7094AD361F2E700BF10001400C3
:102C2800400016000001180000081A0001002000EA
:102C38000001300000112000010000800000014068
:102C4800F88500084FF6FF7303800223837004237E
:102C5800C3707047F8B505460C46494B98421BD0DF
:102C680003F58063984217D003F58063984213D028
:102C780003F5806398420FD003F5806398420BD028
:102C880003F58063984207D003F58063984203D028
:102C9800B2213C48FEF741FAE3786BB1042B0BD024
:102CA800282B09D0482B07D0142B05D0102B03D084
:102CB8001C2B01D0182B14D12388BBB1E37803F067
:102CC8000F06304613F0100F06D0A378013BDBB295
:102CD800022B10D8A078304323785BB32E680023EA
:102CE80010E0B3212748FEF718FAE5E7B421254894
:102CF800FEF713FAE2E7BB212248FEF70EFAE9E7EE
:102D08006A610133072B14D801229A40218832EADC
:102D18000101F6D199000F278F4026EA070600FA2D
:102D280001F10E43E1782829EAD04829E9D12A613E
:102D3800E7E72E602388FF2B20D96E68002302E086
:102D48006A6115E00133072B17D803F10801012246
:102D58008A40218832EA0101F4D199000F278F4077
:102D680026EA070600FA01F10E43E1782829E7D0A0
:102D7800E1784829E6D12A61E4E76E60F8BD00BF32
:102D880000080140F885000810B5044610F0704F9F
:102D980002D0094B034003B924B940F20E21074879
:102DA800FEF7BBF914F0805F02D0054B5C6010BDE4
:102DB800044B5C60FBE700BF0000F0EFB085000843
:102DC800000402400000024010B50446431E012BD7
:102DD80040F29480042800F09180082800F08E804A
:102DE800102800F08B80202800F08880402800F010
:102DF8008580802800F08280B0F5807F7ED0B0F595
:102E0800007F7BD0B0F5806F78D0B0F5006F75D0BB
:102E1800B0F5805F72D0B0F5005F6FD0B0F5804F2D
:102E28006CD0B0F5004F69D0B0F5803F66D0B0F5F2
:102E3800003F63D0B0F5802F60D0B0F5002F5DD093
:102E4800B0F5801F5AD0B0F5001F57D0B0F5800FED
:102E580054D0B0F5000F51D0B0F1807F4ED0B0F112
:102E6800007F4BD0B0F1806F48D0B0F1006F45D0F3
:102E78002C4B984242D0013398423FD002339842BB
:102E88003CD00433984239D00833984236D01033B6
:102E9800984233D02033984230D0403398422DD0D6
:102EA800803398422AD003F58073984226D003F5E0
:102EB8000073984222D003F5806398421ED0B0F187
:102EC800102F1BD003F5C053984217D003F50053B9
:102ED800984213D003F5804398420FD003F500437E
:102EE80098420BD003F58033984207D003F500339E
:102EF800984203D003F58023984208D114F0805FEC
:102F08000BD0094B1B6823420AD0012010BD40F2A8
:102F1800B7110648FEF701F9F0E7054B1B68F2E721
:102F28000020F3E70100001000040240B08500080B
:102F38000000024038B504460D46164B984226D08C
:102F48001433984223D01433984220D01433984233
:102F58001DD0143398421AD01433984217D0143322
:102F6800984214D003F56273984210D014339842F3
:102F78000DD0143398420AD01433984207D0143332
:102F8800984204D04FF4B2710348FEF7C6F8656062
:102F980038BD00BF08000240B085000870B504467F
:102FA8000D461646224B984226D01433984223D019
:102FB8001433984220D0143398421DD014339842C9
:102FC8001AD01433984217D01433984214D003F50A
:102FD8006273984210D0143398420DD0143398423B
:102FE8000AD01433984207D01433984204D040F2E0
:102FF80049111048FEF791F835F00E0300D125B9B4
:103008004FF4A5710B48FEF788F8012E04D84EB18D
:1030180023681D43256070BD40F24B110548FEF73B
:103028007CF8F4E7236823EA05052560F3E700BF89
:1030380008000240B085000838B504460D461F4B0D
:10304800984226D01433984223D01433984220D083
:10305800143398421DD0143398421AD0143398422E
:1030680017D01433984214D003F56273984210D0E5
:10307800143398420DD0143398420AD0143398422E
:1030880007D01433984204D040F229110C48FEF7B7
:1030980044F8012D05D855B1236843F00103236096
:1030A80038BD4FF495710648FEF737F8F3E7236803
:1030B80023F001031B041B0C2360F1E70800024006
:1030C800B085000808B54FF00060FFF77DFE40B1FD
:1030D8004FF00060FFF758FE00210948FFF7ACFFEA
:1030E80008BD4FF00070FFF76FFE0028F4D04FF0D6
:1030F8000070FFF749FE034B00229A70ECE700BF0F
:1031080080000240BC00002008B54FF40020FFF703
:103118005BFE40B14FF40020FFF736FE002109485E
:10312800FFF78AFF08BD4FF40030FFF74DFE002877
:10313800F4D04FF40030FFF727FE034B00225A70FB
:10314800ECE700BF58000240BC00002008B54FF46F
:103158000060FFF739FE40B14FF40060FFF714FE3E
:1031680000210948FFF768FF08BD4FF40070FFF71A
:103178002BFE0028F4D04FF40070FFF705FE034B38
:1031880000221A70ECE700BF30000240BC000020AB
:1031980070B50446FF280CD02046FDF74FFA0546C7
:1031A80028B1661EF6B21C4B9D5D5DB90025284608
:1031B80070BD0125012DEFD82846FFF7E9FF01353D
:1031C800EDB2F7E72046FDF783FA0028EED12EB1DD
:1031D800012E1CD0022E1CD1104C00E0104C0021F6
:1031E8002046FFF729FF0F4B33F8161002318900EC
:1031F80089B22046FFF79EFE01212046FFF71CFFFB
:10320800094B01229A55044B00229A55CFE7074CE7
:10321800E5E70546CBE700BFA80200208000024092
:103228003000024004020020BC0000205800024088
:1032380038B505460C46574B984225D0143398426A
:1032480022D0143398421FD0143398421CD0143320
:10325800984219D01433984216D01433984213D098
:1032680003F5627398420FD0143398420CD014338C
:10327800984209D01433984206D01433984203D0A8
:10328800CF214548FDF749FFA368102B01D0002B3B
:1032980053D1E368013B4FF6FE72934252D823693B
:1032A800402B01D0002B52D16369802B01D0002B19
:1032B80052D1A3692BB1B3F5807F02D0B3F5007F5B
:1032C8004FD1E3692BB1B3F5806F02D0B3F5006F2E
:1032D8004CD1236A202B01D0002B4CD1636AB3F563
:1032E800405F07D0B3F5005F04D0B3F5805F01D02D
:1032F800002B45D1A36AB3F5804F01D0002B44D1F0
:103308002A6822F4FF4222F07002A368216A0B4364
:1033180021690B4361690B43A1690B43E1690B43C5
:10332800616A0B43A16A0B4313432B60E3686B602C
:103338002368AB606368EB6038BDD0211648FDF7A1
:10334800ECFEA6E7D1211448FDF7E7FEA7E7D22156
:103358001148FDF7E2FEA7E7D3210F48FDF7DDFE90
:10336800A7E7D4210C48FDF7D8FEAAE7D5210A48DB
:10337800FDF7D3FEADE7D6210748FDF7CEFEADE752
:10338800D7210548FDF7C9FEB4E7D8210248FDF763
:10339800C4FEB5E708000240B085000810B5044631
:1033A8004F4B984225D01433984222D01433984278
:1033B8001FD0143398421CD01433984219D01433B8
:1033C800984216D01433984213D003F5627398428A
:1033D8000FD0143398420CD01433984209D01433C8
:1033E800984206D01433984203D06F213D48FDF728
:1033F80094FE236823F001031B041B0C23600023A5
:1034080023606360A360E360354B9C4226D0364B53
:103418009C4229D0354B9C422CD0354B9C422FD016
:10342800344B9C4232D0344B9C4235D0334B9C4277
:1034380038D0334B9C423BD0324B9C423ED0324B2F
:103448009C4241D0314B9C4244D0314B9C420AD1E2
:10345800304A536843F47023536004E02E4A53689B
:1034680043F00F03536010BD2B4A536843F0F00339
:103478005360F8E7284A536843F470635360F2E7EF
:10348800254A536843F470435360ECE7224A536873
:1034980043F470235360E6E71F4A536843F470030C
:1034A8005360E0E71C4A536843F070635360DAE7FF
:1034B800184A536843F00F035360D4E7154A53681A
:1034C80043F0F0035360CEE7124A536843F4706345
:1034D8005360C8E70F4A536843F470435360C2E728
:1034E80008000240B08500081C000240300002407D
:1034F80044000240580002406C0002408000024034
:10350800080402401C040240300402404404024003
:1035180058040240000402400000024038B5054645
:103528000C460F4B98420CD003F58063984208D0A4
:1035380003F5A053984204D040F20D510948FDF715
:10354800ECFD24F4FC639BB203B924B940F20E519C
:103558000448FDF7E2FD6FEA14242C6038BD00BF73
:103568000024014068850008F8B505460E46144653
:103578001F46374B98420CD003F58063984208D019
:1035880003F5A053984204D04FF416713148FDF763
:10359800C4FD112E22D8631EDBB20F2B24D8072FAF
:1035A80028D8092E2CD9EA68A6F10A0303EB4303AD
:1035B8000721994022EA01029F401743EF60062C39
:1035C80029D8696B013C04EB84041F23A34021EA3A
:1035D800030106FA04F40C436C63F8BD40F2592168
:1035E8001C48FDF79AFDD6E740F25A211948FDF725
:1035F80094FDD4E740F25B211648FDF78EFDD0E735
:103608002B6906EB460107228A4023EA02038F4012
:103618001F432F61D3E70C2C0CD8296B073C04EB14
:1036280084041F23A34021EA030106FA04F40C438F
:103638002C63D2E7EB6AA4F10D0101EB81011F2293
:103648008A4023EA020306FA01F11943E962C4E752
:10365800002401406885000838B504460D46114B22
:1036680098420CD003F58063984208D003F5A05324
:10367800984204D04FF4E9710B48FDF74EFD012D37
:1036880005D855B1A36843F4A003A36038BD40F240
:10369800D3110548FDF741FDF3E7A36823F4A00320
:1036A800A360F3E7002401406885000810B50446CC
:1036B8000B4B98420CD003F58063984208D003F571
:1036C800A053984204D04FF4DC710648FDF725FD5D
:1036D800A36813F0040F01D0012010BD0020FCE7FF
:1036E800002401406885000810B504460A4B98423A
:1036F8000CD003F58063984208D003F5A053984294
:1037080004D04FF4D5710548FDF707FDA36843F0D1
:103718000403A36010BD00BF0024014068850008B1
:1037280010B504460B4B98420CD003F580639842C1
:1037380008D003F5A053984204D04FF4C971064845
:10374800FDF7EBFCA36813F0080F01D0012010BDB2
:103758000020FCE7002401406885000810B50446F5
:103768000A4B98420CD003F58063984208D003F5C1
:10377800A053984204D04FF4C2710548FDF7CDFC20
:10378800A36843F00803A36010BD00BF00240140F4
:103798006885000870B505460C461646164B9842D3
:1037A8000CD003F58063984208D003F5A0539842E3
:1037B80004D040F26B111148FDF7AFFC012E0FD871
:1037C80024F4FC639BB203B924B940F26D110B4891
:1037D800FDF7A3FCE4B24EB16B681C436C6070BD8E
:1037E8004FF4B6710548FDF798FCE9E76B6823EAE2
:1037F80004046C60F3E700BF0024014068850008FA
:1038080038B504460D460F4B984208D003F5C0530F
:10381800984204D040F24D110B48FDF77EFC012D73
:1038280005D855B1A36843F48073A36038BD4FF43D
:10383800A7710548FDF771FCF3E7A36823F48073CB
:10384800A360F3E7002401406885000838B5044602
:103858000D46114B98420CD003F58063984208D06E
:1038680003F5A053984204D04FF49A710B48FDF722
:1038780054FC012D05D855B1A36843F00103A3609A
:1038880038BD40F235110548FDF747FCF3E7A3685A
:1038980023F00103A360F3E70024014068850008D2
:1038A80038B505460C46484B98420BD003F5806363
:1038B800984207D003F5A053984203D0E521434826
:1038C800FDF72BFC2368D3B1B3F5803F17D0B3F5D0
:1038D800003F14D0B3F5403F11D0B3F5802F0ED080
:1038E800B3F5A02F0BD0B3F5C02F08D0B3F5E02F58
:1038F80005D0B3F5002F02D0B3F5102F46D12379A8
:10390800012B48D86379012B4AD8A368A3B1B3F532
:10391800003F11D0B3F5802F0ED0B3F5C02F0BD0D8
:10392800B3F5002F08D0B3F5202F05D0B3F5402FFD
:1039380002D0B3F5602F38D1E36813B1B3F5006F47
:1039480038D1237C013BDBB20F2B38D86A6822F4CC
:10395800702222F480722368217943EA01231343F9
:103968006B60AB681A4A1A40E368A1680B43617937
:1039780043EA41031343AB60EB6A23F47003227CF0
:10398800013AD2B243EA0253EB6238BDE6210F484E
:10399800FDF7C3FBB3E7E7210C48FDF7BEFBB1E732
:1039A800E8210A48FDF7B9FBAFE7E9210748FDF729
:1039B800B4FBC1E7EA210548FDF7AFFBC1E7EB21FE
:1039C8000248FDF7AAFBC1E700240140688500080A
:1039D800FDF7F1FF10B50446C378012B26D86378AC
:1039E8000F2B28D8A3780F2B2AD8E3786BB31C4B5E
:1039F800DA68D243C2F30222C2F104000F2323FA89
:103A080002F261788140A37813400B431B012278AE
:103A1800DBB214490A4482F80033237803F01F000C
:103A28005B090122824041F8232010BD75210E4810
:103A3800FDF773FBD3E776210B48FDF76EFBD1E763
:103A480077210948FDF769FBCFE7237803F01F01C9
:103A58005B0901228A402033024941F82320E4E728
:103A680000ED00E000E100E08886000808B5074B9B
:103A78001B780BB1012008BD40210548FDF750FB1C
:103A880008B10020F7E70120F5E700BFCE010020CC
:103A98000038014008B501460448FDF797FB40216E
:103AA8000248FDF73DFB0028F9D008BD0038014069
:103AB80010B5044694F9000020B10134C0B2FFF7F4
:103AC800E9FFF7E710BD000030B58DB001210846C9
:103AD800FEF77EFB174C2046FFF760FC164B019360
:103AE800164B029310230393642304930023059336
:103AF800802206920793089309934FF440520A9242
:103B08000B9301A92046FFF793FB0E238DF8003095
:103B180002238DF8013001258DF802508DF80350ED
:103B28006846FFF757FF2A460A212046FFF736FA6C
:103B38000DB030BD44000240043801404415002057
:103B480070B586B0064608B94FF4E1360121042065
:103B5800FEF7DCF901214FF48040FEF7D7F94FF466
:103B68000073ADF8143018238DF8173001248DF840
:103B78001640254D05A92846FFF76CF84FF48063D9
:103B8800ADF8143048238DF8173005A92846FFF7FB
:103B980061F821460420FEF76BFFFFF795FF252308
:103BA8008DF8003002238DF801308DF802308DF841
:103BB80003406846FFF70EFF05F54055224640F2E0
:103BC80025512846FDF76AFB01960023ADF8083019
:103BD800ADF80A30ADF80C30ADF810300C23ADF864
:103BE8000E3001A92846FEF7E7FB22468021284629
:103BF800FDF718FB21462846FDF7CAFB034B044A8C
:103C08001A6006B070BD00BF00080140AC15002066
:103C18009D3A000810B4441E064A63001819810032
:103C28001144C878234499000A440023D37010BC77
:103C3800704700BF0C15002010B4441E064A6300EC
:103C48001819810011440879234499000A44002373
:103C5800137110BC704700BF0C150020022807D84C
:103C6800013800EB40008200024B134498787047FB
:103C7800002070470C15002038B504460D46FFF7A4
:103C8800EDFF0346B0B10D4A1268AA4211D30B4AA0
:103C98001268551B601E00EB40029100084A0A4456
:103CA8009268954208D9054A1468054A0A449460FE
:103CB80000E00023184638BD0023FBE72415002048
:103CC8000C150020002308E003EB43029100044A8E
:103CD8000A44032151700133DBB2012BF4D9704738
:103CE8000C15002000B583B002AB03E90300BDF852
:103CF800002004214FF08040FCF79EFFBDF8022011
:103D080003214FF08040FCF797FFBDF80420022103
:103D18004FF08040FCF790FF03B05DF804FB000013
:103D280070B58AB0FDF76AF9314B1C68314BA3FBBB
:103D38000434A40C013CA4B22F4D01212846FEF7FF
:103D480007FA18238DF8273003268DF826600E23EE
:103D5800ADF8243009A92846FEF77CFF01214FF071
:103D68008040FEF7F9F801210846FEF7CFF84FF436
:103D78007A73ADF81C30ADF818400024ADF81E4039
:103D8800ADF81A4006A94FF08040FDF79BFE02A847
:103D9800FDF796FB6023ADF808300125ADF80A5011
:103DA800ADF81040ADF80E4002AA04214FF0804053
:103DB800FDF770FE02AA31464FF08040FDF76AFE1B
:103DC80002AA02214FF08040FDF764FEADF80040E2
:103DD800ADF80240ADF804406B4693E80300FFF7E6
:103DE80081FF29464FF08040FDF706FB0AB070BD01
:103DF8002800002083DE1B430008014010B586B070
:103E080000214FF40010FEF75BF801214FF4001079
:103E1800FEF756F801214FF40010FEF72BF80021A9
:103E28004FF40010FEF726F801210820FEF76EF87F
:103E380005A8FEF707FF1C238DF81730C023ADF83F
:103E4800143003238DF8163005A91648FEF702FF33
:103E580001A8FEF741FD4FF48063ADF80E30002352
:103E6800ADF80830104B0193104C01A92046FEF71D
:103E780041FD01224FF4C0612046FEF75DFC01219F
:103E88002046FEF701FD01238DF803301F228DF82F
:103E980000208DF801308DF802306846FFF79AFD52
:103EA80006B010BD000C0140801A06000054004006
:103EB80010B5074C00224FF4C0612046FEF73CFCC9
:103EC80000212046FEF7E0FCFFF798FF10BD00BF79
:103ED8000054004070B506460D4600224FF4C061FC
:103EE8003848FEF729FC032414E001213548FEF781
:103EF8007BFC354B1A68354B1B689A424DD3631EC1
:103F0800DBB2002C4CD0304A1168304A126891421A
:103F180046D21C462D4B1B6864332B4A1360012183
:103F28002848FEF789FC2A492648FEF761FB28B98C
:103F3800254B1A68254B1B689A42F4D8D021214892
:103F4800FEF7E4FB23491F48FEF752FB28B91E4B36
:103F58001A681E4B1B689A42F4D831461948FEF776
:103F6800D5FB1D491748FEF743FB28B9164B1A68BD
:103F7800164B1B689A42F4D829461248FEF7C6FB2E
:103F880015491048FEF734FB0028AED10E4B1A68CD
:103F98000E4B1B689A42F3D8A7E7FFF789FFAEE7F5
:103FA800084C4FF400712046FEF7FEFA4FF480618A
:103FB8002046FEF7F9FA01224FF4C0612046FEF7C9
:103FC800BBFB70BD005400409C020020241500205B
:103FD8000100030082000700840007000338C0B214
:103FE800022801D80120704700207047022801D814
:103FF8000120704700207047052916D8DFE801F036
:104008000306090C0F12B0F900007047B0F902005E
:104018007047B0F904007047B0F906007047B0F96E
:1040280008007047B0F90A0070470020704708B5CB
:104038000368426802FB02F203FB0323806800FB6B
:104048000030FCF70DFE08BD00B585B0036801938C
:10405800436802938368039301A8FFF7E8FF05B05C
:104068005DF804FB072801D90020704708B500EB6C
:1040780040039A0002481044FCF72CFF08BD00BF1B
:1040880038020020C0EBC030034B83FB0023C0176D
:10409800C0EBA31000B27047D34D62104FF47A738F
:1040A80003FB00F0044B83FB00230344C017C0EB61
:1040B800A33000B2704700BF03000180C0EBC030DE
:1040C800034B83FB0023C017C0EB232000B27047CB
:1040D800D34D62104FF47A6303FB00F0044B83FB6B
:1040E80000230344C017C0EBA33000B2704700BFE1
:1040F8000300018010B5831FDBB2F82B17D90D4BD5
:1041080033F810301CB221B10B4931F810401C1B98
:1041180024B26AB1FFF76AFF20B12046FFF7DAFF41
:10412800044605E02046FFF7B9FF044600E00024F6
:10413800204610BDB0010020A401002070B504463F
:104148000D4616460020FFF7D5FF20803246294647
:104158000120FFF7CFFF6080324629460220FFF793
:10416800C9FFA080324629460320FFF7C3FFE0803D
:10417800324629460420FFF7BDFF208132462946F2
:104188000520FFF7B7FF608170BD0000F8B5831FF9
:10419800DBB2F82B10D905460E461746FF280CD07F
:1041A8003FB12846FFF722FF90B13046FFF786FF60
:1041B80006460C4B23F81560F8BD0024052CEFD8F3
:1041C8003A4631462046FFF7E1FF0134E4B2F5E70D
:1041D8002846FFF703FF0028EBD03046FFF752FFD1
:1041E8000646E6E7A401002008B501220021FF20C9
:1041F800FFF7CCFF08BD000070B5204C25782D02D4
:104208002DB263781D436FF00E00FFF757FF80B2A1
:1042180005442BB21A4D2B80A3781B021BB2E278FF
:104228001343184400B268802679360236B26079A2
:1042380006436FF01D00FFF741FF304400B2A8802D
:10424800267A360236B2637A1E430020FFF71AFF39
:1042580082B2164436B22E81A37A1B021BB2E17ACF
:104268000B4303445B421BB2EB80237B1B021BB254
:10427800617B0B4313441BB26B8170BDC0010020EE
:10428800B001002070B55B4B1C78631E132B00F245
:10429800A280DFE803F00A212F3D4B59595959599B
:1042A8005959595959595959597E53495348FEF73B
:1042B8009FF900287FD0514DD0212846FEF726FAD5
:1042C80000212846FEF790FA00212846FEF7B4FAA6
:1042D800484B02221A706EE049494848FEF788F9AF
:1042E800002868D03B214548FEF710FA414B0322CD
:1042F8001A7060E043494148FEF77AF900285AD01D
:1043080001213E48FEF798FA3A4B04221A7052E00F
:1043180039493A48FEF76CF900284CD0D121374882
:10432800FEF7F4F9334B05221A7044E03649334856
:10433800FEF75EF900283ED001213048FEF72CFA3E
:104348002C4B06221A7036E030492C48FEF750F9FB
:10435800002830D0274D2E78063E2848FEF7C0F9B1
:104368002B4B98552B780133DBB22B70132B22D1B2
:10437800224D00212846FEF70FFA01212846FEF7B4
:1043880033FA1C4A13780133137014E01B48FEF704
:10439800A7F91A4B9B8A13F0040FF7D1174B9B8A86
:1043A80013F0400FF2D1FFF727FF124B01221A70CA
:1043B800184B00221A700F4B1B78A3420FD00F4CDA
:1043C8004FF400712046FEF7EFF84FF48061204665
:1043D800FEF7EAF870BD074B01221A70EBE70649B1
:1043E8000648FEF705F90028E9D0024B01221A70A9
:1043F800E5E700BF40000020010003000054004032
:104408008200070084000700020003004000030048
:10441800C0010020BC01002000B583B04FF4FA733E
:10442800ADF800300023ADF80230ADF80430254B6C
:104438001A68254B1B689A4222D9224B1B68FA330B
:10444800214A1360214B1B78032B0AD8DFE803F0BD
:10445800021B252F0023ADF80030ADF80230ADF86F
:10446800043002AB13E90300FFF73CFC174A13784A
:104478000133DBB21370032B02D9134600221A70E2
:1044880003B05DF804FB4FF4FA73ADF80030002375
:10449800ADF80230ADF80430E3E70023ADF80030A2
:1044A8004FF4FA72ADF80220ADF80430D9E70023D2
:1044B800ADF80030ADF802304FF4FA73ADF80430BF
:1044C800CFE700BF24150020BC02002009150020FA
:1044D800044B33F8103040F6E44000FB03F0C0F31F
:1044E8000F307047DC01002008B50130C0B2FFF77B
:1044F800EFFF044B1B889BB2834201D9012008BD02
:104508000020FCE73C0000200F4B1A680F4B1B688B
:104518009A4217D910B50C4B1B6821330B4A13600C
:1045280000240CE02046FFF7DFFF04EB4402930071
:10453800014607481844FCF7CFFC0134E4B2012CCB
:10454800F0D910BD704700BF24150020AC02002030
:104558000C150020084B1B8840F6E44000FB03F0D4
:10456800031344F6206000FB03F0044BA3FB003068
:10457800C0F34F30704700BFDC0100205917B7D196
:1045880070B584B006460D460024ADF80E40FFF71E
:10459800E1FFADF80E0009E0291900230093FA2283
:1045A80089B23046FCF7AAF90134E4B2042C10D8D9
:1045B800094B33F81420BDF80E309BB29A42EBD267
:1045C8002919002200927D2389B23046FCF796F91A
:1045D800EAE704B070BD00BF0488000808B50023EE
:1045E800022B0BD8154A32F81300154951F823202D
:1045F800024441F823200133DBB2F1E7114A137872
:104608000133DBB21370072B11D9002313700CE0B0
:104618000B4951F82320C2F3CF020B4820F813208E
:10462800002241F823200133DBB2022BF0D94FF4EA
:1046380008710648FEF772FF08BD00BFDC010020C4
:10464800E4010020C4070020D40100200024014018
:104658002DE9F04192B04FF48040FDF787FF494DB6
:1046680001212846FDF7DAFDDFF8288101214046BF
:10467800FDF76EFD444C01212046FDF721FD022780
:10468800ADF844708DF8467000268DF8476011A982
:104698004046FEF7DFFA2846FEF780FE3B4B0093C4
:1046A8003B4B019302964FF00308CDF80C8004961B
:1046B800802305934FF4806307934FF48073069328
:1046C800202308934FF4005309930A966946284615
:1046D800FEF7AEFD01212846FEF7AEFC0B9601253C
:1046E8008DF830508DF831504FF460230D930E96AD
:1046F8008DF83C800BA92046FFF7D2F829462046C2
:10470800FFF77EF807232A4609212046FEF72CFFEB
:1047180007233A4606212046FEF726FF072342468E
:1047280008212046FEF720FF12238DF840308DF82F
:1047380041708DF842508DF8435010A8FFF74AF9A0
:104748002A464FF408712046FFF724F829462046E8
:10475800FFF77CF82046FFF701F80B48FEF7E0FF6B
:104768000028FAD10848FEF7BFFF0748FEF79EFF6A
:104778000028FAD101210448FEF76EFF12B0BDE807
:10478800F08100BF08000240002401404C24014091
:10479800DC010020000C0140012840F0C6802DE912
:1047A800F04393B00D460138C4B2B1F5967F01D9F4
:1047B8004FF4967526465D4B23F814504FF00008C9
:1047C8005B4B03F804805B4B03F80480DFF86C91C3
:1047D8004FF4976707FB04974FF4966241463846B3
:1047E80003F0B0FD04224146384603F0ABFDA8466D
:1047F800681C4FF4977303FB04000422FF2109EBA4
:10480800800003F09FFD01239D420BD34FF4977264
:1048180002FB063248490878484901F8220001336A
:104828009BB2F1E714B113B0BDE8F083012108464B
:10483800FDF76CFB424E01213046FDF789FC414DE6
:1048480001212846FDF7EAFC01213F48FDF75CFC01
:1048580018238DF8473003238DF84630A023ADF890
:10486800443011A93046FEF7F5F92846FEF796FDC3
:10487800364B069307971023089308F102084FEA6E
:104888008803099300230A9380220B920C930D93BB
:104898000E934FF440520F92109306A92846FEF744
:1048A800C7FC0D238DF8143002238DF8153001262E
:1048B8008DF816608DF8176005A8FFF78BF832465B
:1048C8000A212846FEF76AFBB442ACD80023ADF8AB
:1048D80000304FF48272ADF80220ADF804300226A1
:1048E800ADF806600125ADF808504FF40072ADF838
:1048F8000A201822ADF80C20ADF80E304FF6FF73E1
:10490800ADF81030104C69462046FDF717FA2946D5
:104918002046FDF787F92A4631462046FDF7AEF9CD
:1049280029462046FDF7DEF97DE77047040200209E
:10493800A8020020BC0000203A000020CC02002081
:104948000008014030000240003001400C300140B6
:1049580008B50C22002103F0F5FC08BD10B5FFF7DF
:104968004DFA0023052B09D80022344921F81320D9
:10497800334921F813200133DBB2F3E76420FCF755
:104988007BFA00216B20FFF7A5FA4FF4FA70FCF7C9
:104998002FFA04211920FFF79DFA4FF4FA70FCF75B
:1049A80027FA03211A20FFF795FA4FF4FA70FCF75B
:1049B8001FFA10211B20FFF78DFA4FF4FA70FCF74D
:1049C80017FA08211C20FFF785FA4FF4FA70FCF754
:1049D8000FFA00212320FFF77DFA4FF4FA70FCF755
:1049E80007FA184B01221A70FFF7FEFBC0220021BC
:1049F800154803F0A7FC0C220021144803F0A2FC80
:104A0800002408E004EB4402930011481844FFF71F
:104A18009FFF0134E4B2072CF4D90D4B05225A70DC
:104A28000223072B09D803EB43029100084A0A44E2
:104A3800022151700133DBB2F3E710BDA40100205D
:104A4800B001002098020020C00000208C01002046
:104A58003802002030B583B005460C46AAB94FF09D
:104A6800FF310D4B18780F23009300232246FCF7E3
:104A780092F9C0B200EB400083000C2207491944A8
:104A8800284603F051FC03B030BD0F212046FCF747
:104A98004EF9C4B20121E4E7BD000020C0000020A7
:104AA80008B500221146FFF7D5FF08BD70B50546C9
:104AB800194B187868BB0C4616469DB1002117485B
:104AC800FEF7BAFA7CB121461448FEF733FA96B9D4
:104AD800124BDD600124104B1C7021460F48FEF775
:104AE800ABFA204670BD2B4613F9012B002AEAD0F9
:104AF8000134A4B2F8E70121204603F0F7FB084E81
:104B080030602246294603F00FFC3268034BDA6016
:104B1800E0E70020E6E700BFCE01002044000240A5
:104B2800B800002008B56E4B1B8813F0200F66D024
:104B38006B4B9B88DBB26B4A13706B4B1B78002B5B
:104B480058D11378443B202B59D8DFE803F0335869
:104B5800583D582A585849585858215858581B5899
:104B6800585858585858585858585811585815009F
:104B78005E48FEF79DFF42E0002211465C48FFF7C1
:104B880095FF3CE00323584A13705A4A137036E0E5
:104B98000023584A1370544A01211170564A137061
:104BA8002DE00123534A13704F4A1370524B0022D1
:104BB8001A7024E04F4B02221A704B4B01221A70D4
:104BC8004D4B00221A701AE04A4B04221A70464BC9
:104BD80003221A70002211464848FFF767FF0EE0CB
:104BE800444B05221A70404B01221A70424B002296
:104BF8001A7004E03C4B1B78DBB2012B00D008BDD7
:104C08003C4B1B78DBB2052BF9D801A252F823F0F4
:104C1800314C00085F4C00088D4C0008074C000818
:104C2800074C0008BB4C0008334B1B782D490A7809
:104C3800D2B23348C2540A78D2B20A2A01D00A78CA
:104C48002AB92F4A0021D154274A03211170013370
:104C5800294A1370D3E7284B1B7822490A78D2B225
:104C68002748C2540A78D2B20A2A01D00A782AB947
:104C7800234A0021D1541C4A0321117001331E4AD2
:104C88001370BCE71C4B1B7816490A78D2B21C4833
:104C9800C2540A78D2B20A2A01D00A782AB9184A24
:104CA8000021D154104A032111700133124A1370A4
:104CB800A5E7114B1B780B490A78D2B21048C254A9
:104CC8000A78D2B20A2A01D00A7822B900220C49FD
:104CD800CA5405490A700133074A13708FE700BFA9
:104CE800003801402B15002040150020A08700083F
:104CF800A8870008291500200C0200204415002070
:104D08002C1500202DE9F04104460D46FBF78AFBDF
:104D1800064600285FD0002D00F0B180FF2C5DD042
:104D2800584F4FEAC408A8EB040318014830384428
:104D38001C222946043003F0F7FAA8EB04084FEACE
:104D480008131F44012387F8483097F84C00FBF7F5
:104D58009FFA00284ED1C4EBC4031A01494B1344EF
:104D68009B79002B70D0E200121B1101454B0B44BC
:104D78009A88B3F85610521A92B20132A3F8562004
:104D880093F85820524283F85820E200121B110170
:104D98003C4B0B44B3F856209B889A4262D9394A57
:104DA8000A44A2F85630E200121B1101354B0B449D
:104DB800B3F85620DA87B3F85C20A3F840203149CD
:104DC800E300181B02010A4492F9580082F83C00DB
:104DD800002382F849303046BDE8F08100242A4B90
:104DE8001B78A342F7D929462046FFF78BFF0134E9
:104DF800E4B2F4E7F86E03F08FFAB7F85000B7F8AA
:104E08005A300221184403F071FAF8660023FB8730
:104E1800B7F85C301D4AA2FB03231B09B7F85A20D8
:104E280003FB02F3B7F85020B3FBF2F0934200D231
:104E38000120E200121B1101124B0B44A3F85C0085
:104E48000122A3F84020BAE7E3001B1B19010D4A11
:104E58000A445388B2F856100B449BB2013BA2F89F
:104E6800563092E7C4EBC4031901064B0B445B8828
:104E78009A4298D2034A0A44A2F8563093E7002689
:104E8800A9E700BFE807002006020020CDCCCCCC63
:104E980010B5114B1B6813F4004F0BD00E4B4FF499
:104EA80000425A600D4B01221A7000210C48FEF78F
:104EB800C3F810BD084B1B6813F4005FF5D0064B10
:104EC8004FF400525A60074C206803F025FA00237B
:104ED8002360054A1370E8E7000002402A15002005
:104EE80044000240B8000020CE0100202DE9F04F18
:104EF80083B082460C46FBF795FA0190002800F033
:104F0800D280002C00F0E580BAF1FF0F19D0564688
:104F1800CAEBCA03180110306F4B184418222146F7
:104F2800043003F001FA4FF0010842E02146284618
:104F3800FFF7DCFF0135EDB2684B1B78AB42F5D8C3
:104F4800B1E00025F8E70022FFB2B7FBF5FCC6EB9D
:104F5800C6034FEA031E604B734483F80CC0BBF1D1
:104F6800000F0DD0BCF1000F09D005FB1C77322FC4
:104F780006D9019A04E0019AE6E7019AE4E7019A62
:104F8800C0B2B0FBF5FCC6EBC6031F01524B3B4455
:104F980083F80DC031B1BCF1000F3BD005FB1C00FC
:104FA800322839D81AB108F101081FFA88F8002AFE
:104FB80034D0A56808EB88029300B5FBF3F5207997
:104FC8006378C01A03F08EF95FFA80F96079A378E4
:104FD800C01A03F087F907465FFA80FBA079E378E7
:104FE800C01A03F07FF9C1B2B9FBF5FCC6EBC603E2
:104FF8001A01394B134483F80BC0B9F1000FA2D042
:10500800BCF1000FB7D005FB1C99B9F1320FB4D829
:10501800002299E7019AC6E7019AC4E74FEACA0253
:10502800A2EB0A0211012C4B0B44A3F82080A3F831
:10503800108094F90E30B3F1FF3F38D060784FEA12
:10504800CA02A2EB0A021101234B0B441872A27880
:105058005A72E2789A7294F90E10CAEBCA031A01CE
:105068001D4B13449973236923B10022A3FB051533
:1050780035BB3AB3CAEBCA031A01174B13440022D3
:105088005A6215494FEACA02A2EB0A0003010B440F
:10509800586AD86201209874A2EB0A0A4FEA0A13E8
:1050A80019440023CB74019803B0BDE8F08F207930
:1050B800094B0B44187262795A72A2799A72CAE73C
:1050C8000122D6E7CAEBCA021101034A0A44536215
:1050D800D7E700230193E6E7E8070020060200204F
:1050E8002DE9F04784B004468DF80F00FBF79AF9D4
:1050F800002800F0C681B54BE100081B02011046EC
:1051080010321A44151D034493F81AC0DF7D9E7CA3
:10511800002E00F0B681AD4A0244537D107E8342D2
:1051280000F28A804FF00009E100091B4FEA011ED6
:10513800A64A7244917D527E91427FD84FF0000872
:10514800BC457DD30027B9F1000F7BD0E200121BCC
:1051580011019E4A02EB010A9AF80E104942009387
:1051680003469AF80B2049B29AF80800FBF713FE99
:105178008AF80800B8F1000F76D0E3001B1B1A016B
:10518800924B03EB020A9AF80E1049429AF816302D
:1051980000939AF819309AF80C2049B29AF8090045
:1051A800FBF7F9FD8AF80900002F73D0E3001B1BF9
:1051B8001A01864B03EB020A9AF80E1049429AF834
:1051C800173000939AF81A309AF80D2049B29AF8D5
:1051D8000A00FBF7E0FD8AF80A0047B1E200121B5B
:1051E80011017A4B0B449A7A9B7E9A4268D94FB93F
:1051F800E200121B1101754B0B449A7A9B7E9A426E
:1052080080F091804FB1E200121B11016F4B0B44EB
:105218009A7ADB7D9A4280F08980002F40F089805D
:10522800E200121B1101694B0B449A7ADB7D9A420A
:1052380040F28280394644E0B14675E7B0467FE7E0
:10524800374680E7E200121B1101604A02EB010AAF
:1052580000909AF80B209AF90E109AF80800FBF7BC
:105268009AFD8AF8080085E7E3001B1B4FEA031A3A
:10527800564B9A449AF8193000939AF816309AF8CF
:105288000C209AF90E109AF80900FBF784FD8AF8A9
:10529800090089E7E3001B1B4FEA031A4B4B9A44AA
:1052A8009AF81A3000939AF817309AF80D209AF95C
:1052B8000E109AF80A00FBF76EFD8AF80A008CE7D0
:1052C8000021B8F1000F08D0E200121B10013F4B7B
:1052D80003445A7A5B7E9A4231D9B8F1000F08D15B
:1052E800E200121B1001394B03445A7A5B7E9A4242
:1052F8005DD2B8F1000F08D0E200121B1001334B49
:1053080003445A7A9B7D9A4254D2B8F1000F55D182
:10531800E200121B10012D4B03445A7A9B7D9A42DE
:1053280050D940460CE039463746CAE7314600278F
:10533800C7E700273946C4E731460027C1E7002000
:10534800B9F1000F09D0E200121B4FEA021C1F4BF3
:1053580063441A7A1B7E9A423AD9B9F1000F0AD1EE
:10536800E200121B4FEA021C184B63441A7A1B7E98
:105378009A4280F08980B9F1000F09D0E200121B2F
:105388004FEA021C114B63441A7A5B7D9A427FD222
:10539800B9F1000F7FD1E200121B4FEA021C0B4B40
:1053A80063441A7A5B7D9A4279D94E4611E04046A9
:1053B800B046C5E730464FF00008C1E74FF0000897
:1053C8004046BDE730464FF00008B9E7E80700203F
:1053D800002609B9002F54D010B9B8F1000F50D0E9
:1053E80016B9B9F1000F4CD000238DF80E30C4EB7C
:1053F800C4031A01754B134493F829607EB1734BAB
:105408001344DB7C1BB9714B13440222DA74214626
:105418003046FAF769FF10B16D4B01229A5516B163
:105428006B4B9B5D6BB3C4EBC4031A01674B13440E
:10543800DB6A002B36D1C4EBC4031A01634B134457
:105448001B7D012B40F29680022B07D1E200121B34
:1054580011015E4B0B449A7B52429A73C4EBC4030E
:105468001A015A4B13440022DA74C4EBC404220113
:10547800564B134493F82940554B1B5D002B40F0C5
:105488009B8004B0BDE8F08733464E469946A0E7B6
:105498004FF000099DE74FF000094E4699E74FF09D
:1054A800000996E7C4EBC40213012833474818449F
:1054B8000430FAF75BFF0028BDD0C4EBC4031A011F
:1054C800424B134493F83030002B4BD03F4B1344DE
:1054D800002283F8302093F92230012B21D0E300F9
:1054E8001B1B1A01394B134493F831201A7693F891
:1054F80032205A7693F833209A76C4EBC4031A0103
:10550800324B13441B7D012B1AD9022B1ED1E30009
:105518001B1B1A012D4B13449A7B524283F82220FD
:1055280014E0E3001B1B1A01284B134493F83120A5
:105538005A7593F832209A7593F83320DA75DCE7B8
:10554800224B134493F9342083F82220E3001B1BD9
:105558001A011E4B13449A6B5A6229462046FFF7DC
:10556800C5FC82E7C4EBC4031A01184B134401229B
:10557800DA747AE7C4EBC4031A01144B134493F9A1
:105588000E30B3F1FF3F0ED0012B7FF467AFE3007D
:105598001B1B1A010D4B13445A7D1A729A7D5A72BD
:1055A800DA7D9A725AE7094B13441A7E1A725A7EA8
:1055B8005A729A7E9A7251E72046FAF771FE0028CD
:1055C8003FF45FAF024B00221A555AE7E807002064
:1055D800C807002070B586B005460C461646084632
:1055E800FAF720FF002838D0FF2C38D01822294697
:1055F800684602F099FE2969E200121B10012D4B42
:1056080003449963012283F8302095F90E2083F82A
:1056180034208EB36E782749E200101B03010B4437
:1056280083F83160A87883F83200E87883F833008B
:10563800187A8DF801005B7A8DF80230131B1A0175
:1056480011448B7A8DF8033001238DF80E30012335
:10565800049369462046FFF749FC06B070BD002454
:10566800154B1B78A342F8D9324621462846FFF746
:10567800B1FF0134E4B2F3E72E790E49E200101BC2
:1056880003010B4483F83160687983F83200A87904
:1056980083F83300187A8DF804005B7A8DF80530AA
:1056A800131B1A0111448B7A8DF80630FF238DF8ED
:1056B8000E30CCE7E8070020060200202DE9F04173
:1056C800254D2D781D2D3ED891423ED89846164638
:1056D8000D460446FAF7BCFF002839D0314620466B
:1056E800FAF7B6FF002835D01B490F781B48FB0096
:1056F800DB1B1A01831884545D809E8083F8068022
:105708007B1C0B7007993846FFF7F0FB30B9C7EBE5
:10571800C7031A01114B134400229A740E4B1878D0
:1057280001380699C0B2FFF7EDFA38B9C7EBC700E0
:1057380002010A4B1344002283F84820064B1878CC
:105748000138C0B202E01F2000E01F20BDE8F08150
:105758001F20FBE71F20F9E706020020E8070020CA
:10576800F0B587B006460D469B4C20780F21FBF715
:10577800DEFAC0B22070237803EB430398000C22B2
:105788003146964B184402F0CFFD0DB907B0F0BD75
:105798000C220021924802F0D5FD002503950495BE
:1057A80005950095019502952678F6B21AE00B2D1D
:1057B80013D88A48730033449A008118835A1AB25E
:1057C800039B134403934B881AB2049B134404931A
:1057D8008B881AB2059B13440593032D40F2AE80C3
:1057E8000135EDB20F2D00F2C1802C4605EB4502C4
:1057F80093007A4AD05A00B202F074FD0746784BFB
:10580800188800B202F06EFD874209DD05EB4502FB
:105818009300724AD25A724B1A802BB2714A138083
:1058280004EB44039A006D4B1344588800B202F00D
:1058380059FD07466A4B588800B202F053FD87426B
:105848000ADD04EB44039A00644B13445A88644B02
:105858005A802BB2634A538004EB44039A005F4B8F
:105868001344988800B202F03DFD07465C4B9888C7
:1058780000B202F037FD87420ADD04EB44039A00C8
:10588800564B13449A88564B9A802BB2554A9380AC
:1058980004EB44039A00514B1344D88800B202F039
:1058A80021FD07464E4BD88800B202F01BFD874207
:1058B8000ADD04EB44039A00484B1344DA88484B4A
:1058C800DA802BB2474AD38004EB44039A00434B57
:1058D8001344188900B202F005FD0746404B1889A9
:1058E80000B202F0FFFC87420ADD04EB44039A0091
:1058F8003A4B13441A893A4B1A812BB2394A13810D
:1059080004EB44039A00354B1344588900B202F063
:10591800E9FC0746324B588900B202F0E3FC8742A3
:105928007FF745AF04EB4404A2002C4B13445A897B
:105938002B4B5A812BB22B4A538138E727497300E6
:10594800981982000A44D08804B200982044009034
:10595800128910B2019A0244019233449A00114408
:105968004B891AB2029B1344029339E7039A1E49E2
:1059780081FB0203D217C2EB630212B21B480280FA
:10598800049A81FB0243D217C2EB630212B242802F
:10599800059B81FB0321DB17C3EB61031BB28380EB
:1059A800009B002B12DB43F38F03104AD380019B2B
:1059B800002B0DDB43F38F030C4A1381029B002B52
:1059C80008DB43F38F03094A5381DFE60333EAE731
:1059D8000333EFE70333F4E7BD000020C0000020E5
:1059E8008C01002098010020ABAAAA2A800100207F
:1059F8000EB410B583B005A951F8043B074C2060DC
:105A080001911846FBF714F82268002313702360ED
:105A180003B0BDE8104003B0704700BFC8020020C3
:105A28002DE9F84307460E469046FEF71FF8002872
:105A3800FBD1002513482C460BE057F825201249C6
:105A4800FFF7D6FF0444E4B20E4820440135EDB216
:105A58004E46731E5FFA83F90EB1632CEDD9B8F187
:105A6800000F07D0631CDBB2064A0A21115500213A
:105A7800D1541C46002221460248FFF717F8BDE81A
:105A8800F88300BF441500207088000870B50546EB
:105A98000E461446FDF7EAFF0028FBD133462A4696
:105AA80009490A48FFF7A4FFC1B23CB10131C9B2A4
:105AB800C0B2064B0A221A5400225A540022034844
:105AC800FEF7F4FF70BD00BF74880008441500207D
