:020000040800F2
:1000000000500020590200085D0100084901000865
:1000100045010008310100081D0100080000000032
:1000200000000000000000000000000019010008AE
:10003000150100080000000011010008410C000833
:100040000D0100080D0100080D0100080D01000858
:100050000D0100080D0100080D0100080D01000848
:100060000D0100080D0100080D0100080D01000838
:100070000D010008092A0008713D0008C529000883
:100080000D01000881290008393900080D01000818
:100090000D0100080D0100080D0100080D01000808
:1000A0000D0100080D0100080D0100080D010008F8
:1000B0000D0100080D0100080D0100083937000886
:1000C0000D0100080D0100080D0100080D010008D8
:1000D0000D010008453F00080D0100080D01000852
:1000E0000D0100080D0100080D01000800000000CE
:1000F0000000000000000000000000000000000000
:1001000000000000000000005FF808F100BEFEE7FC
:1001100000BEFEE700BEFEE700BEFEE71EF0040FD5
:100120000CBFEFF30880EFF3098071464C4A10478B
:100130001EF0040F0CBFEFF30880EFF30980714647
:10014000484A104700BEFEE71EF0040F0CBFEFF355
:100150000880EFF309807146434A104700BEFEE76E
:1001600000BEFEE700BEFEE700BEFEE700B583B0BE
:1001700000F04AFE284B294A1360294A1360294B94
:10018000294A03E052F8041B43F8041B27498B4219
:10019000F8D3224B1A68264B9A4200D0FEE7204B38
:1001A0001A68244B9A42F9D11B4B234A1360234A05
:1001B0001360234B02E0002243F8042B214A9342B0
:1001C000F9D31D4B1B6813B91C4B1B6803B1FEE729
:1001D00000F016FE694601A800F022FE1A4C1B4BE7
:1001E000E41AA410002504E0184B53F82530984772
:1001F0000135AC42F8DC164C164BE41AA41000256D
:1002000004E0144B53F8253098470135AC42F8DC34
:100210000099019804F094FCBABADECA00000020EC
:10022000A000002000000020AC550008A400002021
:100230007856341232547698A400002044250020C9
:10024000A400002048250020940200089402000821
:10025000940200089402000808B5FFF787FF000029
:0C02600061010008650100086901000848
:10026C00AC55000800000020A4000020AC5500088C
:10027C000000000000000000A40000204825002021
:08028C0000000000000000006A
:100294000438C0B2032801D80120704700207047F9
:1002A40003882BB1013B9BB223B10380002070472C
:1002B4000020704701207047036823B1013B04D03C
:1002C400036000207047002070470120704770B41D
:1002D400B0F842508D4206D2B0F840302B449942D7
:1002E40014DC012400E00024022A15D0032A17D0CC
:1002F400012A0DD000221346012C04D066B29EB10F
:10030400022C1AD00023184670BC70470224EBE775
:1003140090F83D300278EFE790F83E304278EBE712
:1003240090F83F308278E7E79B1A03FB01F393FBD5
:10033400F5F3DBB21344DBB2E5E7491BB0F8404008
:10034400091B01399A1A02FB01F2B0F8441092FB1E
:10035400F1F2D2B29B1ADBB2D5E70000034B1B7853
:10036400834201D80020704701207047F20000202A
:1003740070B504460E461546FFF7F0FF0346002805
:1003840041D0DEB12D49682202FB041292F92220E9
:10039400012A3AD02949682202FB0412917D117284
:1003A400117E5172917E9172FF21917323496822CB
:1003B40002FB04120021D174916A11631DB31F4A18
:1003C400682303FB0423002283F8412093F950306F
:1003D400012B26D0194A682303FB04239A88DA8662
:1003E400FF2283F83420154A682303FB042393F87F
:1003F4004400FFF74DFF0346E8B1104A682101FBB2
:1004040004240022E286184670BD682202FB04120E
:10041400517D1172D17D5172517E9172012191737E
:10042400C4E7064A682303FB04235A88DA860122B8
:1004340083F83420D7E72B46E5E700BF981800205F
:1004440038B504460D46FFF789FF034620B1034A39
:10045400682101FB0424A574184638BD98180020AF
:1004640038B504460D46FFF779FF034628B1044A20
:10047400682101FB042484F84050184638BD00BFAD
:1004840098180020FF2805D00138C0B2022803D8EC
:1004940001207047012070470020704738B504469A
:1004A4000D46FFF7EFFF034630B1013C054A32F831
:1004B4001420AA4202D31DB1184638BD0023FBE71D
:1004C4000023F9E7EC000020F8B504460D46164673
:1004D4001F46FFF7E3FFE0B10146013CE4B24FF4ED
:1004E400FB7303FB04520C4B03EB8203DB78B34234
:1004F40010D1094B03EB82039B78BB420AD1064D12
:1005040005EB820462789DF818309A4202D10021EA
:1005140000E001210846F8BD0C010020FF280BD0A3
:1005240010B50446FFF7AEFF024618B1601E094B32
:100534001A5CD2B2104610BD0023022B07D8054A1C
:10054400D15C01F0FF0219B90133DBB2F5E70022F7
:1005540010467047B00000202DE9F04383B0814677
:100564000D4690461F469DF828609DF82C409DF846
:10057400303023B900963B46FFF7A6FFF8B909F1DE
:10058400FF30C0B24FF4FB7303FB00520D4B03EB7F
:10059400820383F803809F705E70631EDBB21E2BA0
:1005A40001D9094B1C784FF4FB7303FB005564F02D
:1005B4001F04044B03F82540044B01221A5403B0D2
:1005C400BDE8F0830C01002036000020000100206B
:1005D4002DE9F04184B006460D4617469846FFF7CC
:1005E400BDFE044618B30DB3134B682202FB06325A
:1005F400938852889B1A01339D4201DD002416E042
:10060400511989B20139682303FB06F601230293C9
:100614009DF82C3001939DF82830009343463A46C8
:1006240089B20548805DFFF797FF00E0002420466B
:1006340004B0BDE8F08100BF981800201F2800D93D
:100644001F2060F01F00014B187070473600002017
:100654002DE9F04182B00446884617461E469DF8AF
:1006640020509DF8243023B900953346FFF72CFF22
:1006740090B9601EC0B20A4A4FF4FB7101FB0081BD
:1006840002EB8103DF709E705D70064B1B7802F8ED
:100694002130054B01221A5402B0BDE8F08100BF9D
:1006A4000C01002036000020000100202DE9F0415B
:1006B40082B006460D4617469846FFF74FFE04469D
:1006C40000B3F5B1114B682202FB063293885288BD
:1006D4009B1A01339D4201DD002413E0511989B2B4
:1006E4000139682303FB06F6012301939DF82030AA
:1006F400009343463A4689B20448805DFFF7A8FF59
:1007040000E00024204602B0BDE8F08198180020E3
:100714002DE9F04784B082460C46174698469DF86A
:1007240030909DF834609DF83850FFF7B7FE20B143
:1007340039465046FFF7B2FE80B904B0BDE8F087F1
:1007440001230293019500964B46424621465046AA
:10075400FFF702FF0134A4B2A742EED36B1EDBB253
:100764001E2BEDD90123019300964B4642462146A8
:100774005046FFF76DFFEDE7013903290FD8DFE895
:1007840001F00205080B92B28286704792B202878A
:10079400704792B28287704792B2A0F840207047A7
:1007A400002801DB012070474FF0FF3070472DE92E
:1007B400F04180460C4616461D46069F0846FFF744
:1007C400EFFF444407E0AC4203DDC4EB45044FF0C3
:1007D400FF30B44208DBAC42F5DCB442F3DB07B1D2
:1007E40038702046BDE8F081C4EB46040120F2E7EE
:1007F40010B49C1A0844904203DA20440130FAE70A
:10080400001B5A1C8242FBDB10BC7047904202D290
:10081400B1F1FF3F07D002FB0100009A904204D8D7
:10082400984204D3704700207047009870471846D8
:10083400704700002DE9F04782B00446FFF78EFDB3
:10084400002800F0B881BE4A682303FB0423997E84
:100854005A7E914200F0A8800326B948682303FB1E
:1008640004039D7C002D00F0A6810346682000FB54
:100874000430437D90F816C0634500F2A180002740
:10088400DFF8BCE2682000FB04E090F817E0007E8B
:10089400864500F297804FF000099142C0F09480A1
:1008A4004FF0000A002F00F09180A54A4FF068082D
:1008B40008FB042898F80E1049420093634698F800
:1008C4000B2049B298F80800FFF7A0FF88F8080049
:1008D400B9F1000F00F08C80994B4FF0680808FBC9
:1008E400043898F80E10494298F81730009398F895
:1008F400183098F80C2049B298F80900FFF786FFE1
:1009040088F80900BAF1000F00F087808C4B4FF093
:10091400680808FB043898F80E10494298F8193012
:10092400009398F81A3098F80D2049B298F80A0004
:10093400FFF76CFF88F80A00032E00F08380022E74
:1009440000F0AE807E4A682303FB04239A7D5B7D1E
:100954009A4200F0F7803FB17948682101FB040115
:10096400097A8A4280F007813FB97548682101FB02
:100974000401097A8A4240F201813FB17049682238
:1009840002FB0412127A934240F2FB80002F40F0E3
:10099400FB806B49682202FB0412127A934280F0B6
:1009A400F780BA463D46D0E06548682303FB04035C
:1009B400187EDB7D984201D002264EE701264CE7E3
:1009C4002F465DE7A94668E7AA466BE75C4A4FF005
:1009D400680808FB0428CDF800C098F80B2098F9A3
:1009E4000E1098F80800FFF711FF88F808006FE769
:1009F400534B4FF0680808FB043898F818300093FC
:100A040098F8173098F80C2098F90E1098F8090007
:100A1400FFF7FCFE88F8090074E7494B4FF06808BB
:100A240008FB043898F81A30009398F8193098F8AD
:100A34000D2098F90E1098F80A00FFF7E7FE88F8E1
:100A44000A0079E7BAF1000F07D03D4A682303FB97
:100A540004239A7A9B7E9A4251D9BAF1000F07D1A6
:100A6400374A682303FB04239A7A9B7E9A4248D22E
:100A7400BAF1000F07D0324A682303FB04239A7AA1
:100A84005B7E9A4241D2BAF1000F41D12C4A6823CD
:100A940003FB04239A7A5B7E9A423DD9554654E07F
:100AA400B9F1000F07D0264A682303FB04235A7ABE
:100AB4001B7E9A4233D9B9F1000F07D1204A68232B
:100AC40003FB04235A7A1B7E9A422BD2B9F1000FFE
:100AD40007D01B4A682303FB04235A7ADB7D9A421E
:100AE40023D2B9F1000F23D1154A682303FB042351
:100AF4005A7ADB7D9A421FD9CA464D4625E0002525
:100B040023E02B4655469A461FE04FF0000A1CE0AE
:100B14004FF0000A554618E04FF0000A15E0CA46A7
:100B2400002512E0AA464D460FE04FF0000A0CE003
:100B34004FF0000A554608E04FF0000A05E000BFF8
:100B4400981800204FF0000A55462E4A682303FBEC
:100B540004231B6BFBB92B4A682303FB04231B7D73
:100B6400012B35D9022B26D145B3682303FB04247A
:100B74000123A3731FE0BA460025E6E7AA463D46D3
:100B8400E3E74FF0000AE0E74FF0000A5546DCE7E0
:100B94004FF0000AD9E7682303FB04F3303310460F
:100BA4001844FFF789FB0028D5D0164A682303FBB5
:100BB40004240123E37402B0BDE8F087BAF1000F06
:100BC400F9D0104A682303FB0424FF23A373F2E73C
:100BD40055B10C4A682303FB0424A37D2372237EAE
:100BE4006372A37EA372E6E7BAF1000FE3D0054B6C
:100BF400682202FB0434637D2372E37D6372637EA7
:100C0400A372D8E79818002010B472B6084B9C68F9
:100C1400084B186862B64FF47A72074B196802FBE6
:100C240001F31B1BB3FBF1F302FB003010BC704754
:100C340010E000E0D824002038000020024A1368A5
:100C440001331360704700BFD824002082B0002312
:100C5400019300932C4A136843F4803313602A4BA6
:100C64001B6803F400330093019B01330193009B41
:100C74001BB9019BB3F5A06FF1D1234B1B6813F48F
:100C8400003F06D001230093009B012B04D002B047
:100C9400704700230093F7E71C4B1A6842F01002D8
:100CA4001A601A6822F003021A601A6842F00202FB
:100CB4001A60A3F580535A685A605A685A605A6891
:100CC40042F480625A605A6822F47C125A605A686C
:100CD40042F4E8125A601A6842F080721A600A4BB1
:100CE4001B6813F0007FFAD0074B5A6822F0030206
:100CF4005A605A6842F002025A60034B5B6803F080
:100D04000C03082BF9D1C2E7001002400020024076
:100D140008B5FFF79BFF08BD1F4B5B6803F00C038E
:100D2400042B15D0082B17D01BB11C4B1C4A1A607E
:100D340002E01A4B1A4A1A60174B5B68C3F3031399
:100D4400184AD35CDAB215490B68D3400B6070477C
:100D5400124B134A1A60EFE70F4A53685268C3F301
:100D64008343023312F4803F05D10F4A02FB03F39D
:100D74000A4A1360E0E7084A526812F4003F05D0BB
:100D8400094A02FB03F3054A1360D5E7044A02FB50
:100D940003F3024A1360CFE700100240280000204A
:100DA40000127A000800002000093D0008B5104B2D
:100DB4001A6842F001021A6059680E4A0A405A60E1
:100DC4001A6822F0847222F480321A601A6822F4BB
:100DD40080221A605A6822F4FE025A604FF41F02FD
:100DE4009A60FFF795FF044B4FF000629A6008BDCC
:100DF400001002400000FFF800ED00E008B5FFF726
:100E04008BFF08BD08B5FFF7D1FF024A024B9A6079
:100E140008BD00BF0000000800ED00E001230360EE
:100E2400014B0B60704700BF2C000020FEE708B5A3
:100E34000120FFF7FBFF08B5FFF7F9FF38B50546BA
:100E44000C46274B984214D0A3F57443984210D013
:100E540003F5806398420CD003F58063984208D070
:100E640003F58063984204D040F286311D48FFF7B1
:100E7400E2FF012C13D0802C11D0402C0FD0202C59
:100E84000DD0102C0BD0B4F5807F08D0B4F5007FC2
:100E940005D0082C03D0042C01D0022C07D1B4F5C2
:100EA400007F0AD02B881C4218D0012038BD40F2A4
:100EB40087310C48FFF7BFFFF1E7094B9D42F1D0A2
:100EC400A3F574439D42EDD003F580639D42E9D0C0
:100ED40040F28B310348FFF7AEFFE3E70020E5E77C
:100EE400003801405C54000838B505460C46124BE6
:100EF400984214D0A3F57443984210D003F580634C
:100F040098420CD003F58063984208D003F58063BF
:100F1400984204D040F25F210848FFF78CFFB4F5F3
:100F2400007F03D2C4F30804AC8038BD4FF41871B9
:100F34000248FFF780FFF5E7003801405C540008E1
:100F440070B504460D461646194B984214D0A3F5C5
:100F54007443984210D003F5806398420CD003F593
:100F64008063984208D003F58063984204D040F22D
:100F7400C3111048FFF75FFF25F0C0039BB203B90C
:100F840025B94FF4E2710B48FFF755FF012E04D841
:100F94004EB1A38A1D43A58270BD40F2C511054818
:100FA400FFF749FFF4E7A38A23EA0505A582F3E7DF
:100FB400003801405C54000838B504460D46164B11
:100FC400984214D0A3F57443984210D003F580637B
:100FD40098420CD003F58063984208D003F58063EF
:100FE400984204D04FF4B1710C48FFF724FF012D4F
:100FF40005D855B1A38943F40053A38138BD40F209
:1010040063110648FFF717FFF3E7A3899BB223F4A4
:1010140000539BB2A381F1E7003801405C540008FF
:1010240070B505460C46254B98420CD0A3F5744385
:10103400984208D003F58063984204D04FF4997124
:101044001F48FFF7F8FE238813B1B3F5006F1CD1D6
:10105400638813B1B3F5806F1DD1A38813B1B3F5C1
:10106400007F1ED1E38813B1B3F5807F1FD12A8A94
:1010740092B220886688A188E388304301430B43F9
:1010840022F4706213432B8270BD40F233110C487A
:10109400FFF7D1FEDCE74FF49A710948FFF7CBFE66
:1010A400DBE740F235110648FFF7C5FEDAE74FF4F7
:1010B4009B710348FFF7BFFED9E700BF003801402A
:1010C4005C54000838B504460D462E4B984243D074
:1010D400B0F1804F40D0A3F5943398423CD003F54F
:1010E4008063984238D003F58063984234D003F586
:1010F4008063984230D003F5806398422CD003F586
:101104009033984228D003F5C053984224D003F575
:101114008063984220D003F5806398421CD0A3F5E5
:101124009E33984218D003F58063984214D003F597
:101134008063984210D003F5903398420CD003F5A5
:101144008063984208D003F58063984204D040F24B
:1011540029310D48FFF76FFE012D05D855B12388BD
:1011640043F00103238038BD40F22A310648FFF7DB
:1011740062FEF3E723889BB223F001039BB2238032
:10118400F1E700BF002C0140F8530008002303805E
:1011940043808380C380038143818381C3817047FB
:1011A4002DE9F04104460D463F4B984217D0B0F16B
:1011B400804F14D0A3F59433984210D003F5806384
:1011C40098420CD003F58063984208D003F5943319
:1011D400984204D04FF404713448FFF72CFE2B8856
:1011E4004BB1102B07D0202B05D0302B03D0602B14
:1011F40001D0702B40D16B88012B43D82B890BB1C4
:10120400022B45D1238C9BB223F480539BB22384BD
:10121400268CB6B2B4F804801FFA88F8A78BBFB244
:1012240027F4E6472B881B029BB21F4326F4005683
:101234002B891B039BB233436E883603B6B21E431D
:10124400194B9C4203D003F500639C420BD1AB893C
:10125400B3F5807F00D00BBB28F48048AB899B0199
:101264009BB248EA0308A4F80480A783EB88A4F897
:1012740040302684BDE8F08140F211210B48FFF78D
:10128400DAFDB8E740F212210848FFF7D4FDB5E7CC
:1012940040F213210548FFF7CEFDB3E74FF40C717C
:1012A4000248FFF7C8FDD7E7002C0140F8530008B7
:1012B4002DE9F04104460E46574B984217D0B0F141
:1012C400804F14D0A3F59433984210D003F5806373
:1012D40098420CD003F58063984208D003F5943308
:1012E400984204D040F2C1114C48FFF7A4FD338862
:1012F4004BB1102B07D0202B05D0302B03D0602B03
:1013040001D0702B5DD17388012B60D833890BB168
:10131400022B62D1238C9BB223F480739BB223846F
:10132400258CADB2B4F804801FFA88F8A78BBFB23D
:1013340027F0730733881F4325F4007533891B0294
:101344009BB22B4375882D02ADB21D43324B9C4298
:1013540003D003F500639C422BD1B3880BB1042B5B
:1013640041D173890BB1082B43D1F389B3F5007FC5
:1013740001D0002B43D1B389B3F5807F01D0002B7A
:1013840043D125F4006573891B029BB21D4325F4E8
:101394008065B3881B029BB21D4328F44058B3896F
:1013A4001B019BB248EA0308F3891B019BB243EA81
:1013B4000808A4F80480A783F388A3872584BDE8DC
:1013C400F0814FF4E1711548FFF735FD9BE740F2DA
:1013D400C3111248FFF72FFD98E74FF4E2710F484D
:1013E400FFF729FD96E74FF4F0710C48FFF723FD52
:1013F400B7E740F2E1110948FFF71DFDB5E74FF4E7
:10140400F1710648FFF717FDB5E740F2E311034811
:10141400FFF711FDB5E700BF002C0140F8530008A9
:101424002DE9F04104460E465E4B984223D0B0F1BC
:10143400804F20D0A3F5943398421CD003F58063E9
:10144400984218D003F58063984214D003F594337E
:10145400984210D003F5C05398420CD0A3F59A33A8
:10146400984208D003F59433984204D040F26F11A7
:101474004D48FFF7E0FC33884BB1102B07D0202BED
:1014840005D0302B03D0602B01D0702B5FD1738833
:10149400012B62D833890BB1022B64D1238C9BB20C
:1014A40023F010039BB22384258CADB2B4F80480DE
:1014B4001FFA88F8278BBFB227F4E64733881B024C
:1014C4009BB21F4325F0200533891B019BB22B439C
:1014D40075882D01ADB21D43324B9C4203D003F5F8
:1014E40000639C422BD1B3880BB1042B41D1738987
:1014F4000BB1082B43D1F389B3F5007F01D0002B46
:1015040043D1B389B3F5807F01D0002B43D125F0BB
:10151400800573891B019BB21D4325F04005B388E8
:101524001B019BB21D4328F44068B3899B009BB206
:1015340048EA0308F3899B009BB243EA0808A4F82D
:1015440004802783F38823872584BDE8F0814FF442
:10155400B8711548FFF76FFC99E740F27111124812
:10156400FFF769FC96E74FF4B9710F48FFF763FC86
:1015740094E740F28F110C48FFF75DFCB7E74FF496
:10158400C8710948FFF757FCB5E740F291110648C6
:10159400FFF751FCB5E74FF4C9710348FFF74BFC63
:1015A400B5E700BF002C0140F85300082DE9F041D5
:1015B40004460D46684B98423BD0B0F1804F38D07A
:1015C400A3F59433984234D003F58063984230D025
:1015D40003F5806398422CD003F59433984228D0C5
:1015E40003F5C053984224D003F58063984220D079
:1015F40003F5806398421CD0A3F59E33984218D01B
:1016040003F58063984214D003F58063984210D0A8
:1016140003F5903398420CD003F58063984208D0C8
:1016240003F58063984204D04FF48E714B48FFF762
:1016340002FC2B884BB1102B07D0202B05D0302B6C
:1016440003D0602B01D0702B5CD16B88012B5FD849
:101654002B890BB1022B61D1238C9BB223F00103A4
:101664009BB22384268CB6B2A788BFB2B4F8188084
:101674001FFA88F828F073082B8848EA030826F034
:1016840002062B8933436E881E43334B9C420FD092
:1016940003F500639C420BD003F540639C4207D0E2
:1016A40003F580639C4203D003F580639C4221D1FF
:1016B400AB880BB1042B37D16B890BB1082B39D113
:1016C400EB89B3F5007F01D0002B39D1AB89B3F599
:1016D400807F01D0002B39D126F008066B891E4388
:1016E40026F00406AB881E4327F44077AB891F43DA
:1016F400EB891F43A780A4F81880EB88A38626846F
:10170400BDE8F08140F21D111448FFF794FB9CE7FB
:101714004FF48F711148FFF78EFB99E740F21F11C8
:101724000E48FFF788FB97E74FF49E710B48FFF7CD
:1017340082FBC1E740F23D110848FFF77CFBBFE79D
:101744004FF49F710548FFF776FBBFE740F23F1166
:101754000248FFF770FBBFE7002C0140F853000874
:1017640008B50139032906D8DFE801F002060A0E9C
:101774001146FFF71BFF08BD1146FFF751FEFAE7BC
:101784001146FFF795FDF6E71146FFF709FDF2E76D
:1017940038B504460D46534B984242D0B0F1804FC1
:1017A4003FD0A3F5943398423BD003F5806398422D
:1017B40037D003F58063984233D003F580639842B1
:1017C4002FD003F5806398422BD003F590339842D1
:1017D40027D003F5C053984223D003F58063984281
:1017E4001FD003F5806398421BD0A3F59E33984223
:1017F40017D003F58063984213D003F580639842B1
:101804000FD003F5903398420BD003F580639842D0
:1018140007D003F58063984203D0E7213248FFF7ED
:101824000AFB6B883BB1102B05D0202B03D0402B37
:1018340001D0602B4CD1EB882BB1B3F5807F02D063
:10184400B3F5007F49D123889BB2264A944212D033
:1018540002F5006294420ED0B4F1804F0BD0A2F591
:101864009832944207D002F58062944203D002F584
:101874008062944203D123F070036A8813431B4AA5
:10188400944208D002F58062944204D023F4407359
:101894009BB2EA8813432380AB88A3852B882385D6
:1018A400104B9C420FD003F500639C420BD003F510
:1018B40040639C4207D003F580639C4203D003F548
:1018C40080639C4201D12B7A23860123A38238BDF5
:1018D400E8210548FFF7AFFAADE7E9210248FFF731
:1018E400AAFAB0E7002C0140F853000800100040A9
:1018F40038B504460D46124B98420CD0A3F57843F4
:10190400984208D003F58063984204D04FF41D71C7
:101914000C48FFF790FA012D05D855B1A38843F080
:101924000403A38038BD40F275210648FFF783FA0B
:10193400F3E7A3889BB223F004039BB2A380F1E7EF
:1019440000300140B053000870B504460D461646F9
:10195400154B98420CD0A3F57843984208D003F570
:101964008063984204D04FF408711048FFF763FA7B
:10197400012E0ED825F003039BB203B925B940F21A
:1019840022210A48FFF757FA4EB1A3881D43A580C8
:1019940070BD40F221210548FFF74DFAEAE7A3881C
:1019A40023EA0505A580F3E700300140B0530008A1
:1019B40038B504460D46124B98420CD0A3F5784333
:1019C400984208D003F58063984204D040F2B711DE
:1019D4000C48FFF730FA012D05D855B1238843F0A0
:1019E4004003238038BD4FF4DC710648FFF723FA27
:1019F400F3E723889BB223F040039BB22380F1E7F3
:101A040000300140B053000838B505460C464A4B37
:101A140098420BD0A3F57843984207D003F580632E
:101A2400984203D0A3214548FFF705FA238843B120
:101A3400B3F5806F05D0B3F5004F02D0B3F5404F36
:101A44004CD16388B3F5827F01D0002B4BD1A3889E
:101A5400B3F5006F01D0002B4AD1E3880BB1022B00
:101A64004BD12389012B4DD86389B3F5007F01D075
:101A7400002B4CD1A3896BB1082B0BD0102B09D0B0
:101A8400182B07D0202B05D0282B03D0302B01D0C6
:101A9400382B41D1E3890BB1802B42D1238A002B0F
:101AA40044D02B8803F44152238861880B43A188D6
:101AB4000B43E1880B4321890B4361890B43A189C3
:101AC4000B43E1890B4313432B80AB8B9BB223F471
:101AD40000639BB2AB83238A2B8238BDA6211748AF
:101AE400FFF7A9F9ADE7A7211448FFF7A4F9AEE77A
:101AF400A8211248FFF79FF9AFE7A9210F48FFF784
:101B04009AF9AEE7AA210D48FFF795F9ACE7AB21A6
:101B14000A48FFF790F9ADE7AC210848FFF78BF9C5
:101B2400B8E7AD210548FFF786F9B7E7AE210348CA
:101B3400FFF781F9B5E700BF00300140B05300085A
:101B440038B504460D460E4B184200D120B940F278
:101B540069410C48FFF76FF9012D05D855B10A4AC0
:101B6400D3691C43D46138BD40F26A410548FFF78C
:101B740062F9F3E7044AD36923EA0404D461F2E77F
:101B840000360181685300080010024038B504464D
:101B94000D460E4B034003B920B940F24A410C48AC
:101BA400FFF749F9012D05D855B10A4A93691C4339
:101BB400946138BD40F24B410548FFF73CF9F3E727
:101BC400044A936923EA04049461F2E70200C0FF23
:101BD400685300080010024038B504460D46484BCF
:101BE400984230D0B4F1804F32D0464B9C4234D02E
:101BF400454B9C4236D0454B9C4238D0444B9C428A
:101C04003AD0444B9C423CD0434B9C423ED0434B45
:101C14009C4241D0424B9C4244D0424B9C4247D0D0
:101C2400414B9C424AD0414B9C424CD0404B9C423D
:101C34004ED0404B9C4251D03F4B9C4254D03F4BE2
:101C44009C4257D038BD4FF40060FFF79FFFC9E7AF
:101C540029460120FFF774FFC7E729460220FFF752
:101C64006FFFC5E729460420FFF76AFFC3E729464B
:101C74000820FFF765FFC1E729461020FFF760FF42
:101C8400BFE729462020FFF75BFFBDE729464FF455
:101C94000050FFF77BFFBAE729464FF40020FFF717
:101CA40075FFB7E729464FF48010FFF76FFFB4E7DD
:101CB40029464FF40010FFF769FFB1E72946402099
:101CC400FFF73EFFAFE729468020FFF739FFADE776
:101CD40029464FF48070FFF733FFAAE729464FF4F3
:101CE4008030FFF753FFA7E729464FF40030FFF792
:101CF4004DFFA4E729464FF48020FFF747FFA1E7F3
:101D0400002C01400004004000080040000C00408A
:101D1400001000400014004000340140004C014019
:101D2400005001400054014000180040001C0040D5
:101D340000200040004001400044014000480140B0
:101D440038B504460D460D4B984206D00C4B9C42C8
:101D540008D00C4B9C420BD038BD4FF40070FFF7F9
:101D640015FFF3E729464FF48060FFF70FFFF0E714
:101D740029464FF40040FFF709FFEDE70024014036
:101D840000280140003C014038B504460D46164B7E
:101D940098420CD0154B9C420ED0154B9C4211D04E
:101DA400144B9C4214D0144B9C4217D038BD4FF4B2
:101DB4008040FFF7EBFEEDE729464FF40030FFF7D4
:101DC400BFFEEAE729464FF48020FFF7B9FEE7E7B4
:101DD40029464FF40020FFF7B3FEE4E729464FF409
:101DE4008010FFF7ADFEE1E70038014000440040F9
:101DF40000480040004C00400050004038B5044604
:101E04000D460D4B984206D00C4B9C4208D00C4B0F
:101E14009C420BD038BD4FF48050FFF7B7FEF3E778
:101E240029464FF48040FFF78BFEF0E729464FF434
:101E34000040FFF785FEEDE7003001400038004028
:101E4400003C004038B504460D46184B98420FD06C
:101E5400174B9C4210D0174B9C4212D0164B9C42FD
:101E640014D0164B9C4216D0154B9C4218D038BD4A
:101E74000420FFF78BFEEBE729460820FFF786FED8
:101E8400E9E729461020FFF781FEE7E729462020ED
:101E9400FFF77CFEE5E729464020FFF777FEE3E7FE
:101EA40029468020FFF772FEE1E700BF00080140E9
:101EB400000C0140001001400014014000180140D2
:101EC400001C014038B504460D4620F4AA6323F0F3
:101ED400070303B920B940F22B410B48FEF7ABFFCF
:101EE400012D05D855B1094A53691C43546138BDC5
:101EF40040F22C410448FEF79EFFF3E7034A53697E
:101F040023EA04045461F2E7685300080010024015
:101F140038B504460D46164B984211D014339842F6
:101F24000ED0143398420BD01433984208D0143393
:101F3400984205D01433984202D01433984203D106
:101F440029460120FFF7BEFF0A4B9C420BD01433F5
:101F54009C4208D014339C4205D014339C4202D0D6
:101F640014339C4203D129460220FFF7ABFF38BD4E
:101F7400080002400804024010B4294B5B6803F0D7
:101F84000C03042B2BD0082B2CD013B1254B03604E
:101F940001E0244B036022494B68C3F30313224C32
:101FA400E35CDAB20368D34043604A68C2F30222B6
:101FB400A25CD2B223FA02F282604A68C2F3C2225D
:101FC400A25CD2B2D340C3604A68C2F381321749DB
:101FD4008A5CD2B2B3FBF2F3036110BC7047114BBD
:101FE4000360D8E70E4A53685268C3F3834302334D
:101FF40012F4803F04D10E4A02FB03F30360CAE7E4
:10200400074A526812F4003F04D0094A02FB03F362
:102014000360C0E7034A02FB03F30360BBE700BFAE
:102024000010024000127A00180000200400002072
:1020340000093D0000B587B0FEF76EFE01A8FFF76A
:102044009BFF019B0F4AA2FB03239B09013BB3F1B6
:10205400807F15D20C4A53600C4BF02183F8231077
:10206400002191600720106083F82310084B1B683F
:10207400084AB3FBF2F3084A136007B05DF804FBA7
:10208400FEE700BFD34D621010E000E000ED00E079
:102094002800002040420F003800002030B587B0EF
:1020A40004460D46664B984213D0A3F574439842F8
:1020B4000FD003F5806398420BD003F580639842F8
:1020C40007D003F58063984203D0B8215D48FEF73A
:1020D400B2FE2B68013B5C4A934200F28480AB88D9
:1020E4001BB1B3F5805F40F08380EB8843B1B3F557
:1020F400805F05D0B3F5005F02D0B3F5405F7CD1BB
:102104002B892BB1B3F5806F02D0B3F5C06F79D1B1
:102114006A8922F00C039BB203B91AB9BD2149485C
:10212400FEF789FEAB8943B1B3F5807F05D0B3F5E3
:10213400007F02D0B3F5407F69D1AB8973B1404BC6
:102144009C420BD0A3F574439C4207D003F58063F3
:102154009C4203D0C2213B48FEF76DFE238A9BB20A
:10216400EA8823F4405313432382A28992B2AB88B2
:1021740029890B4369890B4322F4B05222F00C02E3
:102184001343A381A38A9BB2AA8923F44073134304
:10219400A38201A8FFF7F0FE294B9C423CD0039890
:1021A400A38913F4004F39D1192303FB00F32868E2
:1021B4008000B3FBF0F0254BA3FB002359090D016C
:1021C400642301FB1303A28912F4004F2ED11B01D7
:1021D40032336422B3FBF2F303F00F032B439BB2BD
:1021E400238107B030BDB9211648FEF724FE76E7F7
:1021F400BA211448FEF71FFE77E7BB211148FEF70A
:102204001AFE7DE7BC210F48FEF715FE80E7BE21CC
:102214000C48FEF710FE90E70498C1E7192303FB6E
:1022240000F328684000B3FBF0F0C4E7DA00323270
:102234006423B2FBF3F202F0070242EA0503CEE79D
:10224400003801405C5400081FAA44001F85EB516C
:1022540010B5044640B1B0F5804F05D0B0F5004F3D
:1022640002D0B0F5404F06D1064A536823F44043E8
:102274001C43546010BD40F202310348FEF7DBFDFD
:10228400F2E700BF001002406853000838B5054665
:102294000C460E4B984208D003F58063984204D054
:1022A40040F24A510A48FEF7C6FD42F2FF031C42BF
:1022B40000D124B940F24B510548FEF7BCFD24F08F
:1022C4007F44E443A4B2AC8238BD00BF0054004054
:1022D400E052000838B505460C462F4B984208D00A
:1022E40003F58063984204D04FF487612B48FEF7CE
:1022F400A2FD2B4B9C423BD0B4F1021F38D0294B9A
:102304009C4235D0B4F5020F32D0B4F5901F2FD0D3
:10231400254B9C422CD003F500039C4228D0A3F506
:10232400E0039C4224D0214B9C4221D003F50003BE
:102334009C421DD0A3F5E0039C4219D0102C17D069
:102344001B4B9C4214D01B4B9C4211D01A4B9C42F9
:102354000ED03E339C420BD0184B9C4208D0043B19
:102364009C4205D0164B9C4202D0B4F5806F0AD132
:10237400AB8A2A8B43EA024323F07F4334EA030304
:1023840007D0002038BD40F239410448FEF753FD20
:10239400EEE70120F6E700BF00540040E0520008D9
:1023A40082000600800086004000020084000600CF
:1023B40001000300820007000200030084000700FC
:1023C4000800030010B50446074B984208D003F5F3
:1023D4008063984204D040F262210448FEF72BFD4A
:1023E400208AC0B210BD00BF00540040E052000873
:1023F40038B505460C46074B984208D003F5806370
:10240400984204D040F255210348FEF714FDA4B2CB
:102414002C8238BD00540040E052000838B5044610
:102424000D46104B984208D003F58063984204D0BF
:102434004FF4E5710C48FEF7FEFC012D05D855B1AB
:10244400238843F48063238038BD40F2CB110648CF
:10245400FEF7F1FCF3E723889BB223F480639BB27D
:102464002380F1E700540040E052000838B50446E8
:102474000D46104B984208D003F58063984204D06F
:102484004FF4D9710C48FEF7D6FC012D05D855B18F
:10249400238843F40073238038BD40F2B311064807
:1024A400FEF7C9FCF3E723889BB223F400739BB2C5
:1024B4002380F1E700540040E052000838B5044698
:1024C4000D46104B984208D003F58063984204D01F
:1024D4004FF4CD710C48FEF7AEFC012D05D855B173
:1024E400238843F48073238038BD40F29B1106484F
:1024F400FEF7A1FCF3E723889BB223F480739BB21D
:102504002380F1E700540040E0520008F8B5054686
:102514000C46494B98421BD003F58063984217D070
:1025240003F58063984213D003F5806398420FD07B
:1025340003F5806398420BD003F58063984207D07B
:1025440003F58063984203D0B2213C48FEF773FC44
:10255400E3786BB1042B0BD0282B09D0482B07D080
:10256400142B05D0102B03D01C2B01D0182B14D105
:102574002388BBB1E37803F00F06304613F0100F45
:1025840006D0A378013BDBB2022B10D8A0783043ED
:1025940023785BB32E68002310E0B3212748FEF7AD
:1025A4004AFCE5E7B4212548FEF745FCE2E7BB21F8
:1025B4002248FEF740FCE9E76A610133072B14D88F
:1025C40001229A40218832EA0101F6D199000F27AD
:1025D4008F4026EA070600FA01F10E43E178282924
:1025E400EAD04829E9D12A61E7E72E602388FF2B46
:1025F40020D96E68002302E06A6115E00133072BDD
:1026040017D803F1080101228A40218832EA010126
:10261400F4D199000F278F4026EA070600FA01F14A
:102624000E43E1782829E7D0E1784829E6D12A61E8
:10263400E4E76E60F8BD00BF00080140985200084E
:1026440010B5044610F0704F02D0094B034003B993
:1026540024B940F20E210748FEF7EDFB14F0805F29
:1026640002D0054B5C6010BD044B5C60FBE700BF0F
:102674000000F0EF50520008000402400000024045
:1026840010B50446431E012B40F29480042800F048
:102694009180082800F08E80102800F08B8020287C
:1026A40000F08880402800F08580802800F0828037
:1026B400B0F5807F7ED0B0F5007F7BD0B0F5806F21
:1026C40078D0B0F5006F75D0B0F5805F72D0B0F5FA
:1026D400005F6FD0B0F5804F6CD0B0F5004F69D07B
:1026E400B0F5803F66D0B0F5003F63D0B0F5802FE1
:1026F40060D0B0F5002F5DD0B0F5801F5AD0B0F592
:10270400001F57D0B0F5800F54D0B0F5000F51D052
:10271400B0F1807F4ED0B0F1007F4BD0B0F1806F2C
:1027240048D0B0F1006F45D02C4B984242D00133D1
:1027340098423FD0023398423CD00433984239D077
:102744000833984236D01033984233D0203398421D
:1027540030D0403398422DD0803398422AD003F5AC
:102764008073984226D003F50073984222D003F573
:10277400806398421ED0B0F1102F1BD003F5C053D4
:10278400984217D003F50053984213D003F58043C1
:1027940098420FD003F5004398420BD003F58033E1
:1027A400984207D003F50033984203D003F5802301
:1027B400984208D114F0805F0BD0094B1B68234268
:1027C4000AD0012010BD40F2B7110648FEF733FBD2
:1027D400F0E7054B1B68F2E70020F3E70100001067
:1027E40000040240505200080000024038B504467C
:1027F4000D46164B984226D01433984223D01433F6
:10280400984220D0143398421DD0143398421AD0E1
:102814001433984217D01433984214D003F56273DA
:10282400984210D0143398420DD0143398420AD0F1
:102834001433984207D01433984204D04FF4B27141
:102844000348FEF7F8FA656038BD00BF080002408F
:102854005052000870B504460D461646224B984265
:1028640026D01433984223D01433984220D0143302
:1028740098421DD0143398421AD01433984217D07A
:102884001433984214D003F56273984210D0143371
:1028940098420DD0143398420AD01433984207D08A
:1028A4001433984204D040F249111048FEF7C3FA99
:1028B40035F00E0300D125B94FF4A5710B48FEF78E
:1028C400BAFA012E04D84EB123681D43256070BDA9
:1028D40040F24B110548FEF7AEFAF4E7236823EA09
:1028E40005052560F3E700BF0800024050520008C8
:1028F40038B504460D461F4B984226D014339842EF
:1029040023D01433984220D0143398421DD014336A
:1029140098421AD01433984217D01433984214D0E2
:1029240003F56273984210D0143398420DD01433D7
:1029340098420AD01433984207D01433984204D0F2
:1029440040F229110C48FEF776FA012D05D855B14D
:10295400236843F00103236038BD4FF495710648A2
:10296400FEF769FAF3E7236823F001031B041B0C49
:102974002360F1E7080002405052000808B54FF008
:102984000060FFF77DFE40B14FF00060FFF758FE96
:1029940000210948FFF7ACFF08BD4FF00070FFF7B6
:1029A4006FFE0028F4D04FF00070FFF749FE034B90
:1029B40000229A70ECE700BF80000240B0000020C3
:1029C40008B54FF40020FFF75BFE40B14FF4002040
:1029D400FFF736FE00210948FFF78AFF08BD4FF4D0
:1029E4000030FFF74DFE0028F4D04FF40030FFF71D
:1029F40027FE034B00225A70ECE700BF5800024048
:102A0400B000002008B54FF40060FFF739FE40B174
:102A14004FF40060FFF714FE00210948FFF768FF38
:102A240008BD4FF40070FFF72BFE0028F4D04FF4DC
:102A34000070FFF705FE034B00221A70ECE700BF9D
:102A440030000240B000002070B50546FF280CD0CD
:102A54002846FDF717FD044628B16E1EF6B21C4B3E
:102A64009C5D5CB90024204670BD0124032CEFD882
:102A74002046FFF7E9FF0134E4B2F7E72846FDF703
:102A84004DFD0028EED12EB1012E1CD0022E1CD1FA
:102A9400104D00E0104D00212846FFF729FF0F4B91
:102AA40033F816100231890089B22846FFF79EFEDA
:102AB40001212846FFF71CFF094B01229A55044BBC
:102AC40000229A55CFE7074DE5E70446CBE700BF60
:102AD400000100208000024030000240EC00002091
:102AE400B00000205800024038B505460C46574B4C
:102AF400984225D01433984222D0143398421FD0E0
:102B0400143398421CD01433984219D01433984289
:102B140016D01433984213D003F5627398420FD041
:102B2400143398420CD01433984209D01433984289
:102B340006D01433984203D0CF214548FEF77BF9E1
:102B4400A368102B01D0002B53D1E368013B4FF64F
:102B5400FE72934252D82369402B01D0002B52D1EC
:102B64006369802B01D0002B52D1A3692BB1B3F53B
:102B7400807F02D0B3F5007F4FD1E3692BB1B3F569
:102B8400806F02D0B3F5006F4CD1236A202B01D0A3
:102B9400002B4CD1636AB3F5405F07D0B3F5005FF7
:102BA40004D0B3F5805F01D0002B45D1A36AB3F5FF
:102BB400804F01D0002B44D12A6822F4FF4222F036
:102BC4007002A368216A0B4321690B4361690B43BB
:102BD400A1690B43E1690B43616A0B43A16A0B438F
:102BE40013432B60E3686B602368AB606368EB603E
:102BF40038BDD0211648FEF71EF9A6E7D1211448A6
:102C0400FEF719F9A7E7D2211148FEF714F9A7E74F
:102C1400D3210F48FEF70FF9A7E7D4210C48FEF79C
:102C24000AF9AAE7D5210A48FEF705F9ADE7D62146
:102C34000748FEF700F9ADE7D7210548FEF7FBF892
:102C4400B4E7D8210248FEF7F6F8B5E708000240D9
:102C54005052000810B504464F4B984225D0143307
:102C6400984222D0143398421FD0143398421CD077
:102C74001433984219D01433984216D0143398421E
:102C840013D003F5627398420FD0143398420CD0DA
:102C94001433984209D01433984206D0143398421E
:102CA40003D06F213D48FEF7C6F8236823F00103E3
:102CB4001B041B0C2360002323606360A360E36098
:102CC400354B9C4226D0364B9C4229D0354B9C42F6
:102CD4002CD0354B9C422FD0344B9C4232D0344BB9
:102CE4009C4235D0334B9C4238D0334B9C423BD032
:102CF400324B9C423ED0324B9C4241D0314B9C42A1
:102D040044D0314B9C420AD1304A536843F4702377
:102D1400536004E02E4A536843F00F03536010BD20
:102D24002B4A536843F0F0035360F8E7284A53688A
:102D340043F470635360F2E7254A536843F47043E5
:102D44005360ECE7224A536843F470235360E6E788
:102D54001F4A536843F470035360E0E71C4A536806
:102D640043F070635360DAE7184A536843F00F0383
:102D74005360D4E7154A536843F0F0035360CEE739
:102D8400124A536843F470635360C8E70F4A5368A8
:102D940043F470435360C2E70800024050520008F5
:102DA4001C0002403000024044000240580002402F
:102DB4006C00024080000240080402401C040240EF
:102DC400300402404404024058040240000402401B
:102DD4000000024038B505460C460F4B98420CD013
:102DE40003F58063984208D003F5A053984204D0B9
:102DF40040F20D510948FEF71EF824F4FC639BB21F
:102E040003B924B940F20E510448FEF714F86FEAEE
:102E140014242C6038BD00BF00240140085200086F
:102E2400F8B505460E4614461F46374B98420CD05B
:102E340003F58063984208D003F5A053984204D068
:102E44004FF416713148FDF7F6FF112E22D8631E98
:102E5400DBB20F2B24D8072F28D8092E2CD9EA68E7
:102E6400A6F10A0303EB43030721994022EA010276
:102E74009F401743EF60062C29D8696B013C04EB93
:102E840084041F23A34021EA030106FA04F40C433B
:102E94006C63F8BD40F259211C48FDF7CCFFD6E71E
:102EA40040F25A211948FDF7C6FFD4E740F25B21EE
:102EB4001648FDF7C0FFD0E72B6906EB4601072251
:102EC4008A4023EA02038F401F432F61D3E70C2C6F
:102ED4000CD8296B073C04EB84041F23A34021EA8C
:102EE400030106FA04F40C432C63D2E7EB6AA4F161
:102EF4000D0101EB81011F228A4023EA020306FA35
:102F040001F11943E962C4E70024014008520008B2
:102F140038B504460D46114B98420CD003F5806336
:102F2400984208D003F5A053984204D04FF4E971B5
:102F34000B48FDF780FF012D05D855B1A36843F474
:102F4400A003A36038BD40F2D3110548FDF773FF19
:102F5400F3E7A36823F4A003A360F3E7002401408C
:102F64000852000810B504460B4B98420CD003F5E8
:102F74008063984208D003F5A053984204D04FF4DC
:102F8400DC710648FDF757FFA36813F0040F01D066
:102F9400012010BD0020FCE7002401400852000875
:102FA40010B504460A4B98420CD003F5806398424E
:102FB40008D003F5A053984204D04FF4D5710548C6
:102FC400FDF739FFA36843F00403A36010BD00BFFD
:102FD400002401400852000810B504460B4B9842E7
:102FE4000CD003F58063984208D003F5A0539842AF
:102FF40004D04FF4C9710648FDF71DFFA36813F010
:10300400080F01D0012010BD0020FCE7002401407E
:103014000852000810B504460A4B98420CD003F538
:103024008063984208D003F5A053984204D04FF42B
:10303400C2710548FDF7FFFEA36843F00803A360CF
:1030440010BD00BF002401400852000870B50546B9
:103054000C461646164B98420CD003F580639842F2
:1030640008D003F5A053984204D040F26B111148E4
:10307400FDF7E1FE012E0FD824F4FC639BB203B9E3
:1030840024B940F26D110B48FDF7D5FEE4B24EB100
:103094006B681C436C6070BD4FF4B6710548FDF756
:1030A400CAFEE9E76B6823EA04046C60F3E700BF37
:1030B400002401400852000838B504460D460F4B61
:1030C400984208D003F5C053984204D040F24D1101
:1030D4000B48FDF7B0FE012D05D855B1A36843F4A4
:1030E4008073A36038BD4FF4A7710548FDF7A3FEB4
:1030F400F3E7A36823F48073A360F3E7002401409B
:103104000852000838B504460D46114B98420CD0BD
:1031140003F58063984208D003F5A053984204D085
:103124004FF49A710B48FDF786FE012D05D855B171
:10313400A36843F00103A36038BD40F2351105488C
:10314400FDF779FEF3E7A36823F00103A360F3E737
:10315400002401400852000838B505460C46484B87
:1031640098420BD003F58063984207D003F5A0532F
:10317400984203D0E5214348FDF75DFE2368D3B1AF
:10318400B3F5803F17D0B3F5003F14D0B3F5403FFB
:1031940011D0B3F5802F0ED0B3F5A02F0BD0B3F51B
:1031A400C02F08D0B3F5E02F05D0B3F5002F02D01F
:1031B400B3F5102F46D12379012B48D86379012B1D
:1031C4004AD8A368A3B1B3F5003F11D0B3F5802F5B
:1031D4000ED0B3F5C02F0BD0B3F5002F08D0B3F544
:1031E400202F05D0B3F5402F02D0B3F5602F38D18E
:1031F400E36813B1B3F5006F38D1237C013BDBB234
:103204000F2B38D86A6822F4702222F48072236863
:10321400217943EA012313436B60AB681A4A1A40CD
:10322400E368A1680B43617943EA41031343AB604C
:10323400EB6A23F47003227C013AD2B243EA0253CC
:10324400EB6238BDE6210F48FDF7F5FDB3E7E72152
:103254000C48FDF7F0FDB1E7E8210A48FDF7EBFD66
:10326400AFE7E9210748FDF7E6FDC1E7EA21054894
:10327400FDF7E1FDC1E7EB210248FDF7DCFDC1E705
:103284000024014008520008FDF7F1FF10B5044680
:10329400C378012B26D863780F2B28D8A3780F2B5B
:1032A4002AD8E3786BB31C4BDA68D243C2F3022208
:1032B400C2F104000F2323FA02F261788140A3785B
:1032C40013400B431B012278DBB214490A4482F8F1
:1032D4000033237803F01F005B090122824041F888
:1032E400232010BD75210E48FDF7A5FDD3E77621F7
:1032F4000B48FDF7A0FDD1E777210948FDF79BFDB9
:10330400CFE7237803F01F015B0901228A402033B1
:10331400024941F82320E4E700ED00E000E100E089
:103324002853000808B501460448FDF7DDFD402197
:103334000248FDF783FD0028F9D008BD003801409C
:1033440010B5044694F9000020B10134C0B2FFF76F
:10335400E9FFF7E710BD00000130C0B201380728CB
:1033640044D8DFE800F0040C131B232B333B204B21
:103374009868800980F0010000F0010070471D4B3F
:10338400986880F0010000F001007047194B9868BC
:10339400000A80F0010000F001007047154B9868A6
:1033A400400A80F0010000F001007047124B986859
:1033B400400B80F0010000F0010070470E4B98684C
:1033C400800B80F0010000F0010070470A4B986800
:1033D400C00B80F0010000F001007047054B9868B5
:1033E400800A80F0010000F001007047002070475F
:1033F40000080140000C0140001001400138034B5B
:1034040003EBC003987800229A707047C824002008
:103414000138034B03EBC003D8780022DA707047FD
:10342400C8240020022805D80138034B03EBC00050
:103434004078704700207047C824002038B50446FF
:103444000D46FFF7EFFF0346A8B10D4A1268AA42E2
:1034540010D30B4A1268551B013C0A4A02EBC40202
:103464005268954209D9064A1168064A02EBC40417
:10347400616000E00023184638BD0023FBE700BF6D
:10348400D8240020C82400202E4B1A682E4B1B6819
:103494009A4256D910B52B4B1B6821332A4A136024
:1034A40000240FE0294B13F83430DBB1013B274AE9
:1034B40002F8343016E0254B03EBC20201235370AB
:1034C4000134E4B2012C3BD82046FFF745FF002825
:1034D400E8D01E4B13F83430022B03D801331B4AB7
:1034E40002F834302246194B13F83430022B10D929
:1034F400164B03EBC4035B78002BDCD1134B03EBBB
:10350400C4030121D970002199700E4909685960DA
:10351400D1E7002BD4D10D4B03EBC4035B784BB143
:103524000A4B03EBC4030021D970012199704FF0B9
:10353400FF315960054B03EBC20200235370BFE710
:1035440010BD7047D824002004010020C8240020A6
:1035540030B583B00F4D01212846FEF773FC0E4CA5
:1035640001212046FEF76EFC48238DF80730022324
:103574008DF806304023ADF8043001A92846FEF743
:10358400C5FF0123ADF8043001A92046FEF7BEFFB4
:1035940003B030BD00080140000C014000B583B009
:1035A40002AB03E90300BDF8002004214FF0804082
:1035B400FDF7E2F8BDF8022003214FF08040FDF74B
:1035C400DBF8BDF8042002214FF08040FDF7D4F869
:1035D40003B05DF804FB000070B58AB0FDF79CFBF6
:1035E400314B1C68314BA3FB0434A40C013CA4B242
:1035F4002F4D01212846FEF725FC18238DF827308E
:1036040003268DF826600E23ADF8243009A9284638
:10361400FEF77CFF01214FF08040FEF7DDFA012127
:103624000846FEF7B3FA4FF47A73ADF81C30ADF8E0
:1036340018400024ADF81E40ADF81A4006A94FF01A
:103644008040FEF7A5F802A8FDF7A0FD6023ADF8C1
:1036540008300125ADF80A50ADF81040ADF80E4021
:1036640002AA04214FF08040FEF77AF802AA3146FC
:103674004FF08040FEF774F802AA02214FF0804018
:10368400FEF76EF8ADF80040ADF80240ADF8044026
:103694006B4693E80300FFF781FF29464FF0804013
:1036A400FDF710FD0AB070BD2800002083DE1B4327
:1036B400000801401C4B1A78120212B259780A43CE
:1036C4001A490A809A78120212B2D87802434A80C0
:1036D4001A79120212B2587902438A801A7A1202B3
:1036E40012B2587A0243CA809A7A120212B2D87A73
:1036F40002430A811A7B120212B25B7B13434B8191
:10370400002301E00133DBB2052B0BD8084A32F960
:103714001320002AF6D1054A32F81310044A22F87D
:103724001310EFE7704700BFCC000020C00000205A
:10373400B400002070B5544B1C78631E122B00F2A9
:103744009380DFE803F00A313F4D5B696969696979
:10375400696969696969696969004C494C48FEF796
:10376400B9FD80B9484B1B78A34200F08180484CD6
:103774004FF400712046FEF789FD4FF48061204626
:10378400FEF784FD70BD424DD0212846FEF730FE81
:1037940000212846FEF76AFE00212846FEF78EFE29
:1037A400394B02221A70DDE73A493948FEF792FD97
:1037B4000028D7D03B213648FEF71AFE324B0322AD
:1037C4001A70CFE734493248FEF784FD0028C9D087
:1037D40001212F48FEF772FE2B4B04221A70C1E719
:1037E4002A492B48FEF776FD0028BBD0D121284872
:1037F400FEF7FEFD244B05221A70B3E7274924483F
:10380400FEF768FD0028ADD001212148FEF706FE31
:103814001D4B06221A70A5E721491D48FEF75AFDE3
:1038240000289FD0184D2E78063E1948FEF7CAFD91
:103834001C4B98552B780133DBB22B70132B09D01A
:10384400114B1B78142B8DD1FFF734FF0E4B012243
:103854001A7087E70E4D00212846FEF7DFFD01218F
:103864002846FEF703FEEBE7074B01221A7079E7BF
:1038740006490748FEF72EFD00283FF478AF024BB7
:1038840001221A7073E700BF370000200100030013
:103894000054004082000700840007000200030077
:1038A40040000300CC0000200138094B33F81030ED
:1038B40040F6E44000FB03F0031344F6206000FBF1
:1038C40003F0044BA3FB0030C0F34F30704700BF3C
:1038D400E00000205917B7D170B584B00E461546E4
:1038E4000024ADF80E40FFF7DFFFADF80E0009E04D
:1038F400291900230093FA2289B23046FCF7D6FE38
:103904000134E4B2042C10D8094B33F81420BDF868
:103914000E309BB29A42EBD22919002200927D23E9
:1039240089B23046FCF7C2FEEAE704B070BD00BFBE
:10393400A454000808B500237BB1154A1378013359
:10394400DBB21370072B02D9002313708BB14FF431
:1039540008711048FFF73EFA08BD0F4A32F8130009
:103964000E4951F82320024441F823200133DBB2ED
:10397400E2E70A4951F82320C2F3CF02084820F8AD
:103984001320002241F823200133DBB2DEE700BF1D
:103994009418002000240140E0000020E4000020EE
:1039A400DC0000202DE9F04192B04FF48040FEF796
:1039B4004FFC414F01213846FEF7AAFA3F4C012142
:1039C4002046FEF73FFA3E4D01212846FEF7B8F99E
:1039D4004FF00208ADF844808DF8468000268DF83B
:1039E400476011A92046FEF791FD3846FFF732F9EA
:1039F400344B0093344B01930296012403940496B0
:103A0400802305934FF4806307934FF480730693E8
:103A1400202308934FF4005309930A9669463846C5
:103A2400FFF762F821463846FEF762FF0B968DF8E1
:103A340030408DF831404FF460230D930E968DF88D
:103A44003C400BA92846FFF787FB21462846FFF791
:103A540033FB0723224609212846FFF7E1F9122305
:103A64008DF840308DF841808DF842408DF8434008
:103A740010A8FFF70BFC22464FF408712846FFF705
:103A8400E5FA21462846FFF73DFB2846FFF7C2FA30
:103A94000B48FFF7A1FA0028FAD10948FFF780FA8A
:103AA4000748FFF75FFA0028FAD101210448FFF71D
:103AB4002FFA12B0BDE8F08108000240000C01406A
:103AC400002401404C240140E00000202DE9F04F87
:103AD40099B00138C4B2022C00F2BA800E46B1F596
:103AE400FA7F01D94FF4FA762746904B23F81460F5
:103AF4004FF000088E4B03F804808E4B03F80480CB
:103B0400DFF838924FF4FB6505FB04954FF4FA6235
:103B14004146284601F068FA04224146284601F04D
:103B240063FAB246701C4FF4FB7303FB04000422D7
:103B3400FF2109EB800001F057FA01239E420BD3C9
:103B44004FF4FB7202FB07327B4908787B4901F88A
:103B5400220001339BB2F1E7A4B1012C7BD0022CEB
:103B640076D1774B0393DFF8008200274FF01109D9
:103B7400744E754B02934FF0140BA3F57843803BBE
:103B840001930FE0182303934FF000086F4F4FF099
:103B94000D096F4E6F4B02934FF0A00BA3F57843C2
:103BA400303B019301210846FDF7F0FF0121019804
:103BB400FEF748F901210298FEF7AAF91FB1012185
:103BC4003846FEF71BF9B8F1000F03D00121404637
:103BD400FEF7DAF818238DF85F3003238DF85E3092
:103BE400ADF85CB017A90198FEF790FCDDF808B0B9
:103BF4005846FFF72FF80C960D9510230E930AF1F3
:103C040002039B000F9300231093802211921293BE
:103C1400139314934FF44052159216930CA95846DB
:103C2400FEF762FF8DF82C9002238DF82D300125CC
:103C34008DF82E508DF82F500BA8FFF727FB2A463E
:103C44000A215846FEF706FEAC4213D9022C3FD097
:103C540019B0BDE8F08F182303934FF000083E4FCE
:103C64004FF00F093D4E3E4B02934FF4204B3D4B1A
:103C7400019397E70023ADF818304FF48272ADF842
:103C84001A20ADF81C300225ADF81E500124ADF801
:103C940020404FF40072ADF82220039AADF824209E
:103CA400ADF826304FF6FF73ADF8283006A9384634
:103CB400FDF7AAFE21463846FDF71AFE224629469C
:103CC4003846FDF741FE21463846FDF771FEBFE751
:103CD400039B06930024ADF81C404FF48053ADF8C9
:103CE4001E30ADF82040ADF824400823ADF8223052
:103CF40006A94046FEF7D2F94FF40063ADF8103040
:103D04004FF48073ADF81630ADF81440ADF812409E
:103D140004A94046FDF784F9012280214046FDF7BD
:103D24000FF901214046FDF747F991E7EC00002027
:103D340000010020B0000020360000200C0100200B
:103D4400882A1100044400408000024000300140F1
:103D54000C30014030000240003800400C38004074
:103D640058000240000C01400044004010B5114BC3
:103D74001B6813F4004F0BD00E4B4FF400425A60F3
:103D84000D4B01221A7000210C48FEF7B1FD10BD45
:103D9400084B1B6813F4005FF5D0064B4FF4005238
:103DA4005A60074C206801F009F900232360054A92
:103DB4001370E8E700000240DE24002044000240C3
:103DC400A8000020AC0000202DE9F04104460D4677
:103DD400FCF7C4FA064600283DD0002D6ED0384FBB
:103DE4004FF0680808FB04F808F1400038441C222E
:103DF4002946043001F0EAF895F90C30474487F875
:103E04003430012387F840302878FCF741FA28BB86
:103E14002B4B682202FB0432B2F84E3051880B441B
:103E2400013B9BB2A2F84E30D386928893423DD98F
:103E34002349682303FB0413DA86214A682303FB1E
:103E44000423B3F854201A871D4B682202FB043460
:103E5400002384F841303046BDE8F081786E01F0EB
:103E6400ADF8B7F84800B7F852300221184401F011
:103E74008FF878660023FB86B7F85430114AA2FB0A
:103E840003231B09B7F8522003FB02F3B7F84820B9
:103E9400B3FBF2F1934200D20121094A682303FBE8
:103EA4000423A3F8541001221A87CDE79942C4D9F8
:103EB400034A682303FB0423D986BEE70026CAE726
:103EC40098180020CDCCCCCC70B50546194B187889
:103ED40068BB0C4616469DB100211748FEF708FD45
:103EE4007CB121461448FEF781FC96B9124BDD6083
:103EF4000124104B1C7021460F48FEF7F9FC2046A4
:103F040070BD2B4613F9012B002AEAD00134A4B268
:103F1400F8E70121204601F03BF8084E30602246C4
:103F2400294601F053F83268034BDA60E0E70020D9
:103F3400E6E700BFAC00002044000240A8000020D7
:103F440008B56E4B1B8813F0200F66D06B4B9B8813
:103F5400DBB26B4A13706B4B1B78002B58D1137870
:103F6400443B202B59D8DFE803F03358583D582AF6
:103F7400585849585858215858581B585858585840
:103F84005858585858585811585815005E48FFF753
:103F9400D7F942E0002211465C48FFF795FF3CE068
:103FA4000323584A13705A4A137036E00023584AC0
:103FB4001370544A01211170564A13702DE00123E5
:103FC400534A13704F4A1370524B00221A7024E064
:103FD4004F4B02221A704B4B01221A704D4B002298
:103FE4001A701AE04A4B04221A70464B03221A70C4
:103FF400002211464848FFF767FF0EE0444B0522B4
:104004001A70404B01221A70424B00221A7004E0CD
:104014003C4B1B78DBB2012B00D008BD3C4B1B781A
:10402400DBB2052BF9D801A252F823F0494000086D
:1040340077400008A54000081F4000081F40000802
:10404400D3400008334B1B782D490A78D2B2334849
:10405400C2540A78D2B20A2A01D00A782AB92F4A5D
:104064000021D154274A032111700133294A1370C6
:10407400D3E7284B1B7822490A78D2B22748C25486
:104084000A78D2B20A2A01D00A782AB9234A00212E
:10409400D1541C4A0321117001331E4A1370BCE72A
:1040A4001C4B1B7816490A78D2B21C48C2540A78B1
:1040B400D2B20A2A01D00A782AB9184A0021D15466
:1040C400104A032111700133124A1370A5E7114BF2
:1040D4001B780B490A78D2B21048C2540A78D2B27B
:1040E4000A2A01D00A7822B900220C49CA54054987
:1040F4000A700133074A13708FE700BF003801408C
:10410400DF240020F4240020405400084854000810
:10411400DD240020F8000020F8240020E024002002
:104124002DE9F04781460C46FCF718F98246002831
:1041340000F09080002C00F0A680C846682000FBA8
:1041440009F01030514B18441C222146043000F071
:104154003DFF03262DE0002700E000272079E378C7
:10416400C01A00F011FFB0FBF5F0C0B2474A682353
:1041740003FB0823187320B92279E3789A4200D00C
:104184005746A0796379C01A00F0FEFEB0FBF5F043
:10419400C0B23E4A682303FB0823587328B9A279A6
:1041A40063799A4201D0574600E00FB10136B6B2A6
:1041B400D7B1A56806EB86029300B5FBF3F5A078AA
:1041C4006378C01A00F0E0FEB0FBF5F0C0B22F4AED
:1041D400682303FB0823D8720028BED1A278637831
:1041E4009A42B8D05746B9E7284A682303FB092303
:1041F4001E841E8294F90E30B3F1FF3F2DD06278F5
:104204002249682303FB09131A72E2785A7262790D
:104214009A7294F90E201D49682303FB09139A73BB
:104224001B6B0022A3FB051313BB1AB3174A6823A5
:1042340003FB092300229A62144B682202FB09390A
:10424400D9F82830C9F83030012389F81230002316
:1042540089F813305046BDE8F087A2780B496823EB
:1042640003FB09131A7222795A72A2799A72D0E75F
:104274000122DAE7236905FB03F5044A682303FBFB
:1042840009239D62D8E74FF0000AE3E7981800205D
:104294002DE9F041244D2D781D2D3CD891423CD878
:1042A4001F4616460D460446FCF7F8F8002837D09A
:1042B40031462046FCF7F2F8002833D01A4A92F827
:1042C40000801A48682303FB08F3C118C4544D80C6
:1042D4008E8008F10103137006994046FFF720FF12
:1042E40028B9124A682303FB082300229A740E4B50
:1042F400187801383946C0B2FFF766FD30B90B4B68
:10430400682202FB0838002388F84030064B1878EE
:104314000138C0B202E01F2000E01F20BDE8F08198
:104324001F20FBE71F20F9E7F20000209818002067
:1043340010B5044600F014FF013401386FF0004357
:10434400B3FBF4F3B0FBF3F010BD00002DE9F04F24
:104354008BB0044601238DF82730FBF7FFFF10B91B
:104364000BB0BDE8F08F2646BA4A682303FB04F37A
:1043740003F1080102EB010BD118B1F80280B1F886
:104384000490D05C0790B1F84C70B1F84A0007442F
:10439400BFB2B1F848502F44BFB2B1F852100D4427
:1043A400ADB203F138001044FBF77AFF00284CD07B
:1043B400A84A682303FB042393F84400022810D07E
:1043C40048B301284ED0FBF763FF0028C8D0A14AA8
:1043D400682303FB04239B7C002B67D14FF0000A66
:1043E40062E04FF0680A0AFB042ABAF852109AF9FC
:1043F40034000DF1270300934B46424600FB01F1C4
:10440400BAF83600FCF7D3F9AAF836009DF827303D
:104414008AF8343012E08F4B4FF0680A0AFB043AF2
:10442400BAF852109AF934004B46424600FB01F1A7
:10443400BAF83600FCF7DCF9AAF83600854A682396
:1044440003FB0423B3F854201A87824A682303FB2E
:10445400042393F84400FBF71BFF002840F0FC8082
:104464000024ADE17B4A682303FB0423D88EB3F810
:10447400522093F9341089B201FB0202DA86DDE797
:10448400744A682303FB06235A6E32F81A1093F811
:104494005C3001930022009213462046FCF798F802
:1044A4000AF1010A1FFA8AFAAA45E9D3694A68237C
:1044B40003FB0423DB8EAB4208D3682303FB0423F2
:1044C40093F84430042B0BD0052B17D0614A682392
:1044D40003FB0423DB8EAB42B0D24FF0000A5DE055
:1044E4004FF0680A0AFB042A6A000021DAF8640023
:1044F40000F07AFD0023AAF83630E7E7554A68232E
:1045040003FB0423DD86012283F84120DEE7A9EBC7
:104514000800FFF70DFF80B24E4A682303FB062311
:104524005A6EDB8E013022F8130050E0682303FB3F
:1045340006230122DA8653E0072B18D0454A682364
:1045440003FB0423DD86434A682303FB042393F817
:104554004430072B66D03F4A682303FB0423002220
:1045640083F8602083F8612083F8622066E76A1E7E
:104574003849682303FB0413DA86FF2283F83420C6
:10458400E1E73BB9334A682303FB062393F844303D
:10459400072B40D00AF1010A1FFA8AFA2D4A682330
:1045A40003FB0623B3F852305345CCD9294A682378
:1045B40003FB062393F93430B3F1FF3FA7D16823FB
:1045C40003FB06235A6EDB8E002122F81310214AC6
:1045D400682303FB06235B6B23F47F43FF2BA5D0E7
:1045E4001C4B682202FB0632D38E92F9341089B236
:1045F4000B449BB2D386AB42C3D3164A682303FB56
:10460400062393F84430062B96D1682303FB062334
:104614000022DA86BEE7682303FB0623012283F81F
:104624003420B7E7682303FB042393F93430B3F150
:10463400FF3F90D1682303FB042393F8452083F8BC
:10464400602093F8462083F8612093F8472083F88C
:104654006220F3E698180020984B682707FB04377C
:1046640097F9348097F84520B7F8549000920023C6
:1046740092FBF9F2414697F86000FCF7C7F887F817
:10468400600097F846200092002392FBF9F241461D
:1046940097F86100FCF7BAF887F8610097F84720AB
:1046A4000092002392FBF9F2414697F86200FCF76E
:1046B400ADF887F86200FF8EBD4229D84FF000089C
:1046C4004AE06F1EBFB27D4B682202FB0632536E76
:1046D40033F8171092F8623092F85C00019000935E
:1046E40092F8613092F860202046FBF771FF08F1E0
:1046F40001081FFA88F8714A682303FB0623B3F8FC
:1047040052304345DAD9002FDBD0013FBFB2DAE79C
:104714004FF00008EFE76F1EBFB2684A682303FB3F
:1047240006235B6E33F8171000293FF419AE1346C5
:10473400682202FB063292F8473092F85C0001903E
:10474400009392F8463092F845202046FBF740FF4C
:1047540008F101081FFA88F8584A682303FB062366
:10476400B3F8483043457FF6FBAD002FD3D0013F6B
:10477400BFB2D2E7682000FB062090F9341001FB99
:1047840004F1002300934B4642464942C08EFCF795
:104794000EF805B20EE0494B682000FB063090F994
:1047A400341001FB04F14B4642464942C08EFCF7EB
:1047B4001FF805B2454501DB4D4559DD0134A4B26E
:1047C400BC42BFF4CDAD3D4A682303FB062393F8F6
:1047D4004430022BCED0002BDDD0012B7FF4C0ADB2
:1047E400364A682303FB0623DD8E93F9343003FB3A
:1047F40014552DB27A1E9442DCDB012B1DD0B3F18B
:10480400FF3FD7D14545D5DA2C48682303FB06F38F
:10481400C218A2F83690383318440430FBF74CFD24
:104824000028C7D0254A682303FB0623012283F806
:104834004120002283F84020BCE74D45DFDD1F48BE
:10484400682303FB06F3C218A2F8368038331844F1
:104854000430FBF731FD0028ACD0184A682303FB71
:104864000623012283F84120002283F84020A1E797
:1048740004F1010A1FFA8AFA012251465846FBF74D
:1048840026FD0590022251465846FBF720FD06906E
:10489400032251465846FBF71AFD01230293074AA7
:1048A400682303FB062393F85C3001930090069B76
:1048B400059AA9B20798FBF74FFE7FE798180020E6
:1048C4002DE9F04186B0002305930493404B1A6808
:1048D400404B1B689A4202D806B0BDE8F081FF2025
:1048E400FBF71CFE0028F7D1394B1B680533394A06
:1048F4001360394B1B78394A157805EB9305EDB2F3
:104904000135EDB232E0682303FB04F310330846AB
:104914001844FBF7C5FC88B9314A682303FB042318
:104924005A7A997A93F82C000290019100921B7A9A
:104934003A4631464046FBF7EBFE30E0274B187809
:10494400FBF778FF264A682303FB04231A8C1A8298
:10495400E2E7224B1878FFF7F9FCFCF755F9059BC1
:10496400C01A04901D4A1378013313701B4B1C7832
:104974002046FBF7F3FCD8B1AC4219D2FCF744F95A
:104984000590164B1C781649682303FB04F3CA18D8
:104994005688978811F80380937C002BB3D1104B71
:1049A400682202FB043494F84030002BD5D0D0E7C1
:1049B4000C4A13780133DBB21370032B8CD9FF201C
:1049C400FEF742F80023074A1370044A137083E782
:1049D400D824002008010020F2000020F300002069
:1049E40098180020E800002008B5114B1B78E3B9A3
:1049F4000F4B01221A700F4B1B7883B1934211D0D5
:104A04000C4A13780133DBB21370032B02D913461B
:104A140000221A70064B00221A70012008BDFFF70D
:104A24004FFFEDE7FEF730FDEAE70020F6E700BFB1
:104A3400F9000020DC24002070B58AB00D46072858
:104A440010D008281ED0062820D800EBC000830010
:104A540001AE144C1C440FCC0FC60FCC0FC62368F8
:104A6400336013E00620FFF763FC00EBC000830013
:104A740001AE0C4C1C440FCC0FC60FCC0FC62368E0
:104A8400336003E00023029304930693029B9B0884
:104A94006B70049B9B08AB70069B9B08EB700AB081
:104AA40070BD00BFB054000870B58AB00C4607282A
:104AB40010D008281ED0062820D800EBC0008300A0
:104AC40001AE1C4D1D440FCD0FC60FCD0FC62B6874
:104AD400336013E00620FFF72BFC00EBC0008300DB
:104AE40001AE144D1D440FCD0FC60FCD0FC62B685C
:104AF400336003E00023029304930693029AC2F303
:104B04008702A2700C49A1FB023252086270049A17
:104B1400C2F387022271A1FB02325208E270069BA3
:104B2400C3F38703A371A1FB03235B0863710AB07A
:104B340070BD00BFB0540008ABAAAAAA2DE98048F2
:104B440091B0FCF7E9F8FDF775FAFEF701FDFEF701
:104B540029FFFEF741FD8C210120FEF7B7FF042059
:104B6400FBF76CFDFF20FDF76FFF09A90220FFF79B
:104B740063FF00270E970523ADF82C30ADF82A30DB
:104B84000F23ADF8283001268DF82460ADF8346089
:104B94000225ADF832508DF83060ADF82E6002ACCD
:104BA40021460620FFF780FF06978DF808504FF046
:104BB400FF088DF816804FF42F7304930420FBF73D
:104BC4003DFD009409AB2D2229463046FFF760FBDA
:104BD400AC4B1870009409AB85225A213046FFF77C
:104BE40057FBA94B18708DF830806423ADF82E3034
:104BF400009409AB59222E213046FFF749FBA34B01
:104C040018700425BA46072476E00123ADF8343041
:104C14004FF42F7304937AE0012609E0002402A9DB
:104C24000620FFF741FF09A90220FFF705FF01262F
:104C3400DFF8509202A999F80000FFF771FADFF843
:104C44004C8202A998F80000FFF76AFA8E4F02A975
:104C54003878FFF765FA01238DF83030ADF82E303F
:104C640009A999F80000FFF7AFF809A93878FFF708
:104C7400ABF8FF238DF830306423ADF82E3009A94A
:104C840098F80000FFF7A0F8314699F80000FBF708
:104C9400E7FB314698F80000FBF7E2FB3146387831
:104CA400FBF7DEFB0A2C00F0B98000274FF47A7181
:104CB4000120FEF7C3FB38B10135EDB20F2D00D949
:104CC40000252846FBF7BAFC0220FEF7A1FB0028CA
:104CD40040F0B7800220FEF791FB002840F0C98025
:104CE40042F210710220FEF7A9FB8046002840F032
:104CF400C480092C00F0CE80FFF776FE0120FEF779
:104D04007DFB08B9002FD1D0092C3FF47EAF0134CC
:104D1400E4B20B2C82D80C2C3FF67EAF01A353F8DF
:104D240024F000BF234C00085D4D0008854D0008A9
:104D3400994D0008714D0008AD4D0008B94D0008AB
:104D4400C54D0008DD4D0008D14D00081D4C00087C
:104D5400F14D00081B4E000802A90120FFF7A4FE34
:104D640009A90220FFF768FE012661E702A90220D3
:104D7400FFF79AFE09A90520FFF75EFE012657E713
:104D840002A90420FFF790FE09A90220FFF754FEB0
:104D940001264DE702A90220FFF786FE09A900209B
:104DA400FFF74AFE012643E702A90120FFF77CFE34
:104DB40000263DE702A90220FFF776FE002637E72A
:104DC40002A90420FFF770FE002631E70123ADF8A5
:104DD40034304FF49673049302A90720FFF764FE5E
:104DE40009A90720FFF728FE012621E700238DF8F3
:104DF40009308DF80A308DF80B308DF80C308DF8B1
:104E04000D308DF80E308DF825308DF826308DF864
:104E1400273001260CE70126002409E7002199F830
:104E24000000FBF71DFB002199F80000FBF708FBCD
:104E3400174B1A8899F800100120FEF74DFD002742
:104E440034E705EB4500C0B2FBF7F8FB012211463D
:104E54000C4B1878FBF78CFA012211460B4B18788F
:104E6400FBF786FA01221146074B1878FBF780FA04
:104E740030E72846FBF7E2FB32E72846FBF7DEFB88
:104E8400474636E79518002097180020961800200A
:104E940034000020274B1B6853457FF62DAF254B6C
:104EA4001B6803F5967A02A90720FFF7FDFD09A9FF
:104EB4000720FFF7C1FDDFF880B002A99BF80000CE
:104EC400FFF72EF9DFF8749002A999F80000FFF7B4
:104ED40027F9DFF86C8002A998F80000FFF720F9A1
:104EE40001238DF83030ADF82E3009A99BF800006D
:104EF400FEF76AFF09A998F80000FEF765FFFF2393
:104F04008DF830306423ADF82E3009A999F80000EB
:104F1400FEF75AFF31469BF80000FBF7A1FA314631
:104F240099F80000FBF79CFA314698F80000FBF76B
:104F340097FAE1E6D824002095180020961800205E
:104F44009718002008B503460C4A12685AB10B4A58
:104F54001068033323F003030344094A934206D839
:104F6400064A136008BD054A06491160EFE700F0E0
:104F740017F80C2303604FF0FF30F3E7F400002030
:104F8400004C0020482500200028B8BF404270474C
:104F9400024B0A460146186800F02EB83C00002077
:104FA400014B1868704700BF3C000020024B0146CB
:104FB400186800F07BB800BF3C000020024B01469B
:104FC400186800F027B800BF3C0000200A44914252
:104FD40000F1FF3300D1704710B511F8014B914235
:104FE40003F8014FF9D110BD03460244934200D1A6
:104FF400704703F8011BF9E738B502FB01F42146B9
:1050040000F054F8054618B122460021FFF7ECFFE2
:10501400284638BD38B50546002943D051F8043C2C
:105024000C1F002BB8BFE41800F0DEF81E4A13680A
:10503400104633B9636014602846BDE8384000F078
:10504400D9B8A3420BD921686218934201BF1A68E8
:105054005B685218226063600460EDE713465A6887
:105064000AB1A242FAD919685818A0420BD1206893
:105074000144581882421960DED110685268014414
:1050840019605A60D8E702D90C232B60D4E7206852
:1050940021188A4201BF11685268091821606260B0
:1050A4005C60C9E738BD00BF2C250020F8B5CD1CD5
:1050B40025F0030508350C2D38BF0C25002D0646B8
:1050C40001DBA94203D90C2333600020F8BD00F0B2
:1050D4008BF821490A6814469CB9204F3B6823B9D0
:1050E4002146304600F070F838602946304600F01A
:1050F4006BF8431C23D10C233046336000F07AF85C
:10510400E3E723685B1B17D40B2B03D923601C44F0
:10511400256004E06368A2420CBF0B605360304614
:1051240000F068F804F10B00231D20F00700C21AF8
:10513400CCD01B1AA350C9E722466468CCE7C41C30
:1051440024F00304A042E3D0211A304600F03CF8D6
:105154000130DDD1CFE700BF2C2500203025002011
:10516400134B10B51C68A36B7BB91820FFF71EFF07
:10517400104A114BA063C0E90023104B0122836045
:105184000B2383810023C0E90423A16B0C480A6923
:105194004B6950430B4C04FB0300A2FB04345A1C20
:1051A400044444F10000C1E9042020F0004010BD93
:1051B4003C0000200E33CDAB34126DE6ECDE05006E
:1051C4002DF451582D7F954C38B50023054C0546D8
:1051D40008462360FFF7B6FE431C02D1236803B1DF
:1051E4002B6038BD34250020014800F009B800BF09
:1051F4003C250020014800F004B800BF3C250020F5
:10520400704770472E2E2F6C65645365676D656E0D
:10521400742F73746D33327574696C732F7379736F
:1052240074656D2F7372632F73746D333266312D11
:105234007374647065726970682F73746D33326649
:105244003130785F6164632E630000002E2E2F6C72
:1052540065645365676D656E742F73746D33327551
:1052640074696C732F73797374656D2F7372632F04
:1052740073746D333266312D737464706572697042
:10528400682F73746D3332663130785F646D612ECC
:10529400630000002E2E2F6C65645365676D656E88
:1052A400742F73746D33327574696C732F737973DF
:1052B40074656D2F7372632F73746D333266312D81
:1052C4007374647065726970682F73746D333266B9
:1052D4003130785F6770696F2E6300002E2E2F6C5B
:1052E40065645365676D656E742F73746D333275C1
:1052F40074696C732F73797374656D2F7372632F74
:1053040073746D333266312D7374647065726970B1
:10531400682F73746D3332663130785F6932632E6F
:10532400630000002E2E2F6C65645365676D656EF7
:10533400742F73746D33327574696C732F7379734E
:1053440074656D2F7372632F73746D333266312DF0
:105354007374647065726970682F6D6973632E630A
:10536400000000002E2E2F6C65645365676D656E1A
:10537400742F73746D33327574696C732F7379730E
:1053840074656D2F7372632F73746D333266312DB0
:105394007374647065726970682F73746D333266E8
:1053A4003130785F7263632E630000002E2E2F6C01
:1053B40065645365676D656E742F73746D333275F0
:1053C40074696C732F73797374656D2F7372632FA3
:1053D40073746D333266312D7374647065726970E1
:1053E400682F73746D3332663130785F7370692E51
:1053F400630000002E2E2F6C65645365676D656E27
:10540400742F73746D33327574696C732F7379737D
:1054140074656D2F7372632F73746D333266312D1F
:105424007374647065726970682F73746D33326657
:105434003130785F74696D2E6300000048656C6CD0
:105444006F210A00444D41207465737420747261A5
:105454006E736665720A00002E2E2F6C65645365A8
:10546400676D656E742F73746D33327574696C7304
:105474002F73797374656D2F7372632F73746D3327
:105484003266312D7374647065726970682F737439
:105494006D3332663130785F75736172742E6300D8
:1054A400E40CAC0D740E3C0F04100000000000006E
:1054B400F4010000000000000000000000000000F3
:1054C400F4010000E80300000000000001000000F7
:1054D400000000000000000000000000F4010000D3
:1054E40000000000F4010000E803000000000000D8
:1054F400010000000000000058020000000000004D
:10550400900100000000000000000000E80300001B
:10551400000000000100000000000000F401000091
:1055240000000000F401000000000000F40100008D
:10553400E80300000000000001000000000000007B
:10554400F401000000000000000000000000000062
:1055540000000000E803000000000000010000005B
:10556400000000000000000000000000F401000042
:105574000000000000000000E8030000000000003C
:105584000100000000000000000000000000000016
:105594000000000000000000F4010000E803000027
:0855A4000000000001000000FE
:1055AC0078563412020406080000000000000000C7
:1055BC0001020304060708090000000001020304AD
:1055CC00010203040607080900A24A04FC0000209B
:1055DC00000000002800FF014800000040000020EF
:1055EC0000000000000000000000000000000000AF
:1055FC00000000000000000000000000000000009F
:10560C00000000000000000000000000000000008E
:10561C00000000000000000000000000000000007E
:10562C00000000000000000000000000000000006E
:10563C00000000000000000000000000000000005E
:04564C0032547698C6
:040000050800016D81
:00000001FF
