:020000040800F2
:1000000000500020590200085D0100084901000865
:1000100045010008310100081D0100080000000032
:1000200000000000000000000000000019010008AE
:100030001501000800000000110100086D0D000806
:100040000D0100080D0100080D0100080D01000858
:100050000D0100080D0100080D0100080D01000848
:100060000D0100080D0100080D0100080D01000838
:100070000D01000841310008C54A0008FD300008A4
:100080000D010008B9300008BD4500080D01000849
:100090000D0100080D0100080D0100080D01000808
:1000A0000D0100080D0100080D0100080D010008F8
:1000B0000D0100080D0100080D010008E5420008CF
:1000C0000D0100080D0100080D0100080D010008D8
:1000D0000D010008C54C00080D0100080D010008C5
:1000E0000D0100080D0100080D01000800000000CE
:1000F0000000000000000000000000000000000000
:1001000000000000000000005FF808F100BEFEE7FC
:1001100000BEFEE700BEFEE700BEFEE71EF0040FD5
:100120000CBFEFF30880EFF3098071464C4A10478B
:100130001EF0040F0CBFEFF30880EFF30980714647
:10014000484A104700BEFEE71EF0040F0CBFEFF355
:100150000880EFF309807146434A104700BEFEE76E
:1001600000BEFEE700BEFEE700BEFEE700B583B0BE
:1001700000F028FF284B294A1360294A1360294BB5
:10018000294A03E052F8041B43F8041B27498B4219
:10019000F8D3224B1A68264B9A4200D0FEE7204B38
:1001A0001A68244B9A42F9D11B4B234A1360234A05
:1001B0001360234B02E0002243F8042B214A9342B0
:1001C000F9D31D4B1B6813B91C4B1B6803B1FEE729
:1001D00000F0F4FE694601A800F000FF1A4C1B4B2A
:1001E000E41AA410002504E0184B53F82530984772
:1001F0000135AC42F8DC164C164BE41AA41000256D
:1002000004E0144B53F8253098470135AC42F8DC34
:100210000099019805F066FFBABADECA0000002016
:10022000B40000200000002064790008B80000201D
:100230007856341232547698B800002030260020C8
:10024000B800002034260020940200089402000820
:10025000940200089402000808B5FFF787FF000029
:0C02600061010008650100086901000848
:10026C006479000800000020B800002064790008C0
:10027C000000000000000000B80000203426002020
:08028C0000000000000000006A
:100298000438C0B2032801D80120704700207047F5
:1002A80003882BB1013B9BB223B103800020704728
:1002B8000020704701207047036823B1013B04D038
:1002C800036000207047002070470120704770B419
:1002D800B0F842508D4206D2B0F840302B449942D3
:1002E80014DC012400E00024022A15D0032A17D0C8
:1002F800012A0DD000221346012C04D066B29EB10B
:10030800022C1AD00023184670BC70470224EBE771
:1003180090F83D300278EFE790F83E304278EBE70E
:1003280090F83F308278E7E79B1A03FB01F393FBD1
:10033800F5F3DBB21344DBB2E5E7491BB0F8404004
:10034800091B01399A1A02FB01F2B0F8441092FB1A
:10035800F1F2D2B29B1ADBB2D5E70000054B1B784D
:10036800834203D8FF2803D000207047012070473C
:1003780001207047120100202DE9F041054688460A
:100388001646FFF7EBFF0746002845D0FF2D46D05D
:10039800B8F1000F1BD0344A682303FB052393F9F7
:1003A8002230012B48D0304A682303FB05239A7D6D
:1003B8001A721A7E5A729A7E9A72FF229A732A4A7F
:1003C800682303FB05230022DA749A6A1A631EB3B2
:1003D800254A682303FB0523002283F8412093F96B
:1003E8005030012B34D0204A682303FB05239A8818
:1003F800DA86FF2283F834201B4A682303FB05238F
:1004080093F84400FFF744FF074658B3164B682299
:1004180002FB05350023EB863846BDE8F081002451
:10042800124B1B78A342B3D9324641462046FFF708
:10043800A3FF0134E4B2F3E7682303FB05235A7DE5
:100448001A72DA7D5A725A7E9A7201229A73B6E744
:10045800054A682303FB05235A88DA86012283F8B4
:100468003420C9E73746D7E7781900201201002061
:10047800F8B505460E46FFF771FF074630B1FF2D68
:1004880006D0094B682202FB0535AE743846F8BD24
:100498000024064B1B78A342F3D931462046FFF7C8
:1004A800E7FF0134E4B2F4E77819002012010020D4
:1004B800F8B505460E46FFF751FF074638B1FF2D40
:1004C80007D00A4B682202FB053585F8406038469C
:1004D800F8BD0024064B1B78A342F2D931462046CA
:1004E800FFF7E6FF0134E4B2F4E700BF7819002013
:1004F80012010020FF2805D00138C0B2022803D815
:1005080001207047012070470020704738B5044625
:100518000D46FFF7EFFF034630B1013C054A32F8BC
:100528001420AA4202D31DB1184638BD0023FBE7A8
:100538000023F9E70C010020F8B504460D461646DD
:100548001F46FFF7E3FFE0B10146013CE4B24FF478
:10055800FB7303FB04520C4B03EB8203DB78B342BF
:1005680010D1094B03EB82039B78BB420AD1064D9D
:1005780005EB820462789DF818309A4202D1002176
:1005880000E001210846F8BDD0010020FF280BD06B
:1005980010B50446FFF7AEFF024618B1601E094BBE
:1005A8001A5CD2B2104610BD0023022B07D8054AA8
:1005B800D15C01F0FF0219B90133DBB2F5E7002283
:1005C80010467047C00000202DE9F04383B08146F3
:1005D8000D4690461F469DF828609DF82C409DF8D2
:1005E800303023B900963B46FFF7A6FFF8B909F16A
:1005F800FF30C0B24FF4FB7303FB00520D4B03EB0B
:10060800820383F803809F705E70631EDBB21E2B2B
:1006180001D9094B1C784FF4FB7303FB005564F0B8
:100628001F04044B03F82540044B01221A5403B05D
:10063800BDE8F083D00100203A000020B40100207A
:100648002DE9F04184B006460D4617469846FFF757
:1006580085FE044618B30DB3134B682202FB06321D
:10066800938852889B1A01339D4201DD002416E0CD
:10067800511989B20139682303FB06F60123029355
:100688009DF82C3001939DF82830009343463A4654
:1006980089B20548805DFFF797FF00E000242046F7
:1006A80004B0BDE8F08100BF781900201F2800D9E8
:1006B8001F2060F01F00014B187070473A0000209F
:1006C8002DE9F04182B00446884617461E469DF83B
:1006D80020509DF8243023B900953346FFF72CFFAE
:1006E80090B9601EC0B20A4A4FF4FB7101FB008149
:1006F80002EB8103DF709E705D70064B1B7802F879
:100708002130054B01221A5402B0BDE8F08100BF28
:10071800D00100203A000020B40100202DE9F0416A
:1007280082B006460D4617469846FFF717FE044660
:1007380000B3F5B1114B682202FB06329388528848
:100748009B1A01339D4201DD002413E0511989B23F
:100758000139682303FB06F6012301939DF8203035
:10076800009343463A4689B20448805DFFF7A8FFE4
:1007780000E00024204602B0BDE8F081781900208E
:100788002DE9F04784B082460C46174698469DF8F6
:1007980030909DF834609DF83850FFF7B7FE20B1CF
:1007A80039465046FFF7B2FE80B904B0BDE8F0877D
:1007B80001230293019500964B4642462146504636
:1007C800FFF702FF0134A4B2A742EED36B1EDBB2DF
:1007D8001E2BEDD90123019300964B464246214634
:1007E8005046FFF76DFFEDE7013903290FD8DFE821
:1007F80001F00205080B92B28286704792B2028716
:10080800704792B28287704792B2A0F84020704732
:100818004FF08043002200E09B0833B1D118520802
:100828008842F9D3401A1A44F6E710467047002860
:1008380001DB012070474FF0FF3070472DE9F04190
:1008480080460C4616461D46069F0846FFF7EFFFF2
:10085800444407E0AC4203DDC4EB45044FF0FF30ED
:10086800B44208DBAC42F5DCB442F3DB07B13870C4
:100878002046BDE8F081C4EB46040120F2E710B43D
:100888009C1A0844904203DA20440130FAE7001B1E
:100898005A1C8242FBDB10BC7047904202D2B1F175
:1008A800FF3F07D002FB0100009A904204D898420B
:1008B80004D3704700207047009870471846704767
:1008C8002DE9F04782B00446FFF748FD002800F004
:1008D800B881BE4A682303FB0423997E5A7E91425D
:1008E80000F0A8800326B948682303FB04039D7C15
:1008F800002D00F0A6810346682000FB0430437DEC
:1009080090F816C0634500F2A1800027DFF8BCE22A
:10091800682000FB04E090F817E0007E864500F2AE
:1009280097804FF000099142C0F094804FF0000A80
:10093800002F00F09180A54A4FF0680808FB0428B2
:1009480098F80E1049420093634698F80B2049B274
:1009580098F80800FFF7A1FF88F80800B9F1000F20
:1009680000F08C80994B4FF0680808FB043898F821
:100978000E10494298F81730009398F8183098F8F4
:100988000C2049B298F80900FFF787FF88F809009A
:10099800BAF1000F00F087808C4B4FF0680808FB15
:1009A800043898F80E10494298F81930009398F8CE
:1009B8001A3098F80D2049B298F80A00FFF76DFF31
:1009C80088F80A00032E00F08380022E00F0AE8023
:1009D8007E4A682303FB04239A7D5B7D9A4200F0DC
:1009E800F7803FB17948682101FB0401097A8A42FE
:1009F80080F007813FB97548682101FB0401097A35
:100A08008A4240F201813FB17049682202FB041218
:100A1800127A934240F2FB80002F40F0FB806B4932
:100A2800682202FB0412127A934280F0F780BA46D9
:100A38003D46D0E06548682303FB0403187EDB7D50
:100A4800984201D002264EE701264CE72F465DE783
:100A5800A94668E7AA466BE75C4A4FF0680808FBB6
:100A68000428CDF800C098F80B2098F90E1098F8D3
:100A78000800FFF712FF88F808006FE7534B4FF0A4
:100A8800680808FB043898F81830009398F817306D
:100A980098F80C2098F90E1098F80900FFF7FDFE59
:100AA80088F8090074E7494B4FF0680808FB0438D8
:100AB80098F81A30009398F8193098F80D2098F99A
:100AC8000E1098F80A00FFF7E8FE88F80A0079E7A0
:100AD800BAF1000F07D03D4A682303FB04239A7A32
:100AE8009B7E9A4251D9BAF1000F07D1374A682341
:100AF80003FB04239A7A9B7E9A4248D2BAF1000FEC
:100B080007D0324A682303FB04239A7A5B7E9A4211
:100B180041D2BAF1000F41D12C4A682303FB0423C8
:100B28009A7A5B7E9A423DD9554654E0B9F1000F56
:100B380007D0264A682303FB04235A7A1B7E9A426D
:100B480033D9B9F1000F07D1204A682303FB0423E6
:100B58005A7A1B7E9A422BD2B9F1000F07D01B4A52
:100B6800682303FB04235A7ADB7D9A4223D2B9F126
:100B7800000F23D1154A682303FB04235A7ADB7D2F
:100B88009A421FD9CA464D4625E0002523E02B4648
:100B980055469A461FE04FF0000A1CE04FF0000A45
:100BA800554618E04FF0000A15E0CA46002512E045
:100BB800AA464D460FE04FF0000A0CE04FF0000A3D
:100BC800554608E04FF0000A05E000BF78190020FC
:100BD8004FF0000A55462E4A682303FB04231B6B7B
:100BE800FBB92B4A682303FB04231B7D012B35D952
:100BF800022B26D145B3682303FB04240123A373E6
:100C08001FE0BA460025E6E7AA463D46E3E74FF06F
:100C1800000AE0E74FF0000A5546DCE74FF0000A0B
:100C2800D9E7682303FB04F3303310461844FFF771
:100C380043FB0028D5D0164A682303FB042401236C
:100C4800E37402B0BDE8F087BAF1000FF9D0104A9A
:100C5800682303FB0424FF23A373F2E755B10C4A6E
:100C6800682303FB0424A37D2372237E6372A37E7F
:100C7800A372E6E7BAF1000FE3D0054B682202FB46
:100C88000434637D2372E37D6372637EA372D8E7C5
:100C98007819002010B472B6084B9C68084B186885
:100CA80062B64FF47A72074B196802FB01F31B1BFB
:100CB800B3FBF1F302FB003010BC704710E000E01A
:100CC800C42500204800002010B483B000BF1D4B8D
:100CD8009B6801931C4B1C681C4B1968631A019A8A
:100CE800934212D2019300230093B0F57A7F11D971
:100CF800144B9A68019B9A42FAD3124B9A68019B4B
:100D08009A42FAD8A0F57A70EFE7019B9942EAD99E
:100D18000191E8E70B4B9B6800FB11310091009BA8
:100D28009C4207D2009B1C440094064B9A68009B87
:100D38009A42FAD3034B9A68009B9A42FAD803B0B6
:100D480010BC704710E000E04C0000204800002074
:100D5800034B1B681844024B1B688342FBD3704744
:100D6800C4250020024A136801331360704700BF8E
:100D7800C4250020837813B1014B1B68836070473A
:100D8800C4250020837863B1074A12688A4207D3D2
:100D9800054A1268511A8268914202D8002300E07D
:100DA80000231846704700BFC4250020A9B1037866
:100DB8004278934201D20133037003784278934218
:100DC80011D3837833B9012303710023C3700C4B0B
:100DD8001B6883600123837070470378002BECD075
:100DE800013B0370E9E753B9837833B100230371FA
:100DF8000123C3704FF0FF33836000238370704773
:100E0800C425002082B00023019300932C4A136864
:100E180043F4803313602A4B1B6803F400330093B8
:100E2800019B01330193009B1BB9019BB3F5A06F94
:100E3800F1D1234B1B6813F4003F06D00123009324
:100E4800009B012B04D002B0704700230093F7E702
:100E58001C4B1A6842F010021A601A6822F003024A
:100E68001A601A6842F002021A60A3F580535A68A1
:100E78005A605A685A605A6842F480625A605A68DE
:100E880022F47C125A605A6842F4E8125A601A68CE
:100E980042F080721A600A4B1B6813F0007FFAD088
:100EA800074B5A6822F003025A605A6842F002025D
:100EB8005A60034B5B6803F00C03082BF9D1C2E7B7
:100EC800001002400020024008B5FFF79BFF08BD54
:100ED8001F4B5B6803F00C03042B15D0082B17D0AD
:100EE8001BB11C4B1C4A1A6002E01A4B1A4A1A60C2
:100EF800174B5B68C3F30313184AD35CDAB215497E
:100F08000B68D3400B607047124B134A1A60EFE727
:100F18000F4A53685268C3F38343023312F4803F85
:100F280005D10F4A02FB03F30A4A1360E0E7084AB7
:100F3800526812F4003F05D0094A02FB03F3054A40
:100F48001360D5E7044A02FB03F3024A1360CFE7B4
:100F5800001002402800002000127A00080000203B
:100F680000093D0008B5104B1A6842F001021A60EA
:100F780059680E4A0A405A601A6822F0847222F4AC
:100F880080321A601A6822F480221A605A6822F4A1
:100F9800FE025A604FF41F029A60FFF795FF044B58
:100FA8004FF000629A6008BD001002400000FFF890
:100FB80000ED00E008B5FFF78BFF08BD08B5FFF7A7
:100FC800D1FF024A024B9A6008BD00BF000000082A
:100FD80000ED00E001230360014B0B60704700BF88
:100FE80030000020FEE708B50120FFF7FBFF08B539
:100FF800FFF7F9FF38B505460C46274B984214D041
:10100800A3F57443984210D003F5806398420CD03E
:1010180003F58063984208D003F58063984204D0B2
:1010280040F286311D48FFF7E2FF012C13D0802CD7
:1010380011D0402C0FD0202C0DD0102C0BD0B4F593
:10104800807F08D0B4F5007F05D0082C03D0042C8D
:1010580001D0022C07D1B4F5007F0AD02B881C429E
:1010680018D0012038BD40F287310C48FFF7BFFF88
:10107800F1E7094B9D42F1D0A3F574439D42EDD0B1
:1010880003F580639D42E9D040F28B310348FFF7B6
:10109800AEFFE3E70020E5E700380140F4770008F9
:1010A80038B505460C46124B984214D0A3F5744344
:1010B800984210D003F5806398420CD003F5806302
:1010C800984208D003F58063984204D040F25F212B
:1010D8000848FFF78CFFB4F5007F03D2C4F3080477
:1010E800AC8038BD4FF418710248FFF780FFF5E770
:1010F80000380140F477000870B504460D461646DE
:10110800194B984214D0A3F57443984210D003F5B4
:10111800806398420CD003F58063984208D003F5A9
:101128008063984204D040F2C3111048FFF75FFF74
:1011380025F0C0039BB203B925B94FF4E2710B48FF
:10114800FFF755FF012E04D84EB1A38A1D43A5828F
:1011580070BD40F2C5110548FFF749FFF4E7A38ABF
:1011680023EA0505A582F3E700380140F477000873
:1011780070B505460C461646384B984214D0A3F570
:101188007443984210D003F5806398420CD003F55D
:101198008063984208D003F58063984204D040F2F7
:1011A80089112F48FFF723FF282C19D040F2277305
:1011B8009C4215D040F226639C4211D040F2255340
:1011C8009C420DD040F224439C4209D040F646038D
:1011D8009C4205D040F66A139C4201D0602C16D17F
:1011E800012E1AD840F66A139C421CD0C4F342124E
:1011F80004F01F04012303FA04F49A4224D0022ABB
:1012080024D0143526B32B681C432C6070BD4FF4D2
:10121800C5711348FFF7EBFEE2E740F28B11104867
:10122800FFF7E5FEDEE70D4B9D42DFD0A3F57443E3
:101238009D42DBD003F580639D42D7D040F28F11E9
:101248000748FFF7D4FED1E70C35DBE71035D9E7BF
:101258002B6823EA04042C60D8E700BF003801405B
:10126800F477000838B504460D46164B984214D05A
:10127800A3F57443984210D003F5806398420CD0CC
:1012880003F58063984208D003F58063984204D040
:101298004FF4B1710C48FFF7AAFE012D05D855B1DE
:1012A800A38943F40053A38138BD40F26311064873
:1012B800FFF79DFEF3E7A3899BB223F400539BB28B
:1012C800A381F1E700380140F477000870B50546BE
:1012D8000C46254B98420CD0A3F57443984208D08D
:1012E80003F58063984204D04FF499711F48FFF7C3
:1012F8007EFE238813B1B3F5006F1CD1638813B148
:10130800B3F5806F1DD1A38813B1B3F5007F1ED14B
:10131800E38813B1B3F5807F1FD12A8A92B220885F
:101328006688A188E388304301430B4322F4706246
:1013380013432B8270BD40F233110C48FFF757FE60
:10134800DCE74FF49A710948FFF751FEDBE740F2FA
:1013580035110648FFF74BFEDAE74FF49B71034857
:10136800FFF745FED9E700BF00380140F4770008D1
:1013780038B504460D462E4B984243D0B0F1804F05
:1013880040D0A3F5943398423CD003F5806398424B
:1013980038D003F58063984234D003F580639842CF
:1013A80030D003F5806398422CD003F590339842EF
:1013B80028D003F5C053984224D003F5806398429F
:1013C80020D003F5806398421CD0A3F59E33984241
:1013D80018D003F58063984214D003F580639842CF
:1013E80010D003F5903398420CD003F580639842EF
:1013F80008D003F58063984204D040F229310D48A3
:10140800FFF7F5FD012D05D855B1238843F00103F9
:10141800238038BD40F22A310648FFF7E8FDF3E79C
:1014280023889BB223F001039BB22380F1E700BF1E
:10143800002C0140907700080023038043808380BC
:10144800C380038143818381C38170472DE9F041C3
:1014580004460D463F4B984217D0B0F1804F14D048
:10146800A3F59433984210D003F5806398420CD0CA
:1014780003F58063984208D003F59433984204D06A
:101488004FF404713448FFF7B2FD2B884BB1102B91
:1014980007D0202B05D0302B03D0602B01D0702B28
:1014A80040D16B88012B43D82B890BB1022B45D136
:1014B800238C9BB223F480539BB22384268CB6B230
:1014C800B4F804801FFA88F8A78BBFB227F4E64760
:1014D8002B881B029BB21F4326F400562B891B0343
:1014E8009BB233436E883603B6B21E43194B9C42F7
:1014F80003D003F500639C420BD1AB89B3F5807F21
:1015080000D00BBB28F48048AB899B019BB248EA0A
:101518000308A4F80480A783EB88A4F84030268445
:10152800BDE8F08140F211210B48FFF760FDB8E7F4
:1015380040F212210848FFF75AFDB5E740F213219F
:101548000548FFF754FDB3E74FF40C710248FFF765
:101558004EFDD7E7002C0140907700082DE9F041B7
:1015680004460E46574B984217D0B0F1804F14D01E
:10157800A3F59433984210D003F5806398420CD0B9
:1015880003F58063984208D003F59433984204D059
:1015980040F2C1114C48FFF72AFD33884BB1102B9C
:1015A80007D0202B05D0302B03D0602B01D0702B17
:1015B8005DD17388012B60D833890BB1022B62D1BE
:1015C800238C9BB223F480739BB22384258CADB209
:1015D800B4F804801FFA88F8A78BBFB227F0730706
:1015E80033881F4325F4007533891B029BB22B43B4
:1015F80075882D02ADB21D43324B9C4203D003F5D2
:1016080000639C422BD1B3880BB1042B41D1738961
:101618000BB1082B43D1F389B3F5007F01D0002B20
:1016280043D1B389B3F5807F01D0002B43D125F492
:10163800006573891B029BB21D4325F48065B3883E
:101648001B029BB21D4328F44058B3891B019BB26F
:1016580048EA0308F3891B019BB243EA0808A4F887
:101668000480A783F388A3872584BDE8F0814FF41D
:10167800E1711548FFF7BBFC9BE740F2C311124824
:10168800FFF7B5FC98E74FF4E2710F48FFF7AFFC9E
:1016980096E74FF4F0710C48FFF7A9FCB7E740F262
:1016A800E1110948FFF7A3FCB5E74FF4F1710648CB
:1016B800FFF79DFCB5E740F2E3110348FFF797FCFD
:1016C800B5E700BF002C0140907700082DE9F041F4
:1016D80004460E465E4B984223D0B0F1804F20D08E
:1016E800A3F5943398421CD003F58063984218D030
:1016F80003F58063984214D003F59433984210D0D0
:1017080003F5C05398420CD0A3F59A33984208D0F9
:1017180003F59433984204D040F26F114D48FFF717
:1017280066FC33884BB1102B07D0202B05D0302B0B
:1017380003D0602B01D0702B5FD17388012B62D846
:1017480033890BB1022B64D1238C9BB223F0100395
:101758009BB22384258CADB2B4F804801FFA88F8B4
:10176800278BBFB227F4E64733881B029BB21F437F
:1017780025F0200533891B019BB22B4375882D0169
:10178800ADB21D43324B9C4203D003F500639C422B
:101798002BD1B3880BB1042B41D173890BB1082B22
:1017A80043D1F389B3F5007F01D0002B43D1B3892E
:1017B800B3F5807F01D0002B43D125F080057389D4
:1017C8001B019BB21D4325F04005B3881B019BB24A
:1017D8001D4328F44068B3899B009BB248EA03087C
:1017E800F3899B009BB243EA0808A4F80480278386
:1017F800F38823872584BDE8F0814FF4B871154834
:10180800FFF7F5FB99E740F271111248FFF7EFFB7C
:1018180096E74FF4B9710F48FFF7E9FB94E740F2F8
:101828008F110C48FFF7E3FBB7E74FF4C87109487D
:10183800FFF7DDFBB5E740F291110648FFF7D7FB4C
:10184800B5E74FF4C9710348FFF7D1FBB5E700BF0F
:10185800002C0140907700082DE9F04104460D4620
:10186800684B98423BD0B0F1804F38D0A3F5943301
:10187800984234D003F58063984230D003F58063F2
:1018880098422CD003F59433984228D003F5C053DE
:10189800984224D003F58063984220D003F58063F2
:1018A80098421CD0A3F59E33984218D003F5806364
:1018B800984214D003F58063984210D003F5903312
:1018C80098420CD003F58063984208D003F58063F2
:1018D800984204D04FF48E714B48FFF788FB2B8851
:1018E8004BB1102B07D0202B05D0302B03D0602B09
:1018F80001D0702B5CD16B88012B5FD82B890BB181
:10190800022B61D1238C9BB223F001039BB2238469
:10191800268CB6B2A788BFB2B4F818801FFA88F828
:1019280028F073082B8848EA030826F002062B895A
:1019380033436E881E43334B9C420FD003F500633C
:101948009C420BD003F540639C4207D003F58063AB
:101958009C4203D003F580639C4221D1AB880BB134
:10196800042B37D16B890BB1082B39D1EB89B3F52F
:10197800007F01D0002B39D1AB89B3F5807F01D02E
:10198800002B39D126F008066B891E4326F0040681
:10199800AB881E4327F44077AB891F43EB891F436D
:1019A800A780A4F81880EB88A3862684BDE8F08178
:1019B80040F21D111448FFF71AFB9CE74FF48F7192
:1019C8001148FFF714FB99E740F21F110E48FFF783
:1019D8000EFB97E74FF49E710B48FFF708FBC1E732
:1019E80040F23D110848FFF702FBBFE74FF49F7133
:1019F8000548FFF7FCFABFE740F23F110248FFF73E
:101A0800F6FABFE7002C01409077000808B50139C5
:101A1800032906D8DFE801F002060A0E1146FFF78F
:101A28001BFF08BD1146FFF751FEFAE71146FFF705
:101A380095FDF6E71146FFF709FDF2E738B50446CC
:101A48000D46534B984242D0B0F1804F3FD0A3F59A
:101A5800943398423BD003F58063984237D003F51E
:101A68008063984233D003F5806398422FD003F502
:101A7800806398422BD003F59033984227D003F522
:101A8800C053984223D003F5806398421FD003F5D2
:101A9800806398421BD0A3F59E33984217D003F574
:101AA8008063984213D003F5806398420FD003F502
:101AB800903398420BD003F58063984207D003F522
:101AC8008063984203D0E7213248FFF790FA6B8889
:101AD8003BB1102B05D0202B03D0402B01D0602B1D
:101AE8004CD1EB882BB1B3F5807F02D0B3F5007FE2
:101AF80049D123889BB2264A944212D002F500624B
:101B080094420ED0B4F1804F0BD0A2F59832944293
:101B180007D002F58062944203D002F580629442B5
:101B280003D123F070036A8813431B4A944208D0F8
:101B380002F58062944204D023F440739BB2EA8891
:101B480013432380AB88A3852B882385104B9C42A5
:101B58000FD003F500639C420BD003F540639C4211
:101B680007D003F580639C4203D003F580639C4251
:101B780001D12B7A23860123A38238BDE8210548A9
:101B8800FFF735FAADE7E9210248FFF730FAB0E789
:101B9800002C0140907700080010004038B504463A
:101BA8000D46124B98420CD0A3F57843984208D0C2
:101BB80003F58063984204D04FF41D710C48FFF779
:101BC80016FA012D05D855B1A38843F00403A38064
:101BD80038BD40F275210648FFF709FAF3E7A388F4
:101BE8009BB223F004039BB2A380F1E700300140CD
:101BF8004877000870B504460D461646154B9842BE
:101C08000CD0A3F57843984208D003F58063984236
:101C180004D04FF408711048FFF7E9F9012E0ED8E7
:101C280025F003039BB203B925B940F222210A48E3
:101C3800FFF7DDF94EB1A3881D43A58070BD40F2C2
:101C480021210548FFF7D3F9EAE7A38823EA050528
:101C5800A580F3E7003001404877000838B504460E
:101C68000D46124B98420CD0A3F57843984208D001
:101C780003F58063984204D040F2B7110C48FFF78F
:101C8800B6F9012D05D855B1238843F040032380C8
:101C980038BD4FF4DC710648FFF7A9F9F3E723884C
:101CA8009BB223F040039BB22380F1E70030014050
:101CB8004877000838B505460C464A4B98420BD081
:101CC800A3F57843984207D003F58063984203D080
:101CD800A3214548FFF78BF9238843B1B3F5806FFB
:101CE80005D0B3F5004F02D0B3F5404F4CD163880F
:101CF800B3F5827F01D0002B4BD1A388B3F5006FD9
:101D080001D0002B4AD1E3880BB1022B4BD1238998
:101D1800012B4DD86389B3F5007F01D0002B4CD13E
:101D2800A3896BB1082B0BD0102B09D0182B07D027
:101D3800202B05D0282B03D0302B01D0382B41D1B4
:101D4800E3890BB1802B42D1238A002B44D02B8806
:101D580003F44152238861880B43A1880B43E1882F
:101D68000B4321890B4361890B43A1890B43E1890B
:101D78000B4313432B80AB8B9BB223F400639BB2C2
:101D8800AB83238A2B8238BDA6211748FFF72FF98A
:101D9800ADE7A7211448FFF72AF9AEE7A8211248B2
:101DA800FFF725F9AFE7A9210F48FFF720F9AEE7BC
:101DB800AA210D48FFF71BF9ACE7AB210A48FFF74A
:101DC80016F9ADE7AC210848FFF711F9B8E7AD21DE
:101DD8000548FFF70CF9B7E7AE210348FFF707F905
:101DE800B5E700BF003001404877000838B5044621
:101DF8000D460E4B184200D120B940F2C3410C48A1
:101E0800FFF7F5F8012D05D855B10A4A13691C43A7
:101E1800146138BD40F2C4410548FFF7E8F8F3E71C
:101E2800044A136923EA04041461F2E700360181C5
:101E3800007700080010024038B504460D460E4BE6
:101E4800184200D120B940F269410C48FFF7CFF899
:101E5800012D05D855B10A4AD3691C43D46138BD50
:101E680040F26A410548FFF7C2F8F3E7044AD3692C
:101E780023EA0404D461F2E7003601810077000800
:101E88000010024038B504460D460E4B034003B916
:101E980020B940F24A410C48FFF7A9F8012D05D8AE
:101EA80055B10A4A93691C43946138BD40F24B41CD
:101EB8000548FFF79CF8F3E7044A936923EA04040A
:101EC8009461F2E70200C0FF0077000800100240AA
:101ED80038B504460D46484B984230D0B4F1804F8F
:101EE80032D0464B9C4234D0454B9C4236D0454B71
:101EF8009C4238D0444B9C423AD0444B9C423CD004
:101F0800434B9C423ED0434B9C4241D0424B9C4267
:101F180044D0424B9C4247D0414B9C424AD0414B13
:101F28009C424CD0404B9C424ED0404B9C4251D09E
:101F38003F4B9C4254D03F4B9C4257D038BD4FF446
:101F48000060FFF79FFFC9E729460120FFF774FFEC
:101F5800C7E729460220FFF76FFFC5E72946042097
:101F6800FFF76AFFC3E729460820FFF765FFC1E7C7
:101F780029461020FFF760FFBFE729462020FFF71A
:101F88005BFFBDE729464FF40050FFF77BFFBAE738
:101F980029464FF40020FFF775FFB7E729464FF4AD
:101FA8008010FFF76FFFB4E729464FF40010FFF7E2
:101FB80069FFB1E729464020FFF73EFFAFE7294612
:101FC8008020FFF739FFADE729464FF48070FFF70F
:101FD80033FFAAE729464FF48030FFF753FFA7E7FE
:101FE80029464FF40030FFF74DFFA4E729464FF488
:101FF8008020FFF747FFA1E7002C014000040040C4
:1020080000080040000C0040001000400014004090
:1020180000340140004C0140005001400054014090
:1020280000180040001C0040002000400040014013
:10203800004401400048014038B504460D460D4BA8
:10204800984206D00C4B9C4208D00C4B9C420BD0BB
:1020580038BD4FF40070FFF715FFF3E729464FF43A
:102068008060FFF70FFFF0E729464FF40040FFF7C5
:1020780009FFEDE70024014000280140003C014031
:1020880038B504460D46164B98420CD0154B9C4269
:102098000ED0154B9C4211D0144B9C4214D0144BBB
:1020A8009C4217D038BD4FF48040FFF7EBFEEDE7B8
:1020B80029464FF40030FFF7BFFEEAE729464FF400
:1020C8008020FFF7B9FEE7E729464FF40020FFF725
:1020D800B3FEE4E729464FF48010FFF7ADFEE1E7D1
:1020E800003801400044004000480040004C0040D7
:1020F8000050004038B504460D460D4B984206D0B6
:102108000C4B9C4208D00C4B9C420BD038BD4FF472
:102118008050FFF7B7FEF3E729464FF48040FFF7FA
:102128008BFEF0E729464FF40040FFF785FEEDE708
:102138000030014000380040003C004038B50446FB
:102148000D46184B98420FD0174B9C4210D0174B96
:102158009C4212D0164B9C4214D0164B9C4216D06F
:10216800154B9C4218D038BD0420FFF78BFEEBE7D7
:1021780029460820FFF786FEE9E729461020FFF7E1
:1021880081FEE7E729462020FFF77CFEE5E72946A0
:102198004020FFF777FEE3E729468020FFF772FE2D
:1021A800E1E700BF00080140000C014000100140B9
:1021B8000014014000180140001C014038B50446D5
:1021C8000D4620F4AA6323F0070303B920B940F2AF
:1021D8002B410B48FEF70BFF012D05D855B1094AD5
:1021E80053691C43546138BD40F22C410448FEF742
:1021F800FEFEF3E7034A536923EA04045461F2E755
:10220800007700080010024038B504460D46164B0A
:10221800984211D0143398420ED0143398420BD000
:102228001433984208D01433984205D01433984296
:1022380002D01433984203D129460120FFF7BEFF8C
:102248000A4B9C420BD014339C4208D014339C4256
:1022580005D014339C4202D014339C4203D1294642
:102268000220FFF7ABFF38BD080002400804024017
:1022780010B4294B5B6803F00C03042B2BD0082BFC
:102288002CD013B1254B036001E0244B0360224995
:102298004B68C3F30313224CE35CDAB20368D34000
:1022A80043604A68C2F30222A25CD2B223FA02F265
:1022B80082604A68C2F3C222A25CD2B2D340C36031
:1022C8004A68C2F3813217498A5CD2B2B3FBF2F38F
:1022D800036110BC7047114B0360D8E70E4A53687E
:1022E8005268C3F38343023312F4803F04D10E4A89
:1022F80002FB03F30360CAE7074A526812F4003F7F
:1023080004D0094A02FB03F30360C0E7034A02FB57
:1023180003F30360BBE700BF0010024000127A001D
:10232800180000200400002000093D0000B587B017
:10233800FEF7CEFD01A8FFF79BFF019B124AA2FB07
:1023480003239B09013BB3F1807F1BD20F4A5360E3
:102358000F4BF02183F823100021916007201060B3
:1023680083F823100B4B1B684FF47A72B3FBF2F21D
:1023780009490A60094AB3FBF2F3094A136007B036
:102388005DF804FBFEE700BFD34D621010E000E0EB
:1023980000ED00E0280000204C00002040420F0023
:1023A8004800002030B587B004460D46664B984279
:1023B80013D0A3F5744398420FD003F58063984275
:1023C8000BD003F58063984207D003F580639842E9
:1023D80003D0B8215D48FEF70AFE2B68013B5C4A32
:1023E800934200F28480AB881BB1B3F5805F40F064
:1023F8008380EB8843B1B3F5805F05D0B3F5005F08
:1024080002D0B3F5405F7CD12B892BB1B3F5806F37
:1024180002D0B3F5C06F79D16A8922F00C039BB260
:1024280003B91AB9BD214948FEF7E1FDAB8943B1AB
:10243800B3F5807F05D0B3F5007F02D0B3F5407FB8
:1024480069D1AB8973B1404B9C420BD0A3F574435F
:102458009C4207D003F580639C4203D0C2213B48CD
:10246800FEF7C5FD238A9BB2EA8823F44053134341
:102478002382A28992B2AB8829890B4369890B43CD
:1024880022F4B05222F00C021343A381A38A9BB218
:10249800AA8923F440731343A38201A8FFF7E8FE37
:1024A800294B9C423CD00398A38913F4004F39D19F
:1024B800192303FB00F328688000B3FBF0F0254BD9
:1024C800A3FB002359090D01642301FB1303A2890F
:1024D80012F4004F2ED11B0132336422B3FBF2F306
:1024E80003F00F032B439BB2238107B030BDB92102
:1024F8001648FEF77CFD76E7BA211448FEF777FD0B
:1025080077E7BB211148FEF772FD7DE7BC210F4834
:10251800FEF76DFD80E7BE210C48FEF768FD90E7E9
:102528000498C1E7192303FB00F328684000B3FBB4
:10253800F0F0C4E7DA0032326423B2FBF3F202F0BF
:10254800070242EA0503CEE700380140F4770008A5
:102558001FAA44001F85EB5110B5044640B1B0F5E1
:10256800804F05D0B0F5004F02D0B0F5404F06D1EE
:10257800064A536823F440431C43546010BD40F29C
:1025880002310348FEF733FDF2E700BF00100240B6
:102598000077000838B505460C460E4B984208D01F
:1025A80003F58063984204D040F24A510A48FEF786
:1025B8001EFD42F2FF031C4200D124B940F24B51E8
:1025C8000548FEF714FD24F07F44E443A4B2AC822E
:1025D80038BD00BF005400407876000838B505467D
:1025E8000C462F4B984208D003F58063984204D0DC
:1025F8004FF487612B48FEF7FAFC2B4B9C423BD0EB
:10260800B4F1021F38D0294B9C4235D0B4F5020FE3
:1026180032D0B4F5901F2FD0254B9C422CD003F517
:1026280000039C4228D0A3F5E0039C4224D0214B10
:102638009C4221D003F500039C421DD0A3F5E00382
:102648009C4219D0102C17D01B4B9C4214D01B4B0A
:102658009C4211D01A4B9C420ED03E339C420BD068
:10266800184B9C4208D0043B9C4205D0164B9C4218
:1026780002D0B4F5806F0AD1AB8A2A8B43EA0243B1
:1026880023F07F4334EA030307D0002038BD40F22B
:1026980039410448FEF7ABFCEEE70120F6E700BF3E
:1026A800005400407876000882000600800086000A
:1026B80040000200840006000100030082000700B9
:1026C80002000300840007000800030010B5044658
:1026D800074B984208D003F58063984204D040F233
:1026E80062210448FEF783FC208AC0B210BD00BFF7
:1026F800005400407876000838B505460C46074B6C
:10270800984208D003F58063984204D040F25521DE
:102718000348FEF76CFCA4B22C8238BD005400407C
:102728007876000870B504460D461646134B984255
:1027380008D003F58063984204D04FF40F71104815
:10274800FEF755FC012E0ED825F4E0639BB203B9C1
:1027580025B940F23E210A48FEF749FC4EB1A3884C
:102768001D43A58070BD40F23D210548FEF73FFCA2
:10277800EAE7A38823EA0505A580F3E700540040AB
:102788007876000838B504460D46104B984208D0B4
:1027980003F58063984204D04FF4E5710C48FEF7C6
:1027A80026FC012D05D855B1238843F48063238086
:1027B80038BD40F2CB110648FEF719FCF3E7238831
:1027C8009BB223F480639BB22380F1E7005400405E
:1027D8007876000838B504460D46104B984208D064
:1027E80003F58063984204D04FF4D9710C48FEF782
:1027F800FEFB012D05D855B1238843F400732380CF
:1028080038BD40F2B3110648FEF7F1FBF3E7238821
:102818009BB223F400739BB22380F1E7005400407D
:102828007876000838B504460D46104B984208D013
:1028380003F58063984204D04FF4CD710C48FEF73D
:10284800D6FB012D05D855B1238843F48073238026
:1028580038BD40F29B110648FEF7C9FBF3E7238811
:102868009BB223F480739BB22380F1E700540040AD
:102878007876000838B504460D46104B984208D0C3
:1028880003F58063984204D04FF4A9710C48FEF711
:10289800AEFB012D05D855B1238843F001032380F1
:1028A80038BD40F253110648FEF7A1FBF3E7238831
:1028B8009BB223F001039BB22380F1E70054004050
:1028C8007876000841F288330360002383804BF652
:1028D800FF72C280038143814FF480438381704734
:1028E800F0B587B004460D46564B984207D003F51D
:1028F8008063984203D0C6215348FEF778FB2B68C3
:10290800013B524A934257D8AB881BB1022B01D0E6
:102918000A2B56D1EB88B3F5804F03D04BF6FF72E4
:10292800934253D12B89B3F5806F54D26B89B3F599
:10293800806F01D0002B53D1AB89B3F5804F02D003
:10294800B3F5404F51D1A688B6B226F03F06B6B2CD
:1029580001A8FFF78DFC03983D4AA2FB0032920CB8
:1029680097B23E43A680218889B221F0010189B23D
:1029780021802B6837498B423CD85B00B0FBF3F3CE
:102988009BB2032B00D8042301372784A383238811
:1029980043F00103238023889BB223F4816323F04F
:1029A8000203AA8869890A4313432380AB892A89C9
:1029B8001343238107B0F0BDC7212348FEF717FB57
:1029C800A2E7C8212048FEF712FBA3E7C9211E4849
:1029D800FEF70DFBA6E7CA211B48FEF708FBA5E793
:1029E800CB211948FEF703FBA6E7CC211648FEF7D2
:1029F800FEFAA8E7EE884BF6FF718E421BD003EB78
:102A0800830303EB8303B0FBF3F39BB243F48043EC
:102A1800C3F30B0109B943F0010343F400434FF436
:102A2800967102FB01F20C4981FB021292110132EC
:102A380092B22284AAE703EB4303B0FBF3F39BB201
:102A4800E6E700BF00540040787600087F1A0600C9
:102A580083DE1B43A0860100D34D621038B50446BF
:102A68000D46431E012B40F28980042800F0868021
:102A7800082800F08380644B98427FD02033984226
:102A88007CD0624B984279D08033984276D0604BA4
:102A9800984273D003F5807398426FD003F5807322
:102AA80098426BD05B4B984268D003F5806398429C
:102AB80064D0B0F5805F61D0B0F5EA1F5ED0B0F5A4
:102AC800EB1F5BD0B0F5004F58D0534B984255D010
:102AD8000133984252D0023398424FD0043398427F
:102AE8004CD00833984249D0B0F1201F46D030333B
:102AF800984243D0494B984240D003F5807398429E
:102B08003CD003F50073984238D0454B984235D0F5
:102B180003F57063984231D0B0F5011F2ED0414BB8
:102B280098422BD00133984228D00233984225D0BE
:102B38000433984222D0083398421FD01033984269
:102B48001CD02033984219D04033984216D0803395
:102B5800984213D003F5807398420FD003F50073A1
:102B680098420BD003F58063984207D003F50063C1
:102B7800984203D003F58053984218D1012D1CD8F0
:102B8800002C20DB284B5B68C4F30340A2B204F49A
:102B98004011B1F5401F19D014F4801F27D003212C
:102BA80001FA00F023EA000343F0706315E040F2F5
:102BB8002A211E48FEF71BFAE0E740F22B211B48AA
:102BC800FEF715FADCE7184BDB69DDE723F07063E5
:102BD8001548416821F0706141601DB1610D09011E
:102BE8008A401343002C0BDB0F4A536038BD610D3C
:102BF800090102FA01F123EA010343F07063ECE7EB
:102C0800094AD361F2E700BF100014004000160023
:102C18000001180000081A0001002000000130001F
:102C280000112000010000800000014030760008FB
:102C38004FF6FF730380022383700423C370704729
:102C4800F8B505460C46494B98421BD003F58063FE
:102C5800984217D003F58063984213D003F5806338
:102C680098420FD003F5806398420BD003F5806338
:102C7800984207D003F58063984203D0B2213C48BC
:102C8800FEF7B5F9E3786BB1042B0BD0282B09D0EC
:102C9800482B07D0142B05D0102B03D01C2B01D0A8
:102CA800182B14D12388BBB1E37803F00F06304604
:102CB80013F0100F06D0A378013BDBB2022B10D81B
:102CC800A078304323785BB32E68002310E0B3214B
:102CD8002748FEF78CF9E5E7B4212548FEF787F980
:102CE800E2E7BB212248FEF782F9E9E76A6101338E
:102CF800072B14D801229A40218832EA0101F6D123
:102D080099000F278F4026EA070600FA01F10E43C3
:102D1800E1782829EAD04829E9D12A61E7E72E6035
:102D28002388FF2B20D96E68002302E06A6115E032
:102D38000133072B17D803F1080101228A402188A3
:102D480032EA0101F4D199000F278F4026EA0706DD
:102D580000FA01F10E43E1782829E7D0E178482903
:102D6800E6D12A61E4E76E60F8BD00BF00080140C3
:102D78003076000810B5044610F0704F02D0094BA9
:102D8800034003B924B940F20E210748FEF72FF992
:102D980014F0805F02D0054B5C6010BD044B5C6092
:102DA800FBE700BF0000F0EFE875000800040240F0
:102DB8000000024010B50446431E012B40F29480E7
:102DC800042800F09180082800F08E80102800F078
:102DD8008B80202800F08880402800F0858080289B
:102DE80000F08280B0F5807F7ED0B0F5007F7BD088
:102DF800B0F5806F78D0B0F5006F75D0B0F5805F12
:102E080072D0B0F5005F6FD0B0F5804F6CD0B0F5E0
:102E1800004F69D0B0F5803F66D0B0F5003F63D071
:102E2800B0F5802F60D0B0F5002F5DD0B0F5801FD1
:102E38005AD0B0F5001F57D0B0F5800F54D0B0F578
:102E4800000F51D0B0F1807F4ED0B0F1007F4BD051
:102E5800B0F1806F48D0B0F1006F45D02C4B98424C
:102E680042D0013398423FD0023398423CD00433D9
:102E7800984239D00833984236D01033984233D02C
:102E88002033984230D0403398422DD08033984236
:102E98002AD003F58073984226D003F50073984230
:102EA80022D003F5806398421ED0B0F1102F1BD0BA
:102EB80003F5C053984217D003F50053984213D036
:102EC80003F5804398420FD003F5004398420BD096
:102ED80003F58033984207D003F50033984203D0B6
:102EE80003F58023984208D114F0805F0BD0094B7A
:102EF8001B6823420AD0012010BD40F2B7110648D2
:102F0800FEF775F8F0E7054B1B68F2E70020F3E7DA
:102F18000100001000040240E875000800000240AB
:102F280038B504460D46164B984226D014339842BD
:102F380023D01433984220D0143398421DD0143330
:102F480098421AD01433984217D01433984214D0A8
:102F580003F56273984210D0143398420DD014339D
:102F680098420AD01433984207D01433984204D0B8
:102F78004FF4B2710348FEF73AF8656038BD00BFF8
:102F880008000240E875000870B504460D4616466C
:102F9800224B984226D01433984223D014339842B7
:102FA80020D0143398421DD0143398421AD01433C9
:102FB800984217D01433984214D003F5627398429C
:102FC80010D0143398420DD0143398420AD01433D9
:102FD800984207D01433984204D040F2491110485F
:102FE800FEF705F835F00E0300D125B94FF4A571A9
:102FF8000B48FDF7FCFF012E04D84EB123681D4392
:10300800256070BD40F24B110548FDF7F0FFF4E76D
:10301800236823EA05052560F3E700BF080002409E
:10302800E875000838B504460D461F4B984226D06F
:103038001433984223D01433984220D01433984242
:103048001DD0143398421AD01433984217D0143331
:10305800984214D003F56273984210D01433984202
:103068000DD0143398420AD01433984207D0143341
:10307800984204D040F229110C48FDF7B8FF012D01
:1030880005D855B1236843F00103236038BD4FF4D8
:1030980095710648FDF7ABFFF3E7236823F00103BA
:1030A8001B041B0C2360F1E708000240E8750008C8
:1030B80008B54FF00060FFF77DFE40B14FF00060AB
:1030C800FFF758FE00210948FFF7ACFF08BD4FF095
:1030D8000070FFF76FFE0028F4D04FF00070FFF784
:1030E80049FE034B00229A70ECE700BF80000240C3
:1030F800C000002008B54FF40020FFF75BFE40B188
:103108004FF40020FFF736FE00210948FFF78AFF39
:1031180008BD4FF40030FFF74DFE0028F4D04FF4FF
:103128000030FFF727FE034B00225A70ECE700BF80
:1031380058000240C000002008B54FF40060FFF7B7
:1031480039FE40B14FF40060FFF714FE0021094832
:10315800FFF768FF08BD4FF40070FFF72BFE00284B
:10316800F4D04FF40070FFF705FE034B00221A70ED
:10317800ECE700BF30000240C000002070B50546F3
:10318800FF280CD02846FDF7B5F9044628B16E1E75
:10319800F6B21C4B9C5D5CB90024204670BD01242E
:1031A800032CEFD82046FFF7E9FF0134E4B2F7E734
:1031B8002846FDF7EBF90028EED12EB1012E1CD0E0
:1031C800022E1CD1104D00E0104D00212846FFF7BB
:1031D80029FF0F4B33F816100231890089B22846AF
:1031E800FFF79EFE01212846FFF71CFF094B01222D
:1031F8009A55044B00229A55CFE7074DE5E7044658
:10320800CBE700BFB401002080000240300002403C
:103218000C010020C00000205800024038B50546C7
:103228000C46574B984225D01433984222D0143379
:1032380098421FD0143398421CD01433984219D0A6
:103248001433984216D01433984213D003F562739E
:1032580098420FD0143398420CD01433984209D0B6
:103268001433984206D01433984203D0CF214548EE
:10327800FDF7BDFEA368102B01D0002B53D1E368E6
:10328800013B4FF6FE72934252D82369402B01D07E
:10329800002B52D16369802B01D0002B52D1A36936
:1032A8002BB1B3F5807F02D0B3F5007F4FD1E3692E
:1032B8002BB1B3F5806F02D0B3F5006F4CD1236A00
:1032C800202B01D0002B4CD1636AB3F5405F07D0A7
:1032D800B3F5005F04D0B3F5805F01D0002B45D172
:1032E800A36AB3F5804F01D0002B44D12A6822F499
:1032F800FF4222F07002A368216A0B4321690B4345
:1033080061690B43A1690B43E1690B43616A0B4394
:10331800A16A0B4313432B60E3686B602368AB60BF
:103328006368EB6038BDD0211648FDF760FEA6E75C
:10333800D1211448FDF75BFEA7E7D2211148FDF71C
:1033480056FEA7E7D3210F48FDF751FEA7E7D42182
:103358000C48FDF74CFEAAE7D5210A48FDF747FEC1
:10336800ADE7D6210748FDF742FEADE7D72105486E
:10337800FDF73DFEB4E7D8210248FDF738FEB5E772
:1033880008000240E875000810B504464F4B984203
:1033980025D01433984222D0143398421FD01433C6
:1033A80098421CD01433984219D01433984216D03E
:1033B8001433984213D003F5627398420FD0143334
:1033C80098420CD01433984209D01433984206D04E
:1033D8001433984203D06F213D48FDF708FE236857
:1033E80023F001031B041B0C23600023236063608C
:1033F800A360E360354B9C4226D0364B9C4229D0D3
:10340800354B9C422CD0354B9C422FD0344B9C42A0
:1034180032D0344B9C4235D0334B9C4238D0334B5E
:103428009C423BD0324B9C423ED0324B9C4241D0D6
:10343800314B9C4244D0314B9C420AD1304A5368AC
:1034480043F47023536004E02E4A536843F00F039B
:10345800536010BD2B4A536843F0F0035360F8E7FC
:10346800284A536843F470635360F2E7254A536867
:1034780043F470435360ECE7224A536843F47023E3
:103488005360E6E71F4A536843F470035360E0E76C
:103498001C4A536843F070635360DAE7184A53686C
:1034A80043F00F035360D4E7154A536843F0F00321
:1034B8005360CEE7124A536843F470635360C8E719
:1034C8000F4A536843F470435360C2E70800024050
:1034D800E87500081C000240300002404400024029
:1034E800580002406C00024080000240080402407C
:1034F8001C040240300402404404024058040240C4
:10350800000402400000024038B505460C460F4B47
:1035180098420CD003F58063984208D003F5A05375
:10352800984204D040F20D510948FDF760FD24F49B
:10353800FC639BB203B924B940F20E510448FDF76D
:1035480056FD6FEA14242C6038BD00BF00240140EA
:10355800A0750008F8B505460E4614461F46374BB9
:1035680098420CD003F58063984208D003F5A05325
:10357800984204D04FF416713148FDF738FD112EEA
:1035880022D8631EDBB20F2B24D8072F28D8092E88
:103598002CD9EA68A6F10A0303EB430307219940F3
:1035A80022EA01029F401743EF60062C29D8696B75
:1035B800013C04EB84041F23A34021EA030106FA1B
:1035C80004F40C436C63F8BD40F259211C48FDF724
:1035D8000EFDD6E740F25A211948FDF708FDD4E759
:1035E80040F25B211648FDF702FDD0E72B6906EB98
:1035F800460107228A4023EA02038F401F432F61B6
:10360800D3E70C2C0CD8296B073C04EB84041F234C
:10361800A34021EA030106FA04F40C432C63D2E721
:10362800EB6AA4F10D0101EB81011F228A4023EA14
:10363800020306FA01F11943E962C4E700240140D4
:10364800A075000838B504460D46114B98420CD0B9
:1036580003F58063984208D003F5A053984204D03C
:103668004FF4E9710B48FDF7C2FC012D05D855B19F
:10367800A36843F4A003A36038BD40F2D311054802
:10368800FDF7B5FCF3E7A36823F4A003A360F3E711
:1036980000240140A075000810B504460B4B984261
:1036A8000CD003F58063984208D003F5A0539842E4
:1036B80004D04FF4DC710648FDF799FCA36813F0B9
:1036C800040F01D0012010BD0020FCE700240140B8
:1036D800A075000810B504460A4B98420CD003F5B3
:1036E8008063984208D003F5A053984204D04FF461
:1036F800D5710548FDF77BFCA36843F00403A3607C
:1037080010BD00BF00240140A075000810B5044694
:103718000B4B98420CD003F58063984208D003F510
:10372800A053984204D04FF4C9710648FDF75FFCD6
:10373800A36813F0080F01D0012010BD0020FCE79A
:1037480000240140A075000810B504460A4B9842B1
:103758000CD003F58063984208D003F5A053984233
:1037680004D04FF4C2710548FDF741FCA36843F04B
:103778000803A36010BD00BF00240140A075000825
:1037880070B505460C461646164B98420CD003F504
:103798008063984208D003F5A053984204D040F2C1
:1037A8006B111148FDF723FC012E0FD824F4FC639C
:1037B8009BB203B924B940F26D110B48FDF717FC11
:1037C800E4B24EB16B681C436C6070BD4FF4B671C7
:1037D8000548FDF70CFCE9E76B6823EA04046C6014
:1037E800F3E700BF00240140A075000838B504467F
:1037F8000D460F4B984208D003F5C053984204D0A9
:1038080040F24D110B48FDF7F2FB012D05D855B1DB
:10381800A36843F48073A36038BD4FF4A7710548CB
:10382800FDF7E5FBF3E7A36823F48073A360F3E7F0
:1038380000240140A075000838B504460D46114B18
:1038480098420CD003F58063984208D003F5A05342
:10385800984204D04FF49A710B48FDF7C8FB012D2C
:1038680005D855B1A36843F00103A36038BD40F201
:1038780035110548FDF7BBFBF3E7A36823F0010307
:10388800A360F3E700240140A075000838B5054699
:103898000C46484B98420BD003F58063984207D0FA
:1038A80003F5A053984203D0E5214348FDF79FFB59
:1038B8002368D3B1B3F5803F17D0B3F5003F14D0D8
:1038C800B3F5403F11D0B3F5802F0ED0B3F5A02F3C
:1038D8000BD0B3F5C02F08D0B3F5E02F05D0B3F562
:1038E800002F02D0B3F5102F46D12379012B48D8E9
:1038F8006379012B4AD8A368A3B1B3F5003F11D06F
:10390800B3F5802F0ED0B3F5C02F0BD0B3F5002F31
:1039180008D0B3F5202F05D0B3F5402F02D0B3F56A
:10392800602F38D1E36813B1B3F5006F38D1237C29
:10393800013BDBB20F2B38D86A6822F4702222F4DC
:1039480080722368217943EA012313436B60AB68D3
:103958001A4A1A40E368A1680B43617943EA4103B4
:103968001343AB60EB6A23F47003227C013AD2B2B2
:1039780043EA0253EB6238BDE6210F48FDF737FBF7
:10398800B3E7E7210C48FDF732FBB1E7E8210A4825
:10399800FDF72DFBAFE7E9210748FDF728FBC1E755
:1039A800EA210548FDF723FBC1E7EB210248FDF7B3
:1039B8001EFBC1E700240140A0750008FDF7F1FFD8
:1039C80010B50446C378012B26D863780F2B28D866
:1039D800A3780F2B2AD8E3786BB31C4BDA68D24351
:1039E800C2F30222C2F104000F2323FA02F2617823
:1039F8008140A37813400B431B012278DBB21449A2
:103A08000A4482F80033237803F01F005B0901227F
:103A1800824041F8232010BD75210E48FDF7E7FAD2
:103A2800D3E776210B48FDF7E2FAD1E77721094879
:103A3800FDF7DDFACFE7237803F01F015B090122C8
:103A48008A402033024941F82320E4E700ED00E0F2
:103A580000E100E0C076000808B501460448FDF71B
:103A68001FFB40210248FDF7C5FA0028F9D008BD20
:103A78000038014010B5044694F9000020B1013423
:103A8800C0B2FFF7E9FFF7E710BD000030B58DB011
:103A980001210846FEF792FB174C2046FFF774FCFD
:103AA800164B0193164B029310230393322304936E
:103AB80000230593802206920793089309934FF4F5
:103AC80040520A920B9301A92046FFF7A7FB0E2349
:103AD8008DF8003002238DF8013001258DF8025051
:103AE8008DF803506846FFF76BFF2A460A212046E7
:103AF800FFF74AFA0DB030BD4400024004380140D7
:103B0800E425002070B586B0064608B94FF4E136C2
:103B180001210420FEF7B6F901214FF48040FEF799
:103B2800B1F94FF40073ADF8143018238DF817303D
:103B380001248DF81640234D05A92846FFF780F883
:103B48004FF48063ADF8143048238DF8173005A979
:103B58002846FFF775F821460420FEF77FFFFFF798
:103B680095FF25238DF8003002238DF801308DF85C
:103B780002308DF803406846FFF722FF05F54055EF
:103B8800224640F225512846FDF7F2FA0196002315
:103B9800ADF80830ADF80A30ADF80C30ADF810309B
:103BA8000C23ADF80E3001A92846FEF7FBFB224690
:103BB80080212846FDF7A0FA21462846FDF752FB4A
:103BC80006B070BD000801400130C0B201380728B6
:103BD80044D8DFE800F0040C131B232B333B204BA5
:103BE8009868800980F0010000F0010070471D4BC3
:103BF800986880F0010000F001007047194B986840
:103C0800000A80F0010000F001007047154B986829
:103C1800400A80F0010000F001007047124B9868DC
:103C2800400B80F0010000F0010070470E4B9868CF
:103C3800800B80F0010000F0010070470A4B986883
:103C4800C00B80F0010000F001007047054B986838
:103C5800800A80F0010000F00100704700207047E2
:103C680000080140000C01400010014010B4441E3F
:103C7800064A6300181981001144C8782344990042
:103C88000A440023D37010BC704700BFAC25002045
:103C980010B4441E064A63001819810011440879BB
:103CA800234499000A440023137110BC704700BFD5
:103CB800AC250020022807D8013800EB400082001C
:103CC800024B13449878704700207047AC250020B9
:103CD80038B504460D46FFF7EDFF0346B0B10D4A6F
:103CE8001268AA4211D30B4A1268551B601E00EBDA
:103CF80040029100084A0A449268954208D9054A48
:103D08001468054A0A44946000E00023184638BD48
:103D18000023FBE7C4250020AC2500200F4B1A68C0
:103D28000F4B1B689A4217D910B50C4B1B682133EF
:103D38000B4A136000240CE02046FFF745FF04EB14
:103D480044029300014607481844FDF72FF8013450
:103D5800E4B2012CF0D910BD704700BFC425002083
:103D6800B8010020AC25002030B583B00F4D0121EB
:103D78002846FEF7E3F90E4C01212046FEF7DEF94E
:103D880048238DF8073002238DF806304023ADF81C
:103D9800043001A92846FEF753FF0123ADF804308B
:103DA80001A92046FEF74CFF03B030BD00080140D2
:103DB800000C014000B583B002AB03E90300BDF875
:103DC800002004214FF08040FCF70EFDBDF80220D2
:103DD80003214FF08040FCF707FDBDF804200221C5
:103DE8004FF08040FCF700FD03B05DF804FB0000D5
:103DF80070B58AB0FDF76CF8314B1C68314BA3FBEA
:103E08000434A40C013CA4B22F4D01212846FEF72E
:103E180095F918238DF8273003268DF826600E2390
:103E2800ADF8243009A92846FEF70AFF01214FF012
:103E38008040FEF74DF801210846FEF723F84FF4BD
:103E48007A73ADF81C30ADF818400024ADF81E4068
:103E5800ADF81A4006A94FF08040FDF7EFFD02A823
:103E6800FDF7EAFA6023ADF808300125ADF80A50ED
:103E7800ADF81040ADF80E4002AA04214FF0804082
:103E8800FDF7C4FD02AA31464FF08040FDF7BEFDA4
:103E980002AA02214FF08040FDF7B8FDADF80040BE
:103EA800ADF80240ADF804406B4693E80300FFF715
:103EB80081FF29464FF08040FDF75AFA0AB070BDDD
:103EC8002800002083DE1B43000801400338C0B2ED
:103ED800022801D80120704700207047022801D825
:103EE800012070470020704710B586B000214FF4BC
:103EF8000010FDF7A1FF01214FF40010FDF79CFF12
:103F080001214FF40010FDF771FF00214FF400105C
:103F1800FDF76CFF01210820FDF7B4FF05A8FEF7A7
:103F280087FE1C238DF81730C023ADF81430032307
:103F38008DF8163005A91648FEF782FE01A8FEF78F
:103F4800C1FC4FF48063ADF80E300023ADF80830A3
:103F5800104B0193104C01A92046FEF7C1FC012229
:103F68004FF4C0612046FEF7DDFB01212046FEF735
:103F780081FC01238DF803301F228DF800208DF875
:103F880001308DF802306846FFF71AFD06B010BD03
:103F9800000C0140801A06000054004010B5074C80
:103FA80000224FF4C0612046FEF7BCFB00212046EA
:103FB800FEF760FCFFF798FF10BD00BF00540040FB
:103FC80070B506460D4600224FF4C0613848FEF72A
:103FD800A9FB032414E001213548FEF7FBFB354B10
:103FE8001A68354B1B689A424DD3631EDBB2002C0E
:103FF8004CD0304A1168304A1268914246D21C4669
:104008002D4B1B6864332B4A136001212848FEF7A7
:1040180009FC2A492648FEF7E1FA28B9254B1A680F
:10402800254B1B689A42F4D8D0212148FEF764FB3F
:1040380023491F48FEF7D2FA28B91E4B1A681E4BAF
:104048001B689A42F4D831461948FEF755FB1D49BA
:104058001748FEF7C3FA28B9164B1A68164B1B689F
:104068009A42F4D829461248FEF746FB15491048EB
:10407800FEF7B4FA0028AED10E4B1A680E4B1B6837
:104088009A42F3D8A7E7FFF789FFAEE7084C4FF449
:1040980000712046FEF77EFA4FF480612046FEF755
:1040A80079FA01224FF4C0612046FEF73BFB70BD50
:1040B80000540040A8010020C4250020010003008E
:1040C800820007008400070008B50368426802FB05
:1040D80002F203FB0323806800FB0030FCF798FB27
:1040E80008BD00B585B003680193436802938368EF
:1040F800039301A8FFF7E8FF05B05DF804FB000093
:10410800C0EBC030034B83FB0023C017C0EBA310E8
:1041180000B27047D34D62104FF47A7303FB00F07E
:10412800044B83FB00230344C017C0EBA33000B249
:10413800704700BF03000180C0EBC030034B83FB16
:104148000023C017C0EB232000B27047D34D621084
:104158004FF47A6303FB00F0044B83FB0023034412
:10416800C017C0EBA33000B2704700BF0300018046
:104178000246831FDBB2F82B0AD9064B33F81030FE
:1041880018B231B1044931F81200181A00B2704758
:1041980000207047D0000020C400002038B5044635
:1041A8000D460020FFF7E4FF208029460120FFF795
:1041B800DFFF608029460220FFF7DAFFA08029464A
:1041C8000320FFF7D5FFE08029460420FFF7D0FF42
:1041D800208129460520FFF7CBFF608138BD00000C
:1041E800F8B5831FDBB2F82B10D905460E461746E3
:1041F800FF280CD03FB12846FFF770FE90B130463B
:10420800FFF79AFF06460C4B23F81560F8BD00240B
:10421800052CEFD83A4631462046FFF7E1FF013436
:10422800E4B2F5E72846FFF751FE0028EBD0304608
:10423800FFF766FF0646E6E7C400002008B501223E
:104248000021FF20FFF7CCFF08BD000070B5214C0E
:1042580025782D022DB2607805436FF00900FFF72D
:104268006BFF284400B21C4D2880A678360236B26F
:10427800E07806430020FFF75FFF304400B2688013
:104288002679360236B2607906435020FFF754FF8C
:10429800304400B2A880267A360236B2637A1E43CA
:1042A8000020FFF72DFF82B2164436B22E81A37A82
:1042B8001B021BB2E17A0B4303445B421BB2EB8047
:1042C800237B1B021BB2617B0B4313441BB26B8124
:1042D80070BD00BFE0000020D000002070B55B4B2F
:1042E8001C78631E132B00F2A280DFE803F00A217A
:1042F8002F3D4B595959595959595959595959597A
:10430800597E53495348FEF769F900287FD0514D2B
:10431800D0212846FEF7F0F900212846FEF75AFA80
:1043280000212846FEF77EFA484B02221A706EE0FA
:1043380049494848FEF752F9002868D03B214548CA
:10434800FEF7DAF9414B03221A7060E0434941480D
:10435800FEF744F900285AD001213E48FEF762FAD8
:104368003A4B04221A7052E039493A48FEF736F9B6
:1043780000284CD0D1213748FEF7BEF9334B05222F
:104388001A7044E036493348FEF728F900283ED031
:1043980001213048FEF7F6F92C4B06221A7036E058
:1043A80030492C48FEF71AF9002830D0274D2E78CE
:1043B800063E2848FEF78AF92B4B98552B7801338F
:1043C800DBB22B70132B22D1224D00212846FEF799
:1043D800D9F901212846FEF7FDF91C4A1378013363
:1043E800137014E01B48FEF771F91A4B9B8A13F0FF
:1043F800040FF7D1174B9B8A13F0400FF2D1FFF748
:1044080025FF124B01221A70184B00221A700F4B0D
:104418001B78A3420FD00F4C4FF400712046FEF7D3
:10442800B9F84FF480612046FEF7B4F870BD074B29
:1044380001221A70EBE706490648FEF7CFF8002874
:10444800E9D0024B01221A70E5E700BF45000020C1
:1044580001000300005400408200070084000700A8
:104468000200030040000300E0000020DC00002000
:1044780000B583B04FF4FA73ADF800300023ADF8FF
:104488000230ADF80430254B1A68254B1B689A4258
:1044980022D9224B1B68FA33214A1360214B1B781F
:1044A800032B0AD8DFE803F0021B252F0023ADF801
:1044B8000030ADF80230ADF8043002AB13E9030068
:1044C800FFF778FC174A13780133DBB21370032B1C
:1044D80002D9134600221A7003B05DF804FB4FF4AA
:1044E800FA73ADF800300023ADF80230ADF80430AF
:1044F800E3E70023ADF800304FF4FA72ADF802207C
:10450800ADF80430D9E70023ADF80030ADF802303B
:104518004FF4FA73ADF80430CFE700BFC42500208C
:10452800C4010020A92500200138094B33F81030B8
:1045380040F6E44000FB03F0031344F6206000FB60
:1045480003F0044BA3FB0030C0F34F30704700BFAB
:10455800000100205917B7D170B584B00E46154632
:104568000024ADF80E40FFF7DFFFADF80E0009E0BC
:10457800291900230093FA2289B23046FCF7CEF8B5
:104588000134E4B2042C10D8094B33F81420BDF8D8
:104598000E309BB29A42EBD22919002200927D2359
:1045A80089B23046FCF7BAF8EAE704B070BD00BF3C
:1045B8003C78000808B500237BB1154A137801330D
:1045C800DBB21370072B02D9002313708BB14FF4A1
:1045D80008711048FEF798FF08BD0F4A32F813001B
:1045E8000E4951F82320024441F823200133DBB25D
:1045F800E2E70A4951F82320C2F3CF02084820F81D
:104608001320002241F823200133DBB2DEE700BF8C
:10461800741900200024014000010020040100203A
:10462800FC0000202DE9F04192B04FF48040FDF7E6
:1046380093FF414F01213846FDF7E6FD3F4C01212C
:104648002046FDF77BFD3E4D01212846FDF7F4FC91
:104658004FF00208ADF844808DF8468000268DF8AA
:10466800476011A92046FEF7EBFA3846FEF78CFEA4
:10467800344B0093344B019302960124039404961F
:10468800802305934FF4806307934FF48073069358
:10469800202308934FF4005309930A966946384635
:1046A800FEF7BCFD21463846FEF7BCFC0B968DF89C
:1046B80030408DF831404FF460230D930E968DF8FD
:1046C8003C400BA92846FFF7E1F821462846FFF7AA
:1046D8008DF80723224609212846FEF73BFF1223BF
:1046E8008DF840308DF841808DF842408DF8434078
:1046F80010A8FFF765F922464FF408712846FFF71E
:104708003FF821462846FFF797F82846FFF71CF898
:104718000B48FEF7FBFF0028FAD10948FEF7DAFF3D
:104728000748FEF7B9FF0028FAD101210448FEF72F
:1047380089FF12B0BDE8F08108000240000C01407A
:10474800002401404C240140000100202DE9F04FD5
:1047580099B00138C4B2022C00F2BA800E46B1F505
:10476800FA7F01D94FF4FA762746904B23F8146064
:104778004FF000088E4B03F804808E4B03F804803A
:10478800DFF838924FF4FB6505FB04954FF4FA62A5
:104798004146284602F0F2FD04224146284602F02E
:1047A800EDFDB246701C4FF4FB7303FB04000422BA
:1047B800FF2109EB800002F0E1FD01239E420BD3AB
:1047C8004FF4FB7202FB07327B4908787B4901F8FA
:1047D800220001339BB2F1E7A4B1012C7BD0022C5B
:1047E80076D1774B0393DFF8008200274FF0110949
:1047F800744E754B02934FF0140BA3F57843803B2E
:1048080001930FE0182303934FF000086F4F4FF008
:104818000D096F4E6F4B02934FF0A00BA3F5784331
:10482800303B019301210846FDF72CFB012101983B
:10483800FDF784FC01210298FDF7E6FC1FB1012178
:104848003846FDF757FCB8F1000F03D00121404668
:10485800FDF716FC18238DF85F3003238DF85E30C2
:10486800ADF85CB017A90198FEF7EAF9DDF808B0D1
:104878005846FEF789FD0C960D9510230E930AF104
:1048880002039B000F93002310938022119212932E
:10489800139314934FF44052159216930CA958464B
:1048A800FEF7BCFC8DF82C9002238DF82D300125E5
:1048B8008DF82E508DF82F500BA8FFF781F82A4657
:1048C8000A215846FEF760FBAC4213D9022C3FD0B0
:1048D80019B0BDE8F08F182303934FF000083E4F3E
:1048E8004FF00F093D4E3E4B02934FF4204B3D4B8A
:1048F800019397E70023ADF818304FF48272ADF8B2
:104908001A20ADF81C300225ADF81E500124ADF870
:1049180020404FF40072ADF82220039AADF824200D
:10492800ADF826304FF6FF73ADF8283006A93846A3
:10493800FDF7C0F921463846FDF730F922462946E9
:104948003846FDF757F921463846FDF787F9BFE79E
:10495800039B06930024ADF81C404FF48053ADF838
:104968001E30ADF82040ADF824400823ADF82230C1
:1049780006A94046FDF716FD4FF40063ADF8103068
:104988004FF48073ADF81630ADF81440ADF812400E
:1049980004A94046FCF79AFC012280214046FCF716
:1049A800ABFB01214046FCF75DFC91E70C010020C0
:1049B800B4010020C00000203A000020D0010020EF
:1049C800882A110004440040800002400030014061
:1049D8000C30014030000240003800400C380040E4
:1049E80058000240000C01400044004008B50C2269
:1049F800002102F0C3FC08BD10B5FFF775FA0023CB
:104A0800052B09D80022294921F81320284921F823
:104A180013200133DBB2F3E76420FCF799F9002196
:104A28006B20FFF7CDFA4FF4FA70FCF74DF904212B
:104A38001920FFF7C5FA4FF4FA70FCF745F903217E
:104A48001A20FFF7BDFA4FF4FA70FCF73DF9102170
:104A58001B20FFF7B5FA4FF4FA70FCF735F9082177
:104A68001C20FFF7ADFA4FF4FA70FCF72DF900217E
:104A78002320FFF7A5FA4FF4FA70FCF725F90D4B40
:104A880001221A70FFF7DAFB0024062C09D804EB80
:104A98004402930008481844FFF7A8FF0134E4B221
:104AA800F3E7054B05225A7010BD00BFC400002073
:104AB800D0000020A40100205001002010B5114BA7
:104AC8001B6813F4004F0BD00E4B4FF400425A6092
:104AD8000D4B01221A7000210C48FEF7A3FA10BDF5
:104AE800084B1B6813F4005FF5D0064B4FF40052D7
:104AF8005A60074C206802F02BFC00232360054A0B
:104B08001370E8E700000240CA2500204400024074
:104B1800BC000020EE0000202DE9F04104460E46BE
:104B2800FBF71CFC0746002840D0002E00F08180CF
:104B3800FF2C3ED0404D4FF0680808FB04F808F100
:104B4800400028441C223146043002F009FC96F942
:104B58000C30454485F83430012385F840303078EE
:104B6800FBF796FB88BB344B682202FB0432B2F891
:104B78004E3051880B44013B9BB2A2F84E30D3868D
:104B8800928893424DD92C49682303FB0413DA8693
:104B9800294A682303FB0423B3F854201A87264BB9
:104BA800682202FB0434002384F841303846BDE80B
:104BB800F0810025214B1B78AB42BBD931462846F2
:104BC800FFF7AAFF0135EDB2F4E71B4B682505FB9B
:104BD8000435686E02F0BCFBB5F84800B5F85230F1
:104BE8000221184402F09EFB68660023EB86B5F8A4
:104BF8005430134AA2FB03231B09B5F8522003FBC8
:104C080002F3B5F84820B3FBF2F1934200D2012138
:104C1800094A682303FB0423A3F8541001221A87C6
:104C2800BDE79942B4D9044A682303FB0423D98613
:104C3800AEE70027BAE700BF78190020120100206C
:104C4800CDCCCCCC70B50546194B187868BB0C4652
:104C580016469DB100211748FEF7E4F97CB12146BC
:104C68001448FEF75DF996B9124BDD600124104B2C
:104C78001C7021460F48FEF7D5F9204670BD2B461B
:104C880013F9012B002AEAD00134A4B2F8E7012174
:104C9800204602F047FB084E30602246294602F0C3
:104CA8005FFB3268034BDA60E0E70020E6E700BF0D
:104CB800EE00002044000240BC00002008B56E4B06
:104CC8001B8813F0200F66D06B4B9B88DBB26B4AB6
:104CD80013706B4B1B78002B58D11378443B202B57
:104CE80059D8DFE803F03358583D582A58584958DE
:104CF8005858215858581B585858585858585858A0
:104D080058585811585815005E48FEF7B3FE42E04F
:104D1800002211465C48FFF795FF3CE00323584A00
:104D280013705A4A137036E00023584A1370544AD5
:104D380001211170564A13702DE00123534A137054
:104D48004F4A1370524B00221A7024E04F4B022234
:104D58001A704B4B01221A704D4B00221A701AE040
:104D68004A4B04221A70464B03221A70002211463D
:104D78004848FFF767FF0EE0444B05221A70404B86
:104D880001221A70424B00221A7004E03C4B1B7837
:104D9800DBB2012B00D008BD3C4B1B78DBB2052BE6
:104DA800F9D801A252F823F0C94D0008F74D0008C0
:104DB800254E00089F4D00089F4D0008534E0008DF
:104DC800334B1B782D490A78D2B23348C2540A783B
:104DD800D2B20A2A01D00A782AB92F4A0021D1541E
:104DE800274A032111700133294A1370D3E7284B4E
:104DF8001B7822490A78D2B22748C2540A78D2B21C
:104E08000A2A01D00A782AB9234A0021D1541C4A17
:104E18000321117001331E4A1370BCE71C4B1B7829
:104E280016490A78D2B21C48C2540A78D2B20A2A61
:104E380001D00A782AB9184A0021D154104A03210E
:104E480011700133124A1370A5E7114B1B780B49F7
:104E58000A78D2B21048C2540A78D2B20A2A01D0CB
:104E68000A7822B900220C49CA5405490A7001334C
:104E7800074A13708FE700BF00380140CB25002098
:104E8800E0250020D8770008E0770008C925002031
:104E980018010020E4250020CC2500202DE9F0474A
:104EA80081460C46FBF75AFA8246002800F0A0809B
:104EB800002C00F0B680B9F1FF0F18D0C846682062
:104EC80000FB09F01030584B18441C2221460430CE
:104ED80002F046FA03263AE021462846FFF7DEFFAD
:104EE8000135EDB2514B1B78AB42F5D8E6E700250A
:104EF800F8E7002700E000272079E378C01A02F0DD
:104F08000DFAB0FBF5F0C0B2474A682303FB08234B
:104F1800187320B92279E3789A4200D05746A079CD
:104F28006379C01A02F0FAF9B0FBF5F0C0B23E4A54
:104F3800682303FB0823587328B9A27963799A4236
:104F480001D0574600E00FB10136B6B2D7B1A56817
:104F580006EB86029300B5FBF3F5A0786378C01AD8
:104F680002F0DCF9B0FBF5F0C0B22F4A682303FB6E
:104F78000823D8720028BED1A27863789A42B8D0A4
:104F88005746B9E7284A682303FB09231E841E8273
:104F980094F90E30B3F1FF3F2DD06278224968238F
:104FA80003FB09131A72E2785A7262799A7294F9B9
:104FB8000E201D49682303FB09139A731B6B0022FB
:104FC800A3FB051313BB1AB3174A682303FB092372
:104FD80000229A62144B682202FB0939D9F828305A
:104FE800C9F83030012389F81230002389F81330CA
:104FF8005046BDE8F087A2780B49682303FB0913E4
:105008001A7222795A72A2799A72D0E70122DAE7E3
:10501800236905FB03F5044A682303FB09239D6202
:10502800D8E74FF0000AE3E77819002012010020C2
:105038002DE9F041244D2D781D2D3CD891423CD8C6
:105048001F4616460D460446FBF760FA002837D07F
:1050580031462046FBF75AFA002833D01A4A92F80C
:1050680000801A48682303FB08F3C118C4544D8014
:105078008E8008F10103137006994046FFF70EFF72
:1050880028B9124A682303FB082300229A740E4B9E
:10509800187801383946C0B2FFF73EFD30B90B4BDE
:1050A800682202FB0838002388F84030064B18783D
:1050B8000138C0B202E01F2000E01F20BDE8F081E7
:1050C8001F20FBE71F20F9E71201002078190020B4
:1050D80010B5044602F00EFA013401386FF00043AF
:1050E800B3FBF4F3B0FBF3F010BD00002DE9F04F73
:1050F8008BB0044601238DF82730FBF72FF910B940
:105108000BB0BDE8F08F2646BA4A682303FB04F3C8
:1051180003F1080102EB010BD118B1F80280B1F8D4
:105128000490D05C0790B1F84C70B1F84A0007447D
:10513800BFB2B1F848502F44BFB2B1F852100D4475
:10514800ADB203F138001044FBF7AAF800284CD0A0
:10515800A84A682303FB042393F84400022810D0CC
:1051680048B301284ED0FBF793F80028C8D0A14ACD
:10517800682303FB04239B7C002B67D14FF0000AB4
:1051880062E04FF0680A0AFB042ABAF852109AF94A
:1051980034000DF1270300934B46424600FB01F112
:1051A800BAF83600FBF74AFBAAF836009DF8273014
:1051B8008AF8343012E08F4B4FF0680A0AFB043A41
:1051C800BAF852109AF934004B46424600FB01F1F6
:1051D800BAF83600FBF753FBAAF83600854A68236D
:1051E80003FB0423B3F854201A87824A682303FB7D
:1051F800042393F84400FBF74BF8002840F0FC80A8
:105208000024ADE17B4A682303FB0423D88EB3F85E
:10521800522093F9341089B201FB0202DA86DDE7E5
:10522800744A682303FB06235A6E32F81A1093F85F
:105238005C3001930022009213462046FBF700FAE7
:105248000AF1010A1FFA8AFAAA45E9D3694A6823CA
:1052580003FB0423DB8EAB4208D3682303FB042340
:1052680093F84430042B0BD0052B17D0614A6823E0
:1052780003FB0423DB8EAB42B0D24FF0000A5DE0A3
:105288004FF0680A0AFB042A6A000021DAF8640071
:1052980002F074F80023AAF83630E7E7554A682385
:1052A80003FB0423DD86012283F84120DEE7A9EB16
:1052B8000800FFF70DFF80B24E4A682303FB062360
:1052C8005A6EDB8E013022F8130050E0682303FB8E
:1052D80006230122DA8653E0072B18D0454A6823B3
:1052E80003FB0423DD86434A682303FB042393F866
:1052F8004430072B66D03F4A682303FB042300226F
:1053080083F8602083F8612083F8622066E76A1ECC
:105318003849682303FB0413DA86FF2283F8342014
:10532800E1E73BB9334A682303FB062393F844308B
:10533800072B40D00AF1010A1FFA8AFA2D4A68237E
:1053480003FB0623B3F852305345CCD9294A6823C6
:1053580003FB062393F93430B3F1FF3FA7D1682349
:1053680003FB06235A6EDB8E002122F81310214A14
:10537800682303FB06235B6B23F47F43FF2BA5D035
:105388001C4B682202FB0632D38E92F9341089B284
:105398000B449BB2D386AB42C3D3164A682303FBA4
:1053A800062393F84430062B96D1682303FB062383
:1053B8000022DA86BEE7682303FB0623012283F86E
:1053C8003420B7E7682303FB042393F93430B3F19F
:1053D800FF3F90D1682303FB042393F8452083F80B
:1053E800602093F8462083F8612093F8472083F8DB
:1053F8006220F3E678190020984B682707FB0437EA
:1054080097F9348097F84520B7F854900092002314
:1054180092FBF9F2414697F86000FBF73EFA87F8ED
:10542800600097F846200092002392FBF9F241466B
:1054380097F86100FBF731FA87F8610097F8472081
:105448000092002392FBF9F2414697F86200FBF7BD
:1054580024FA87F86200FF8EBD4229D84FF0000871
:105468004AE06F1EBFB27D4B682202FB0632536EC4
:1054780033F8171092F8623092F85C0001900093AC
:1054880092F8613092F860202046FBF7D9F808F1CD
:1054980001081FFA88F8714A682303FB0623B3F84A
:1054A80052304345DAD9002FDBD0013FBFB2DAE7EB
:1054B8004FF00008EFE76F1EBFB2684A682303FB8E
:1054C80006235B6E33F8171000293FF419AE134614
:1054D800682202FB063292F8473092F85C0001908D
:1054E800009392F8463092F845202046FBF7A8F83A
:1054F80008F101081FFA88F8584A682303FB0623B5
:10550800B3F8483043457FF6FBAD002FD3D0013FB9
:10551800BFB2D2E7682000FB062090F9341001FBE7
:1055280004F1002300934B4642464942C08EFBF7E4
:1055380085F905B20EE0494B682000FB063090F96A
:10554800341001FB04F14B4642464942C08EFBF73A
:1055580096F905B2454501DB4D4559DD0134A4B244
:10556800BC42BFF4CDAD3D4A682303FB062393F844
:105578004430022BCED0002BDDD0012B7FF4C0AD00
:10558800364A682303FB0623DD8E93F9343003FB88
:1055980014552DB27A1E9442DCDB012B1DD0B3F1D9
:1055A800FF3FD7D14545D5DA2C48682303FB06F3DE
:1055B800C218A2F83690383318440430FAF77CFE43
:1055C8000028C7D0254A682303FB0623012283F855
:1055D8004120002283F84020BCE74D45DFDD1F480D
:1055E800682303FB06F3C218A2F836803833184440
:1055F8000430FAF761FE0028ACD0184A682303FB90
:105608000623012283F84120002283F84020A1E7E5
:1056180004F1010A1FFA8AFA012251465846FAF79C
:1056280056FE0590022251465846FAF750FE06905B
:10563800032251465846FAF74AFE01230293074AC5
:10564800682303FB062393F85C3001930090069BC4
:10565800059AA9B20798FAF7B7FF7FE778190020EB
:105668002DE9F04186B0002305930493404B1A6856
:10567800404B1B689A4202D806B0BDE8F081FF2073
:10568800FAF784FF0028F7D1394B1B680533394AEC
:105698001360394B1B78394A157805EB9305EDB241
:1056A8000135EDB232E0682303FB04F310330846FA
:1056B8001844FAF7F5FD88B9314A682303FB042337
:1056C8005A7A997A93F82C000290019100921B7AE9
:1056D8003A4631464046FBF753F830E0274B1878F6
:1056E800FBF7EEF8264A682303FB04231A8C1A8278
:1056F800E2E7224B1878FFF7F9FCFBF7CBFA059B9A
:10570800C01A04901D4A1378013313701B4B1C7880
:105718002046FAF723FED8B1AC4219D2FBF7BAFA01
:105728000590164B1C781649682303FB04F3CA1826
:105738005688978811F80380937C002BB3D1104BBF
:10574800682202FB043494F84030002BD5D0D0E70F
:105758000C4A13780133DBB21370032B8CD9FF206A
:10576800FDF70CFD0023074A1370044A137083E702
:10577800C4250020BC0100201201002013010020D4
:10578800781900200801002070B58AB00D46072856
:1057980010D008281ED0062820D800EBC0008300AF
:1057A80001AE144C1C440FCC0FC60FCC0FC6236897
:1057B800336013E00620FFF78BFC00EBC00083008A
:1057C80001AE0C4C1C440FCC0FC60FCC0FC623687F
:1057D800336003E00023029304930693029B9B0823
:1057E8006B70049B9B08AB70069B9B08EB700AB020
:1057F80070BD00BF4878000870B58AB00C4607280D
:1058080010D008281ED0062820D800EBC00083003E
:1058180001AE1C4D1D440FCD0FC60FCD0FC62B6812
:10582800336013E00620FFF753FC00EBC000830051
:1058380001AE144D1D440FCD0FC60FCD0FC62B68FA
:10584800336003E00023029304930693029AC2F3A1
:105858008702A2700C49A1FB023252086270049AB6
:10586800C2F387022271A1FB02325208E270069B42
:10587800C3F38703A371A1FB03235B0863710AB019
:1058880070BD00BF48780008ABAAAAAA2DE9F0416C
:1058980082B0AC4B1B787BB30120FEF7E7F920B947
:1058A800A94B1B78002B00F00181A84B01221A702C
:1058B800A54B00221A70A64B1B78092B65D0013323
:1058C800DBB2A34A13700B2B02D9134600221A70BD
:1058D8009F4B1B780C2B00F2B480DFE813F05E00BE
:1058E80067007900820070008B0093009B00AA007B
:1058F800A300B20013012001964C21460220FFF7B5
:1059080043FF4FF00008C4F8148005232381E38087
:105918000F23A3800125257025820227E78125739F
:1059280065818D4E31460620FFF766FFC6F8108068
:1059380037704FF0FF0886F80E804FF42F73B3606E
:105948000420FAF7B3FE009623462D22394628464E
:10595800FFF76EFB814B18700096234685225A216B
:105968002846FFF765FB7E4B187084F80C8064238B
:1059780063810096234659222E212846FFF758FBBB
:10598800784B18706F4B1D7086E7724A012111829F
:10599800714A4FF42F71916091E76F490620FFF724
:1059A8002BFF6C490220FFF7EFFE4AE06A4901200D
:1059B800FFF722FF67490220FFF7E6FE41E066494C
:1059C8000220FFF719FF63490520FFF7DDFE38E0E5
:1059D80061490420FFF710FF5E490220FFF7D4FE5B
:1059E8002FE05D490220FFF707FF5A490020FFF723
:1059F800CBFE26E058490120FFF7FEFE534B00225C
:105A08001A701EE054490220FFF7F6FE4F4B0022A1
:105A18001A7016E050490420FFF7EEFE4B4B0022A7
:105A28001A700EE04B4B01221A824B4B4FF49672C0
:105A38009A6049490720FFF7DFFE46490720FFF72C
:105A4800A3FE454C454F21463878FFF727FA454EC7
:105A580021463078FFF722FA414D21462878FFF792
:105A68001DFA3C4C01232373638121463878FFF7E4
:105A780053F821462878FFF74FF8FF232373642350
:105A8800638121463078FFF747F8304C2178387821
:105A9800FAF70EFD21783078FAF70AFD2178287890
:105AA800FAF706FD2A4B1B780A2B3CD04FF47A7183
:105AB8000120FEF70DF968B12B4A13780133DBB2E8
:105AC80013700F2B02D9134600221A70264B187830
